:02000002D0002C
:1040000000400D0070560D00000005000D00050178
:0840100004019301000000000F
:104018008C520D0009480A49884208B505D0094A5A
:10402800824202D0121A01F0E9F80748074A002133
:10403800121A01F0EEF8014808BD00BF08E303209A
:10404800E0550D0070E3032070E30320F0E7032040
:1040580070B500F0BDFB074C074BE41AA408002517
:104068001E46A54204D056F8253098470135F8E792
:1040780070BD00BFD8550D00A0550D0000F026B842
:1040880008B500F03BF8BDE8084000F06FBB00F051
:104098003DBA00F03BBA0078B0FA80F040097047AA
:1040A8000123037070470368C9B29B68184708B5B5
:1040B8000121072000F0EBFE4FF4FA7000F018FB26
:1040C80000210720BDE8084000F0E1BE08B500F077
:1040D80055FC4FF4165100F045FC00F013FF00F0BA
:1040E8006FFD0121072000F0C1FE00F047FC0249E6
:1040F800BDE8084000F0B1BAA0520D0010B5124C4E
:1041080000F000FF082100F065FD00F0FBFE2168CB
:10411800FFF7C9FF00F0F6FE2168090AFFF7C3FFA1
:1041280000F0F0FE00F05DFD236801332360FFF727
:10413800BEFF4FF4FA7000F0DBFA00F01FFC0349F1
:10414800BDE8104000F089BA74E30320B2520D00B4
:1041580008B500F01FF8064B00221A705A804FF677
:10416800FF729A800220BDE8084000F04BB900BFFA
:1041780078E3032008B5024B1B689B68019308BDD0
:104188006802030008B5024B1B68DB68019308BD91
:104198006802030008B5024B1B681B68019308BD41
:1041A8002C02030008B5024B1B689B68019308BDED
:1041B8002C02030008B5024B1B68DB68019308BD9D
:1041C8002C02030008B5024B1B681B69019308BD4C
:1041D8002C02030008B5024B1B68DB69019308BD7C
:1041E8003002030008B5024B1B681B6A019308BD27
:1041F8003002030008B5024B1B685B68019308BDD9
:104208001802030008B5024B1B685B69019308BDDF
:104218001802030008B5024B1B689B68019308BD90
:104228004802030008B5024B1B681B69019308BDCF
:104238004802030008B5024B1B685B69019308BD7F
:104248004802030008B5024B1B681B6B019308BDAD
:104258004802030008B5024B1B685B6C019308BD5C
:104268004802030008B5024B1B685B69019308BD4F
:104278006402030008B5024B1B681B68019308BD64
:104288003C02030008B5024B1B68DB68019308BDBC
:104298003C02030008B5024B1B681B69019308BD6B
:1042A8003C02030008B5024B1B685B69019308BD1B
:1042B8003C02030008B5024B1B689B69019308BDCB
:1042C8003C02030008B5024B1B68DB69019308BD7B
:1042D8003C02030008B5024B1B681B6A019308BD2A
:1042E8003C02030008B5024B1B689B6A019308BD9A
:1042F8003C02030008B5024B1B68DB68019308BD4C
:104308002802030008B5024B1B689B69019308BD8E
:104318002802030008B5024B1B68DB69019308BD3E
:104328002802030008B5024B1B681B6A019308BDED
:104338002802030008B5024B1B685B6A019308BD9D
:104348002802030008B5024B1B689B6A019308BD4D
:104358002802030008B5024B1B68DB6A019308BDFD
:104368002802030008B5024B1B681B6B019308BDAC
:104378002802030008B5024B1B685B6B019308BD5C
:104388002802030008B5024B1B681B6C019308BD8B
:104398002802030008B5024B1B681B68019308BD7F
:1043A8004C02030008B5024B1B685B68019308BD0B
:1043B8004C02030008B5024B1B681B69019308BD3A
:1043C8004C02030008B5024B1B685B69019308BDEA
:1043D8004C02030008B5024B1B689B69019308BD9A
:1043E8004C02030008B5024B1B68DB69019308BD4A
:1043F8004C02030008B5024B1B681B6A019308BDF9
:104408004C02030008B5024B1B685B68019308BDAA
:104418002002030008B5024B1B685B69019308BDC5
:104428002002030008B5034B1B68D3F888300193BA
:1044380008BD00002002030008B5034B1B68D3F831
:104448009430019308BD00002002030008B5024B18
:104458001B685B68019308BD4002030008B5024B66
:104468001B689B68019308BD4002030008B5024B16
:104478001B68DB68019308BD4002030008B5024BC6
:104488001B681B69019308BD4002030008B5024B75
:104498001B685B69019308BD4002030008B5024B25
:1044A8001B689B69019308BD4002030008B5024BD5
:1044B8001B68DB69019308BD4002030008B5024B85
:1044C8001B681B6A019308BD4002030008B5024B34
:1044D8001B681B6B019308BD4002030008B5024B23
:1044E8001B685B6B019308BD4002030008B5024BD3
:1044F8001B68DB6B019308BD4402030008B5024B3F
:104508001B681B68019308BD1C02030008B5024B19
:104518001B685B68019308BD1C020300002211465A
:104528004068FFF7CBBF002211464068FFF7D6BFAF
:1045380000224068FFF7CABF002281F001014068ED
:10454800FFF7B4BF00231A4619464068FFF7A6BF15
:1045580000231A4619464068FFF798BF0022114603
:104568004068FFF78BBF002211464068FFF776BF0F
:10457800002202214068FFF779BF00231A464068ED
:10458800FFF764BF024B03225A60024A1A60704761
:1045980080E30320BC520D00704710B50446FFF7B6
:1045A80076FD204610BD000070B5084B0360044638
:1045B80000250E4640F80C5FFFF744FE3046267192
:1045C800FFF708FEA560204670BD00BFF0520D0041
:1045D8000079FFF707BE0000044B00204FF6FF727A
:1045E800187058809A80FFF70DBF00BF88E303203A
:1045F800F8B506460D468F180024BD420CD0336826
:1046080015F8011B9B6830469847002801DB0444D5
:10461800F3E7002C08BF04462046F8BD70B50546F0
:104628000C46084649B100F025FE2B680246214693
:104638002846DB68BDE87040184770BD03689B6872
:10464800184738B50D210546FFF7F8FF0A2104463B
:104658002846FFF7F3FF204438BD38B50546FFF775
:10466800DDFF04462846FFF7ECFF204438BD30B58F
:104678008BB00B4600218DF82410012A98BF0A221E
:104688000DF12304B3FBF2F505FB123303F0FF032E
:10469800092B94BF30333733DBB2214604F8013994
:1046A8002B46002DEED1FFF7B9FF0BB030BD10B48B
:1046B8002AB903685DF8044B9B68C9B21847D2B29F
:1046C8005DF8044BFFF7D3BFFFF7F1BF014B024A78
:1046D8001A60704790E30320B0530D00024B1A682C
:1046E800024B1A60704700BF08E3032094E30320DD
:1046F8000021FFF78FBE10B58368044613B103226B
:1047080001469847204610BD10B50446FFF7F3FF51
:10471800204610BD0348044A04490023836000F082
:1047280011BC00BF98E3032070E3032011470D007C
:1047380008B50C4B33B100F021F903681B699847A1
:10474800002809DC084B63B100F0D6F903681B693F
:104758009847002803DC08BDAFF30080F2E7AFF309
:10476800008008BD000000000000000008B5FFF749
:10477800DFFFFFF747FD014B186008BD34E7032052
:1047880007B5002300931A466FF07701FFF754FE30
:1047980003B05DF804FB000007B543880A2B08D076
:1047A800502B09D1094B1B683BB103B05DF804EBF2
:1047B8001847FFF7E5FF06E0002300931A466FF05D
:1047C8007701FFF739FE03B05DF804FBA8E3032087
:1047D80010B5FFF70FFD044600F024FD074B13B199
:1047E8002046AFF3008000210448FFF77FFE002138
:1047F8000348BDE81040FFF715BE00BF00000000E9
:10480800A1470D00704710B50446FFF740FC20464D
:1048180010BDF0B5037D062B8DB00E4600F10407E0
:104828004FF0000402D000F1080518E00CAD39463D
:1048380005F8304D2F232A460A20FFF713FD284696
:1048480000F018FD33680246DB6829463046984771
:104858000FE024B12E213046FFF7F0FE044415F88E
:10486800011D0A223046FFF72FFFBD420444F0D154
:1048780020460DB0F0BD000010B5054B04461122CE
:1048880040F8043B002100F0C4FC204610BD00BFE6
:104898000C540D000346074A10B543F8042B01F1E8
:1048A800100251F8044B43F8044B9142F9D10A78AD
:1048B8001A7010BD0C540D0010B59DF8084044EA5C
:1048C800032343EA024242EA01610423416003757B
:1048D80010BD37B50D788B784A78C978009129468C
:1048E800FFF7EAFF03B030BD4174704770470021FD
:1048F800007CFFF76FBD0121007CFFF76BBD007CDA
:10490800FFF760BD007CFFF755BD38B50446007C55
:104918000D46FFF757FD002801DC607C20B12946D1
:10492800207CFFF75FFD012038BD007CFFF762BDEA
:1049380010B50446FFF7ABFB204610BD10B5044682
:10494800002363604FF47A73A360054B236001234F
:104958000846217463741146FFF71CFD204610BDFC
:1049680020540D000022007CFFF71CBD10B5142256
:104978000446002100F04DFC204610BD30B50E4D18
:1049880087B001A8FFF7F2FF296811F0010410D1E0
:104998002846FFF780FB60B101AA21460748FFF7C8
:1049A800CDFF2846FFF77CFB054A0649034800F07F
:1049B800C9FA024807B030BDACE30320B0E30320D6
:1049C80070E30320F5480D00002211464068FFF708
:1049D80055BD002211464068FFF770BD0022114600
:1049E8004068FFF77BBD00224068FFF76FBD0022DB
:1049F80081F001014068FFF759BD00231A461946A6
:104A08004068FFF74BBD00231A4619464068FFF778
:104A18003DBD002211464068FFF720BD002202215B
:104A28004068FFF723BD00231A464068FFF70EBD14
:104A380038B50C4D282422460021284600F0E9FB11
:104A48004FF0FF336B602C80074D042328466B60C2
:104A5800064B40F8083B2246002100F0DAFB2C8187
:104A680038BD00BFF4E30320C4E3032050540D0015
:104A7800704741747047007CFFF734BC007CFFF737
:104A880009BC007CFFF716BC007CFFF70BBC007C60
:104A9800FFF718BC10B50446FFF7F9FA204610BD19
:104AA80070B5457C04460E4625B9007CFFF71AFC14
:104AB800002805DD3146207CBDE87040FFF7E2BBE9
:104AC800284670BD10B504460846114600226260AB
:104AD8004FF47A72A260054A22600122207462743F
:104AE8001A46FFF7C7FB204610BD00BF84540D00CF
:104AF800007CFFF7EFBB000038B50C4D296811F0BA
:104B0800010411D12846FFF7C6FA68B1084A094BD3
:104B180009482146FFF7D6FF2846FFF7C1FA074A9A
:104B28000749054800F00EFA034838BDB4E40320ED
:104B3800B8E4032030E403201CE4032070E30320DE
:104B4800794A0D007047F8B5064615460C468F1889
:104B5800BC4206D0336814F8011B9B68304698475E
:104B6800F6E72846F8BD0022007CFFF7DBBB0021F2
:104B7800007CFFF7DFBB0021007CFFF7E3BB0021CF
:104B8800007CFFF7E7BB0021007CFFF7EBBB10B50B
:104B98000446FFF77CFA204610BD000010B5044615
:104BA8004FF47A730846A3600021044B20746160B7
:104BB8002360FFF7E7FB204610BD00BFB4540D008B
:104BC80000231A461946007CFFF794BB0022007C9C
:104BD800FFF798BBC9B2FFF7F9BF0022007CFFF7C7
:104BE80099BB0121FFF7F9BF0021007CFFF7C2BB89
:104BF800002211464068FFF761BC00221146406858
:104C0800FFF76CBC00224068FFF760BC002281F00F
:104C180001014068FFF74ABC00231A46194640685C
:104C2800FFF73CBC00231A4619464068FFF72EBC24
:104C3800002211464068FFF721BC00221146406857
:104C4800FFF70CBC002202214068FFF70FBC0023CD
:104C58001A464068FFF7FABB10B103685B6818474B
:104C6800704738B504460068D0B1FFF7D3FAB8B931
:104C7800237C1BB9206808B1FFF7D4FA656855B1E1
:104C8800AB681BB103222946284698472846FFF7F8
:104C9800FEF9002363602068FFF7CCFA0023236045
:104CA80038BD000038B50B4B03600446D0F8CC0182
:104CB80008B1FFF7EEF9D4F8C4512DB12846FFF733
:104CC800D0FF2846FFF7E3F9A06808B1FFF7C4FF53
:104CD800204638BDDC540D0038B50D4C0D4B236013
:104CE8000025022304F5E4706360A560C4F8C4518C
:104CF800C4F8C851FFF7AEFA074BC4F8CC5123608B
:104D08002046064A0649BDE8384000F01BB900BFF6
:104D18003CE5032010550D00DC540D0070E3032022
:104D2800AD4C0D0000231A464068FFF78FBB0022E8
:104D380002214068FFF79ABB002211464068FFF73E
:104D48008DBB002211464068FFF798BB00231A4626
:104D580019464068FFF79ABB00231A46194640686F
:104D6800FFF79CBB002281F001014068FFF79EBB62
:104D780000224068FFF7AABB002211464068FFF7EF
:104D8800ADBB002211464068FFF798BB70B58CB0E8
:104D980014460646FFF770FD0CAB0022114643F897
:104DA800302D2046FFF7EEF9014658BB009B4BB368
:104DB8005A68022A0ED00A2A24D15C69112201A855
:104DC80000F027FA06238DF8143001AD04F108032A
:104DD800183405E0596930460431FFF77AFD11E0CF
:104DE800186859682A4603C20833A3421546F7D102
:104DF80001A906A807ADFFF74DFD0FCD341D0FC45F
:104E08002B6823700098FFF7B5F930460CB070BDD9
:104E1800024B034A1A6000225A6070470CE70320CD
:104E280010550D0010B504460F48FFF7D1FB28B107
:104E3800A4F10B03022B01D8002010BD00F062F88A
:104E4800FFF7D2FE08B1012CF6D9FFF755FEFFF7A0
:104E58004FFE18B1A4F10903012BEDD9232C8CBF07
:104E68000020012010BD00BF14E70320232838B517
:104E780004460D460AD8FF2908D0FFF7D3FF28B10A
:104E880029462046BDE83840FFF78CB938BD38B50B
:104E980004460D46FFF78EF9FF2810D0062804D8DF
:104EA8004D2323FA00F0C30709D42046FFF7BAFFC1
:104EB80028B129462046BDE83840FFF783B938BDF8
:104EC80070B50C4C0C4E0D4D00212046FFF76CFBC5
:104ED80020460B4C3246294600F034F80121204682
:104EE800FFF762FB324629462046BDE8704000F0D5
:104EF80029B800BF14E7032070E30320A1450D0083
:104F080024E7032038B50B4D296811F001040FD1AF
:104F18002846FFF7C0F858B121460748FFF73EFE7C
:104F28002846FFF7BDF8054A0549034800F00AF886
:104F3800014838BD38E703203CE7032070E303202D
:104F48004D4B0D000B460146184600F049B90000CC
:104F5800184B1A68D1075CBF01221A60164B1A68F1
:104F6800D2075CBF01221A60144B1A68D0075CBFD5
:104F780001221A60124B1A68D1075CBF01221A601D
:104F8800104B1A68D2075CBF01221A600E4B1A68D0
:104F9800D0075CBF01221A600C4B1A68D1075CBFAE
:104FA80001221A600A4B1A68D2075CBF01221A60F4
:104FB800704700BF6CE7032068E7032064E703201D
:104FC80060E703205CE7032058E7032054E7032049
:104FD80050E70320244B1A68D0075CBF01221A60EF
:104FE800224B1A68D1075CBF01221A60204B1A684D
:104FF800D2075CBF01221A601E4B1A68D0075CBF3B
:1050080001221A601C4B1A68D1075CBF01221A6082
:105018001A4B1A68D2075CBF01221A60184B1A682B
:10502800D0075CBF01221A60164B1A68D1075CBF13
:1050380001221A60144B1A68D2075CBF01221A6059
:10504800124B1A68D0075CBF01221A60104B1A680D
:10505800D1075CBF01221A600E4B1A68D2075CBFE9
:1050680001221A60704700BF9CE7032098E70320DD
:1050780094E7032090E703208CE7032088E70320C8
:1050880084E7032080E703207CE7032078E70320F8
:1050980074E7032070E70320244B1A68D0075CBF2D
:1050A80001221A60224B1A68D1075CBF01221A60DC
:1050B800204B1A68D2075CBF01221A601E4B1A687F
:1050C800D0075CBF01221A601C4B1A68D1075CBF6D
:1050D80001221A601A4B1A68D2075CBF01221A60B3
:1050E800184B1A68D0075CBF01221A60164B1A6861
:1050F800D1075CBF01221A60144B1A68D2075CBF43
:1051080001221A60124B1A68D0075CBF01221A608C
:10511800104B1A68D1075CBF01221A600E4B1A683F
:10512800D2075CBF01221A60704700BFCCE703209A
:10513800C8E70320C4E70320C0E70320BCE7032037
:10514800B8E70320B4E70320B0E70320ACE7032067
:10515800A8E70320A4E70320A0E70320184B1A6858
:10516800D1075CBF01221A60164B1A68D2075CBFD0
:1051780001221A60144B1A68D0075CBF01221A601A
:10518800124B1A68D1075CBF01221A60104B1A68CB
:10519800D2075CBF01221A600E4B1A68D0075CBFA9
:1051A80001221A600C4B1A68D1075CBF01221A60F1
:1051B8000A4B1A68D2075CBF01221A60704700BF09
:1051C800ECE70320E8E70320E4E70320E0E7032017
:1051D800DCE70320D8E70320D4E70320D0E7032047
:1051E80010B5054C13462CB10A4601460220AFF310
:1051F800008010BD204610BD0000000010B5431E01
:105208000A44914204D011F8014B03F8014FF8E722
:1052180010BD02440346934202D003F8011BFAE78B
:105228007047000038B5124B1C68A36B0546D3B90C
:105238001820FFF763F943F20E33A06303804AF6A0
:10524800CD33438041F2342383804EF26D63C380B3
:105258004DF6EC630381052343810B2383810122EF
:105268000023C0E90423A36B00221D615A6138BDE5
:105278006CE30320034613F8012B002AFBD1181A0C
:10528800013870471D400D0059400D0085400D0044
:1052980089400D0000000000426F726F6E204D6162
:1052A800737465722054657374002E00000000004A
:1052B8000000000083450D0079450D006F450D0085
:1052C80065450D0059450D004D450D0041450D0042
:1052D80039450D002F450D0025450D00954D0D0054
:1052E8000000000000000000A1450D00A3450D00CE
:1052F80066006C6E00666E00636F646500646574BA
:1053080061696C000D0A00253031307520005D2080
:10531800002564002C200028293A2000205B006327
:105328006F6465203D200025690064657461696CBF
:1053380073203D2000626175640053657269616C79
:105348000053657269616C31007479706500706131
:1053580072616D00636D6400696400686E64007357
:1053680074726D0066696C74006C766C00616464BC
:1053780048616E646C65720072656D6F7665486130
:105388006E646C657200656E756D48616E646C65FF
:105398007273004A534F4E53747265616D4C6F6758
:1053A80048616E646C657200617070006E6F6E6546
:1053B80000747261636500696E666F007761726E72
:1053C800006572726F720070616E696300616C6C67
:1053D800005A00252B3033643A25303275002559A0
:1053E8002D256D2D25645425483A254D3A255325FC
:1053F8007A0061736374696D650000000000000045
:10540800000000001B480D000D480D000F480D005E
:105418000000000000000000F5480D0039490D00AB
:1054280013490D00F9450D000D490D00F7480D0011
:10543800FF480D0033490D0007490D00F1480D00E4
:1054480000000000000000002F4A0D00254A0D0052
:105458001B4A0D00D1490D000F4A0D00034A0D00EB
:10546800F7490D00EF490D00E5490D00DB490D0036
:10547800954D0D000000000000000000794A0D0065
:105488009D4A0D00A94A0D00F9450D00854A0D00F9
:10549800914A0D008B4A0D00974A0D007B4A0D007A
:1054A8007F4A0D0000000000000000004D4B0D0079
:1054B800974B0D006F4B0D004F4B0D00774B0D00B8
:1054C8007F4B0D00874B0D008F4B0D000000000037
:1054D80000000000574C0D004D4C0D00434C0D00D2
:1054E800394C0D002D4C0D00214C0D00154C0D00B4
:1054F8000D4C0D00034C0D00F94B0D00954D0D00A2
:1055080000000000000000002D4D0D00374D0D007B
:10551800414D0D004B4D0D00554D0D00614D0D00D9
:105528006D4D0D00794D0D00814D0D008B4D0D0019
:10553800954D0D0000000000000000000000000074
:105548000000000000000000000000000000000053
:105558000000000000000000000000000000000043
:105568000000000000000000000000000000000033
:105578000000000000000000000000000000000023
:105588000000000000000000000000000000000013
:10559800000000004300000059410D008D450D003A
:1055A800E1450D00D5460D00E5460D001D470D00EF
:1055B800394A0D00E14C0D00194E0D00C94E0D0081
:1055C800594F0D00DD4F0D00A1500D0065510D0024
:0855D8000000000000000000CB
:1055E000FA530D00000000003C550D005C550D0005
:1055F0007C550D00000000000000000000000000CD
:10560000000000009C550D0000000000000000009C
:10561000000000000000000000000000000000008A
:10562000000000000000000000000000000000007A
:10563000000000000000000000000000000000006A
:08564000000000000CE3032050
:10564800FFFFFFFF00000102030405060708090A1F
:105658000B0C0D0E0F101112131415161718191A1A
:085668001B1C1D1E1F20280061
:045670007856341222
:04000003D0004018D1
:00000001FF
