:02000002D0002C
:1040000000400D00406C0D00000005000D00050192
:0840100004019301000000000F
:1040180064670D0009480A49884208B505D0094A6D
:10402800824202D0121A02F055FB0748074A0021C3
:10403800121A02F05AFB014808BD00BFA0E2032093
:10404800B06B0D0008E3032008E30320F0E703202A
:1040580070B501F0A5F8074C074BE41AA408002531
:104068001E46A54204D056F8253098470135F8E792
:1040780070BD00BFB06B0D006C6B0D0000F06CB82C
:1040880008B500F03DF9BDE8084001F057B800F068
:1040980069BC00F067BC0078B0FA80F0400970474E
:1040A80001230370704703681847012A02D0022AC7
:1040B80002D004E0016002E00B6800B10360002058
:1040C8007047000008B501F041F9034900F0F5FD1B
:1040D800BDE8084000F04EBD78670D0010B5836854
:1040E80004460BB1C06806E0406828B183680BB984
:1040F80001F097FCC3689847012323740020BDE8AA
:10410800104000F0B3BA10B58368044613B1032217
:1041180001469847204610BD38B504464069B0B1FD
:1041280000F07CFA98B994F824301BB9606908B19A
:1041380000F07CFAA5693DB12846FFF7E4FF284660
:10414800FFF7A5FF0023A361606900F077FA201D3F
:10415800FFF7D9FF204638BD08B50121072001F037
:104168008BFB01F0F3F84FF41651BDE8084001F05D
:10417800E1B8000030B597B007A800F0DBFB01F00C
:10418800E5F8524A079B012100F0AFFE01F0DEF886
:10419800044616A81C2320F81C3D002100F05EFBF5
:1041A80011A90BA800F03DFD0B9B494A01212046AF
:1041B800484C00F09AFE0BA800F0ECFC204600F0FA
:1041C800F1FB054601F0C2F82B46434A012100F0F5
:1041D8008CFE204600F03AFC054601F0B7F8EBB239
:1041E8003E4A012100F081FE204600F03BFC0546D6
:1041F80001F0ACF82B463A4A012100F076FE204641
:1042080000F03CFC054601F0A1F82B46354A012197
:1042180000F06BFE204600F037FC044601F096F8EB
:104228002346314A314C012100F05FFE01F08EF83F
:104238002F4900F02FFD01F089F80546204600F0CF
:1042480039FF10EE100A01F09BFE41EC100B022121
:10425800284600F03FFE01F079F8264900F01AFDE3
:1042680001F074F80546204600F00EFF10EE100A23
:1042780001F086FE41EC100B0221284600F02AFED0
:104288001D4800F0E2F88DED0F0ACDED100A8DED16
:10429800111A01F05BF80446119801F071FECDE99E
:1042A8000401109801F06CFECDE902010F9801F0AD
:1042B80067FE124ACDE900010121204600F015FEF3
:1042C80007A800F067FC17B030BD00BF89670D0074
:1042D80097670D000CE30320AA670D00C2670D0065
:1042E800DA670D00F5670D0008680D0050E303203C
:1042F8001B680D0024680D0038E303202E680D00AC
:1043080008B50121072001F0C8FA4FF47A7000F0CF
:1043180039FE0021072001F0C0FAFFF72BFF00F05B
:1043280065F9044B1860BDE808404FF4FA6000F0E6
:1043380029BE00BF1CE7032070B586B000F016F94F
:104348002A4B2B4C2B4E00254FF6FF721D705D80BB
:104358009A80022000F072FA2946204600F054FEA6
:104368002046254C2549324601F056FB2946204671
:1043780000F021FB32462249204601F04DFB21483E
:10438800214C00F053F8214B0293214B0593214B0C
:10439800049302A942F21073E5600222201D2360F3
:1043A800FFF783FE059B2361049BE3601A4BE361DF
:1043B80004F114004FF40073092218496561A561DE
:1043C800246284F824508DE80900154B00F01EF98A
:1043D80000F00CF9134B186002A8FFF794FE324660
:1043E8001149204601F018FB06B070BD48E30320D0
:1043F80050E3032008E303200CE303202F500D00B3
:10440800DD490D0038E3032010E30320CD400D0003
:10441800AF400D00B3400D0091590D0042680D00EA
:10442800E5400D001CE7032021410D0030B585B0A3
:10443800044600F023F8684600F020F89DE80F00D5
:1044480084E80F00204605B030BD00B501468BB0AA
:1044580000F05CF80BB05DF804FB000008B500F054
:1044680085F80248BDE8084000F008B858E3032082
:1044780000F07CB80368C9B29B681847704770B5EC
:104488001E4615460C4601F087FA0D2101F097F8F3
:1044980001F082FA2146FFF7EDFF01F07DFA01F005
:1044A80095F801F079FA0D2101F089F801F074FA14
:1044B8002A460D2101F075F801F06EFA03681B69B0
:1044C800984785420BD13446A31B9D4207DD01F076
:1044D80063FA03685B69984704F8010BF4E701F095
:1044E8005BFABDE8704001F071B838B5154604466E
:1044F8001346084609220021FFF7C1FF2B882360D5
:104508006B886360AB88A360204638BD10B58AB05D
:1045180004460A46014604A8FFF7E7FF9DED057A21
:10452800D4ED037AF8EEC70A9DED067AB8EEC71AFD
:104538009DED047AB8EEC70A60EEA70A20EE270AB6
:1045480021EE271A0AB010BD00F010B808B5024BCA
:104558001B689B68019308BD6802030008B5024BFD
:104568001B68DB68019308BD6802030008B5024BAD
:104578001B681B68019308BD2C02030008B5024B99
:104588001B689B68019308BD2C02030008B5024B09
:104598001B68DB68019308BD2C02030008B5024BB9
:1045A8001B681B69019308BD2C02030008B5024B68
:1045B8001B68DB69019308BD3002030008B5024B94
:1045C8001B681B6A019308BD3002030008B5024B43
:1045D8001B685B68019308BD1802030008B5024B0D
:1045E8001B689B68019308BD1802030008B5024BBD
:1045F8001B685B69019308BD1802030008B5024BEC
:104608001B689B6E019308BD3402030008B5024B7A
:104618001B685B68019308BD4802030008B5024B9C
:104628001B689B68019308BD4802030008B5024B4C
:104638001B681B69019308BD4802030008B5024BBB
:104648001B685B69019308BD4802030008B5024B6B
:104658001B681B6B019308BD4802030008B5024B99
:104668001B685B6C019308BD4802030008B5024B48
:104678001B68DB6E019308BD4802030008B5024BB6
:104688001B685B69019308BD6402030008B5024B0F
:104698001B681B68019308BD3C02030008B5024B68
:1046A8001B68DB68019308BD3C02030008B5024B98
:1046B8001B681B69019308BD3C02030008B5024B47
:1046C8001B685B69019308BD3C02030008B5024BF7
:1046D8001B689B69019308BD3C02030008B5024BA7
:1046E8001B68DB69019308BD3C02030008B5024B57
:1046F8001B681B6A019308BD3C02030008B5024B06
:104708001B689B6A019308BD3C02030008B5024B75
:104718001B685B69019308BD2802030008B5024BBA
:104728001B689B69019308BD2802030008B5024B6A
:104738001B68DB69019308BD2802030008B5024B1A
:104748001B681B6A019308BD2802030008B5024BC9
:104758001B685B6A019308BD2802030008B5024B79
:104768001B689B6A019308BD2802030008B5024B29
:104778001B68DB6A019308BD2802030008B5024BD9
:104788001B681B6B019308BD2802030008B5024B88
:104798001B685B6B019308BD2802030008B5024B38
:1047A8001B681B6C019308BD2802030008B5024B67
:1047B8001B689B6C019308BD2802030008B5024BD7
:1047C8001B68DB6C019308BD2802030008B5024B87
:1047D8001B681B68019308BD4C02030008B5024B17
:1047E8001B685B68019308BD4C02030008B5024BC7
:1047F8001B681B69019308BD4C02030008B5024BF6
:104808001B685B69019308BD4C02030008B5024BA5
:104818001B689B69019308BD4C02030008B5024B55
:104828001B68DB69019308BD4C02030008B5024B05
:104838001B681B6A019308BD4C02030008B5024BB4
:104848001B685B68019308BD2002030008B5024B92
:104858001B685B69019308BD2002030008B5024B81
:104868001B681B6B019308BD2002030008B5034BAE
:104878001B68D3F88830019308BD000020020300AC
:1048880008B5034B1B68D3F89430019308BD0000AA
:104898002002030008B5024B1B685B68019308BD42
:1048A8004002030008B5024B1B689B68019308BDD2
:1048B8004002030008B5024B1B68DB68019308BD82
:1048C8004002030008B5024B1B681B69019308BD31
:1048D8004002030008B5024B1B685B69019308BDE1
:1048E8004002030008B5024B1B689B69019308BD91
:1048F8004002030008B5024B1B68DB69019308BD41
:104908004002030008B5024B1B681B6A019308BDEF
:104918004002030008B5024B1B681B6B019308BDDE
:104928004002030008B5024B1B685B6B019308BD8E
:104938004002030008B5024B1B68DB69019308BD00
:104948004402030008B5024B1B68DB6B019308BDEA
:104958004402030008B5024B1B681B68019308BD9D
:104968001C02030008B5024B1B685B68019308BD75
:104978001C02030008B5024B1B689B68019308BD25
:104988001C02030008B5024B1B685B6A019308BD53
:104998001C02030008B5024B1B68DB6A019308BDC3
:1049A8001C0203000120704708B501F015F8BDE8A6
:1049B800084000F012BE10B50446017009B1FFF7B7
:1049C800F3FF204610BD08B501F006F8BDE8084021
:1049D80000F00CBE10B5037804460BB1FFF7F3FFE7
:1049E800204610BD10B504460068FFF7ECFF2046CE
:1049F80010BD37B502AC0D4644F8040DFFF7D4FFDF
:104A080000F0EAFF6B2100F0DAFD00F0E5FF036833
:104A180029469B68984700F0DFFF012100F0D2FD8E
:104A280000F0DAFF01231A466B2100F0BFFD00F009
:104A3800D3FF03685B69984705462046FFF7D2FF16
:104A4800E8B203B030BD0021FFF7D3BF08B5FFF7C8
:104A5800FAFF034B00F0030033F8100008BD00BF55
:104A68004A680D0008B50121FFF7C3FF024B00F0AB
:104A78000E0033F8100008BD5A680D000221FFF738
:104A8800B8BF0421FFF7B5BF10B5FFF7FAFF02233F
:104A98004FF45B62102140FA03F4013304F001047F
:104AA800082B01FB04224FEA4101F4D190B210BD5A
:104AB800002211464068FFF725BF002211464068D2
:104AC800FFF730BF00224068FFF724BF002281F0C3
:104AD80001014068FFF70EBF00231A4619464068D7
:104AE800FFF700BF00231A4619464068FFF7F2BED9
:104AF800002211464068FFF7E5BE002211464068D3
:104B0800FFF7D0BE002202214068FFF7D3BE002382
:104B18001A464068FFF7BEBE024B03225A60024A9B
:104B28001A60704768E3032080680D00704710B56D
:104B38000446FFF7ACFA204610BD000070B5084BDC
:104B48000360044600250E4640F80C5FFFF77EFD23
:104B580030462671FFF72AFDA560204670BD00BFCC
:104B6800B4680D000079FFF729BD014600228C20AA
:104B7800FFF744BD0020FFF7F8BF0000044B0020FA
:104B88004FF6FF72187058809A80FFF757BE00BF23
:104B980070E3032010B504460068FFF7E3FE2046E3
:104BA80010BD10B50446006808B1FFF7DBFE00230E
:104BB8002360A360636010BD38B504460D460068E5
:104BC8000131FFF7D7FE10B184E82100012038BD7C
:104BD80010B50368044613B143688B4207D22046D8
:104BE800FFF7EAFF20B1A3680BB922681370012010
:104BF80010BD70B50E46114604461546FFF7E8FF8E
:104C080018B92046FFF7CDFF09E02A463146A560CE
:104C1800206801F05FFD2268A3680021D154204676
:104C280070BD38B500230446036043608360037396
:104C38000D4639B1084601F089FD2946024620464D
:104C4800FFF7D7FF204638BDF8B506460D468F1842
:104C58000024BD420CD0336815F8011B9B68304610
:104C68009847002801DB0444F3E7002C08BF0446FA
:104C78002046F8BD70B505460C46084649B101F016
:104C880065FD2B68024621462846DB68BDE8704072
:104C9800184770BD08B5FFF7EDFF08BD03689B68AE
:104CA800184738B50D210546FFF7F8FF0A210446D5
:104CB8002846FFF7F3FF204438BD38B50546FFF70F
:104CC800D9FF04462846FFF7ECFF204438BD30B52D
:104CD8008BB00B4600218DF82410012A98BF0A22B8
:104CE8000DF12304B3FBF2F505FB123303F0FF03C8
:104CF800092B94BF30333733DBB2214604F801392E
:104D08002B46002DEED1FFF7B5FF0BB030BD10B428
:104D18002AB903685DF8044B9B68C9B21847D2B238
:104D28005DF8044BFFF7D3BFFFF7F1BF2DE9F04162
:104D380007460E4615462AB90368C9B29B68BDE8FE
:104D4800F04118470A2A02D1002901DA04E0D2B258
:104D5800BDE8F041FFF7BBBF2D21FFF79FFF2A46B3
:104D6800044671423846FFF7B2FF2044BDE8F0819F
:104D78002DE9F04757EC106B82460D4610EE102ACD
:104D88003B4610EE100A394601F0E8FB08B14849E5
:104D980012E027F000494FF0FF32464B30464946B3
:104DA80001F0DCFB68B94FF0FF32424B3046494610
:104DB80001F0B6FB28B940495046FFF75BFFBDE854
:104DC800F0874FF060423D4B3046394601F0BCFB5E
:104DD80008B13B49F0E74FF060423A4B304639465C
:104DE80001F094FB0028F4D1002200233046394614
:104DF80001F08CFB40B12D215046FFF74FFF07F122
:104E0800004304461F4600E004462F494FF00008BF
:104E180000205FFA88F39D4206D900222B4B01F04F
:104E28002DFA08F10108F4E732463B4600F04AFF44
:104E38000F46064601F0D0FB0A220146804650463E
:104E4800FFF745FF04447DB3404601F077F802467A
:104E58000B463046394600F033FF06460F465046AB
:104E68001B49FFF707FF0444184B00223046394618
:104E780001F0DAF80F46064601F086FB0A220146E1
:104E880080465046FFF752FF0444404601F066F85A
:104E980002460B463046394600F012FF013D15F038
:104EA800FF0506460F46DFD12046BDE8F08700BF64
:104EB800BC680D00FFFFEF7FC6680D00FFFFEF41E4
:104EC800C0680D00FFFFEFC10000E03F0000244074
:104ED800C4680D0038B5C9B20546FFF749FF044656
:104EE8002846FFF7DEFE204438BD0CB42DE9F04318
:104EF80087B000AF07F13804054654F8049B3C60BE
:104F08000E4623464A461421381DFFF73BFD132859
:104F180005D8391D2846FFF7ADFE044613E000F119
:104F2800080323F00703E846ADEB030D411C2346B5
:104F38004A4668463C60FFF725FD69462846FFF764
:104F480099FE0446C5461EB12846FFF7AAFE04444A
:104F580020461C37BD46BDE8F04302B0704700004C
:104F6800014B024A1A60704778E303207D690D00FF
:104F7800024B1A68024B1A60704700BFA0E2032078
:104F88007CE303200021FFF761BC10B50446FFF75E
:104F9800BAF8204610BD13B50B46044603C88DE881
:104FA800030093E8030084E803009DE8030083E816
:104FB800030002B010BD00000348044A044900235E
:104FC800836000F029BD00BF80E3032008E30320CD
:104FD800934F0D00090941EA001007EE900AB8EE58
:104FE800E70ADFED027A80EE270A7047000048449E
:104FF800006800F0F2BA10B50446016002710AB107
:10500800FFF7F6FF204610BD38B504460D4600F000
:10501800E3FC2A4601462046FFF7EDFF204638BD4F
:10502800006800F0E3BA10B5037904460BB1FFF746
:10503800F7FF204610BDF8B5044616461D460F4634
:10504800FFF7D6FF2068362100F0B9FA2068036818
:1050580039469B6898470121206800F0B3FA02227C
:1050680036210123206800F0A1FA206803685B69F3
:1050780098473070206803685B6998472870204615
:10508800BDE8F840FFF7CCBF07B502AB00228DF8AA
:10509800062003F8012D02210DF10602FFF7CBFFD0
:1050A8009DF807109DF8060003B05DF804EBFFF7C4
:1050B80091BF000007B502AB002203F8012D8DF85F
:1050C800062004210DF10602FFF7B5FF9DF8070041
:1050D80000F044FF0022094B00F0A6FF01F09CFA03
:1050E8009DF8063000EE103A07EE900AB8EEC00AB6
:1050F80037EE800A03B05DF804FB00BF0000703F84
:1051080008B50C4B33B100F021F903681B699847C7
:10511800002809DC084B63B100F0D6F903681B6965
:105128009847002803DC08BDAFF30080F2E7AFF32F
:10513800008008BD000000000000000008B5FFF76F
:10514800DFFFFFF753FA014B186008BD1CE7032087
:1051580007B5002300931A466FF07701FFF790FB1D
:1051680003B05DF804FB000007B543880A2B08D09C
:10517800502B09D1094B1B683BB103B05DF804EB18
:105188001847FFF7E5FF06E0002300931A466FF083
:105198007701FFF775FB03B05DF804FB90E303208C
:1051A80010B5FFF713FA044601F0A8FA074B13B13C
:1051B8002046AFF3008000210448FFF7C3FB00211D
:1051C8000348BDE81040FFF751BB00BF00000000D6
:1051D80071510D00704710B50446FEF758FF204680
:1051E80010BDF0B5037D062B8DB00E4600F1040707
:1051F8004FF0000402D000F1080518E00CAD394664
:1052080005F8304D2F232A460A20FFF737FA28469B
:1052180001F09CFA33680246DB6829463046984715
:105228000FE024B12E213046FFF738FD044415F86D
:10523800011D0A223046FFF777FDBD420444F0D134
:1052480020460DB0F0BD000010B5054B04461122F4
:1052580040F8043B002101F048FA204610BD00BF89
:10526800D8690D000346074A10B543F8042B01F12D
:10527800100251F8044B43F8044B9142F9D10A78D3
:105288001A7010BDD8690D0010B59DF8084044EAA1
:10529800032343EA024242EA0161042341600375A1
:1052A80010BD37B50D788B784A78C97800912946B2
:1052B800FFF7EAFF03B030BD417470477047002123
:1052C800007CFFF7A3BA0121007CFFF79FBA007C9E
:1052D800FFF794BA007CFFF789BA38B50446007C1A
:1052E8000D46FFF78BFA002801DC607C20B12946C7
:1052F800207CFFF793FA012038BD007CFFF796BAAF
:1053080010B50446FEF7C3FE204610BD10B504468E
:10531800002363604FF47A73A360054B2360012375
:105328000846217463741146FFF750FA204610BDF1
:10533800EC690D000022007CFFF750BA10B514226A
:105348000446002101F0D1F9204610BD30B50E4DBC
:1053580087B001A8FFF7F2FF296811F0010410D106
:105368002846FEF798FE60B101AA21460748FFF7D4
:10537800CDFF2846FEF794FE054A0649034800F08B
:105388004BFB024807B030BD94E3032098E30320A9
:1053980008E30320C5520D00002211464068FFF7BC
:1053A80091BA002211464068FFF7ACBA00221146B4
:1053B8004068FFF7B7BA00224068FFF7ABBA00228F
:1053C80081F001014068FFF795BA00231A46194693
:1053D8004068FFF787BA00231A4619464068FFF766
:1053E80079BA002211464068FFF75CBA0022022110
:1053F8004068FFF75FBA00231A464068FFF74ABAC9
:1054080038B50C4D282422460021284601F06DF9B4
:105418004FF0FF336B602C80074D042328466B60E8
:10542800064B40F8083B2246002101F05EF92C812A
:1054380038BD00BFDCE30320ACE303201C6A0D0089
:10544800704741747047007CFFF758B9007CFFF73C
:105458002DB9007CFFF73AB9007CFFF72FB9007C23
:10546800FFF73CB910B50446FEF711FE204610BD03
:1054780070B5457C04460E4625B9007CFFF73EF919
:10548800002805DD3146207CBDE87040FFF706B9ED
:10549800284670BD10B504460846114600226260D1
:1054A8004FF47A72A260054A226001222074627465
:1054B8001A46FFF7EBF8204610BD00BF506A0D00F2
:1054C800007CFFF713B9000038B50C4D296811F0BE
:1054D800010411D12846FEF7DEFD68B1084A094BE0
:1054E80009482146FFF7D6FF2846FEF7D9FD074AA7
:1054F8000749054800F090FA034838BD9CE40320AA
:10550800A0E4032018E4032004E4032008E30320B4
:1055180049540D007047F8B5064615460C468F18D5
:10552800BC4206D0336814F8011B9B683046984784
:10553800F6E72846F8BD0022007CFFF7FFB80021F7
:10554800007CFFF703B90021007CFFF707B90021B1
:10555800007CFFF70BB90021007CFFF70FB910B5ED
:105568000446FEF794FD204610BD000010B5044621
:105578004FF47A730846A3600021044B20746160DD
:105588002360FFF70BF9204610BD00BF806A0D00AD
:1055980013B50024007C0094FFF7B8F8C0B202B03D
:1055A80010BD0123D2B2C9B2FFF7F2BFDBB2D2B24B
:1055B800C9B2FFF7EDBF0022007CFFF7AFB8C9B250
:1055C800FFF7F9BF0022007CFFF7B0B80121FFF711
:1055D800F9BF0021007CFFF7D9B808B50021007C8D
:1055E800FFF7E4F8B0FA80F0400908BD08B50021DB
:1055F800007CFFF7E3F8B0FA80F0400908BD00220C
:1056080011464068FFF77EB9002211464068FFF74F
:1056180089B900224068FFF77DB9002281F00101B5
:105628004068FFF767B900231A4619464068FFF734
:1056380059B900231A4619464068FFF74BB90022AA
:1056480011464068FFF73EB9002211464068FFF74F
:1056580029B9002202214068FFF72CB900231A4615
:105668004068FFF717B910B103685B6818477047BF
:1056780038B504460068D0B1FEF7D0FFB8B9237C2E
:105688001BB9206808B1FEF7D1FF656855B1AB6852
:105698001BB103222946284698472846FEF7F7FCFF
:1056A800002363602068FEF7C9FF0023236038BD2C
:1056B80038B50B4B03600446D0F8CC0108B1FEF7AF
:1056C800E8FCD4F8C4512DB12846FFF7D1FF28468D
:1056D800FEF7DDFCA06808B1FFF7C5FF204638BD1E
:1056E800A86A0D0038B50D4C0D4B23600025022328
:1056F80004F5E4706360A560C4F8C451C4F8C851E7
:10570800FEF7ACFF074BC4F8CC5123602046064A8D
:105718000649BDE8384000F07FB900BF24E5032002
:10572800DC6A0D00A86A0D0008E30320B9560D00D5
:1057380000231A464068FFF7ADB8002202214068EE
:10574800FFF7B8B8002211464068FFF7ABB800224F
:1057580011464068FFF7B6B800231A461946406854
:10576800FFF7B8B800231A4619464068FFF7BAB8D9
:10577800002281F001014068FFF7BCB800224068B0
:10578800FFF7C8B8002211464068FFF7CBB80022DF
:1057980011464068FFF7B6B870B58CB01446064697
:1057A800FFF752FD0CAB0022114643F8302D20467E
:1057B800FEF7D4FE014658BB009B4BB35A68022A39
:1057C8000ED00A2A24D15C69112201A800F08DFFAD
:1057D80006238DF8143001AD04F10803183405E0F0
:1057E800596930460431FFF75CFD11E018685968C3
:1057F8002A4603C20833A3421546F7D101A906A8D1
:1058080007ADFFF72FFD0FCD341D0FC42B68237094
:105818000098FEF79BFE30460CB070BD024B034A61
:105828001A6000225A607047F4E60320DC6A0D0013
:1058380010B504460F48FFF795F928B1A4F10B03FA
:10584800022B01D8002010BD00F0A6F8FFF7C1FE1A
:1058580008B1012CF6D9FFF737FEFFF731FE18B172
:10586800A4F10903012BEDD9232C8CBF00200120C2
:1058780010BD00BFFCE60320232838B504460D46BA
:105888000AD8FF2908D0FFF7D3FF28B129462046B8
:10589800BDE83840FEF772BE38BD38B504460D463F
:1058A800FEF774FEFF2810D0062804D84D2323FAEB
:1058B80000F0C30709D42046FFF7BAFF28B12946EC
:1058C8002046BDE83840FEF769BE38BD70B50C4CBF
:1058D8000C4E0D4D00212046FFF730F920460B4CA9
:1058E8003246294600F098F801212046FFF726F9AC
:1058F800324629462046BDE8704000F08DB800BF0A
:10590800FCE6032008E30320354B0D000CE70320D9
:1059180030B51C4D89B004462068FEF75FFEFEF7DF
:1059280065FE2B682268C01A9042F5D3236833B30A
:10593800E36823B3251D236928469847002304A953
:10594800684602930693FFF726FB029B069A02928B
:105958000693079A039B0793294604A80392FFF727
:105968001AFB069BE268E360079B069204A822697B
:1059780023610792FEF7C7FB6846FEF7C4FB09B030
:1059880030BD00BF1CE7032008B5FFF7C1FF0020AA
:10599800BDE80840FEF752BE38B50B4D296811F036
:1059A80001040FD12846FEF776FB58B12146074877
:1059B800FFF7DCFD2846FEF773FB054A0549034857
:1059C80000F02AF8014838BD20E7032038E7032013
:1059D80008E303201D550D0010B50B4C2368DB07A9
:1059E8000FD42046FEF757FB58B101210748FFF7AF
:1059F800BDFD2046FEF754FB054A0649034800F062
:105A08000BF8024810BD00BF4CE7032024E7032031
:105A180008E303201D550D000B460146184600F00B
:105A28004BBE08B5FEF7B6FF184B1A68D1075CBF26
:105A380001221A60164B1A68D2075CBF01221A604D
:105A4800144B1A68D0075CBF01221A60124B1A68FF
:105A5800D1075CBF01221A60104B1A68D2075CBFDD
:105A680001221A600E4B1A68D0075CBF01221A6027
:105A78000C4B1A68D1075CBF01221A600A4B1A68DE
:105A8800D2075CBF01221A60704700BF6CE7032091
:105A980068E7032064E7032060E703205CE703204E
:105AA80058E7032054E7032050E70320244B1A68E3
:105AB800D0075CBF01221A60224B1A68D1075CBF6D
:105AC80001221A60204B1A68D2075CBF01221A60B3
:105AD8001E4B1A68D0075CBF01221A601C4B1A685B
:105AE800D1075CBF01221A601A4B1A68D2075CBF43
:105AF80001221A60184B1A68D0075CBF01221A608D
:105B0800164B1A68D1075CBF01221A60144B1A6839
:105B1800D2075CBF01221A60124B1A68D0075CBF1B
:105B280001221A60104B1A68D1075CBF01221A6063
:105B38000E4B1A68D2075CBF01221A60704700BF7B
:105B48009CE7032098E7032094E7032090E70320CD
:105B58008CE7032088E7032084E7032080E70320FD
:105B68007CE7032078E7032074E7032070E703202D
:105B7800244B1A68D0075CBF01221A60224B1A68AE
:105B8800D1075CBF01221A60204B1A68D2075CBF9C
:105B980001221A601E4B1A68D0075CBF01221A60E6
:105BA8001C4B1A68D1075CBF01221A601A4B1A688D
:105BB800D2075CBF01221A60184B1A68D0075CBF75
:105BC80001221A60164B1A68D1075CBF01221A60BD
:105BD800144B1A68D2075CBF01221A60124B1A686C
:105BE800D0075CBF01221A60104B1A68D1075CBF4E
:105BF80001221A600E4B1A68D2075CBF01221A6094
:105C0800704700BFCCE70320C8E70320C4E70320A0
:105C1800C0E70320BCE70320B8E70320B4E703206C
:105C2800B0E70320ACE70320A8E70320A4E703209C
:105C3800A0E70320184B1A68D1075CBF01221A603D
:105C4800164B1A68D2075CBF01221A60144B1A68F7
:105C5800D0075CBF01221A60124B1A68D1075CBFDB
:105C680001221A60104B1A68D2075CBF01221A6021
:105C78000E4B1A68D0075CBF01221A600C4B1A68D9
:105C8800D1075CBF01221A600A4B1A68D2075CBFB1
:105C980001221A60704700BFECE70320E8E7032001
:105CA800E4E70320E0E70320DCE70320D8E703204C
:105CB800D4E70320D0E7032081F0004102E000BFD1
:105CC80083F0004330B54FEA41044FEA430594EAB4
:105CD800050F08BF90EA020F1FBF54EA000C55EAEF
:105CE800020C7FEA645C7FEA655C00F0E2804FEAC0
:105CF8005454D4EB5555B8BF6D420CDD2C4480EAA2
:105D0800020281EA030382EA000083EA010180EAD1
:105D1800020281EA0303362D88BF30BD11F0004F1F
:105D28004FEA01314FF4801C4CEA113102D0404255
:105D380061EB410113F0004F4FEA03334CEA133390
:105D480002D0524263EB430394EA050F00F0A780A8
:105D5800A4F10104D5F1200E0DDB02FA0EFC22FAA3
:105D680005F2801841F1000103FA0EF2801843FA97
:105D780005F359410EE0A5F120050EF1200E012A88
:105D880003FA0EFC28BF4CF0020C43FA05F3C018C6
:105D980051EBE37101F0004507D54FF0000EDCF13F
:105DA800000C7EEB00006EEB0101B1F5801F1BD3E8
:105DB800B1F5001F0CD349085FEA30004FEA3C0CEC
:105DC80004F101044FEA445212F5800F80F09A80E2
:105DD800BCF1004F08BF5FEA500C50F1000041EBE6
:105DE800045141EA050130BD5FEA4C0C404141EBEA
:105DF800010111F4801FA4F10104E9D191F0000F11
:105E080004BF01460020B1FA81F308BF2033A3F193
:105E18000B03B3F120020CDA0C3208DD02F1140C8A
:105E2800C2F10C0201FA0CF021FA02F10CE002F1C5
:105E38001402D8BFC2F1200C01FA02F120FA0CFCBE
:105E4800DCBF41EA0C019040E41AA2BF01EB045107
:105E5800294330BD6FEA04041F3C1CDA0C340EDC05
:105E680004F11404C4F1200220FA04F001FA02F348
:105E780040EA030021FA04F345EA030130BDC4F106
:105E88000C04C4F1200220FA02F001FA04F340EAFB
:105E98000300294630BD21FA04F0294630BD94F0AC
:105EA800000F83F4801306BF81F480110134013D93
:105EB8004EE77FEA645C18BF7FEA655C29D094EA04
:105EC800050F08BF90EA020F05D054EA000C04BF82
:105ED8001946104630BD91EA030F1EBF002100206D
:105EE80030BD5FEA545C05D14000494128BF41F00C
:105EF800004130BD14F580043CBF01F5801130BD70
:105F080001F0004545F0FE4141F470014FF00000FA
:105F180030BD7FEA645C1ABF194610467FEA655CAB
:105F28001CBF0B46024650EA013406BF52EA03354D
:105F380091EA030F41F4002130BD00BF90F0000F3B
:105F480004BF0021704730B54FF4806404F1320477
:105F58004FF000054FF0000150E700BF90F0000F30
:105F680004BF0021704730B54FF4806404F1320457
:105F780010F0004548BF40424FF000013EE700BF27
:105F880042004FEAE2014FEA31014FEA02701FBFB7
:105F980012F07F4393F07F4F81F06051704792F089
:105FA800000F14BF93F07F4F704730B54FF4607403
:105FB80001F0004521F0004120E700BF50EA01024E
:105FC80008BF704730B54FF000050AE050EA0102FB
:105FD80008BF704730B511F0004502D5404261EB6B
:105FE80041014FF4806404F132045FEA915C3FF4AC
:105FF800DCAE4FF003025FEADC0C18BF03325FEA45
:10600800DC0C18BF033202EBDC02C2F1200300FAF9
:1060180003FC20FA02F001FA03FE40EA0E0021FA1E
:1060280002F11444C1E600BF70B54FF0FF0C4CF408
:10603800E06C1CEA11541DBF1CEA135594EA0C0FBE
:1060480095EA0C0F00F0DEF82C4481EA030621EAF9
:106058004C5123EA4C5350EA013518BF52EA033534
:1060680041F4801143F4801338D0A0FB02CE4FF0E6
:106078000005E1FB02E506F00042E0FB03E54FF016
:106088000006E1FB03569CF0000F18BF4EF0010E0E
:10609800A4F1FF04B6F5007F64F5407404D25FEA0A
:1060A8004E0E6D4146EB060642EAC62141EA5551BD
:1060B8004FEAC52040EA5E504FEACE2EB4F1FD0CFF
:1060C80088BFBCF5E06F1ED8BEF1004F08BF5FEA7D
:1060D800500E50F1000041EB045170BD06F000462F
:1060E80046EA010140EA020081EA0301B4EB5C04DC
:1060F800C2BFD4EB0C0541EA045170BD41F48011D4
:106108004FF0000E013C00F3AB8014F1360FDEBFF8
:10611800002001F0004170BDC4F10004203C35DAD4
:106128000C341BDC04F11404C4F1200500FA05F357
:1061380020FA04F001FA05F240EA020001F00042F8
:1061480021F0004110EBD37021FA04F642EB06016E
:106158005EEA430E08BF20EAD37070BDC4F10C0498
:10616800C4F1200500FA04F320FA05F001FA04F25C
:1061780040EA020001F0004110EBD37041F1000148
:106188005EEA430E08BF20EAD37070BDC4F1200553
:1061980000FA05F24EEA020E20FA04F301FA05F2BB
:1061A80043EA020321FA04F001F0004121FA04F263
:1061B80020EA020000EBD3705EEA430E08BF20EA33
:1061C800D37070BD94F0000F0FD101F0004640006D
:1061D80041EB010111F4801F08BF013CF7D041EAEF
:1061E800060195F0000F18BF704703F000465200F3
:1061F80043EB030313F4801F08BF013DF7D043EAC4
:106208000603704794EA0C0F0CEA135518BF95EA79
:106218000C0F0CD050EA410618BF52EA4306D1D100
:1062280081EA030101F000414FF0000070BD50EA1F
:10623800410606BF1046194652EA430619D094EAA9
:106248000C0F02D150EA013613D195EA0C0F05D193
:1062580052EA03361CBF104619460AD181EA0301E7
:1062680001F0004141F0FE4141F470014FF000009F
:1062780070BD41F0FE4141F4780170BD70B54FF03A
:10628800FF0C4CF4E06C1CEA11541DBF1CEA1355BA
:1062980094EA0C0F95EA0C0F00F0A7F8A4EB05049C
:1062A80081EA030E52EA03354FEA013100F0888093
:1062B8004FEA03334FF0805545EA131343EA12635C
:1062C8004FEA022245EA111545EA10654FEA002611
:1062D8000EF000419D4208BF964244F1FD0404F5CA
:1062E800407402D25B084FEA3202B61A65EB030526
:1062F8005B084FEA32024FF480104FF4002CB6EBE3
:10630800020E75EB030E22BFB61A754640EA0C0062
:106318005B084FEA3202B6EB020E75EB030E22BFA2
:10632800B61A754640EA5C005B084FEA3202B6EBE3
:10633800020E75EB030E22BFB61A754640EA9C00A2
:106348005B084FEA3202B6EB020E75EB030E22BF72
:10635800B61A754640EADC0055EA060E18D04FEA30
:10636800051545EA16754FEA06164FEAC30343EAD0
:1063780052734FEAC2025FEA1C1CC0D111F4801F9D
:106388000BD141EA00014FF000004FF0004CB6E796
:1063980011F4801F04BF01430020B4F1FD0C88BF35
:1063A800BCF5E06F3FF6AFAEB5EB030C04BFB6EB40
:1063B800020C5FEA500C50F1000041EB045170BD33
:1063C8000EF0004E4EEA113114EB5C04C2BFD4EB60
:1063D8000C0541EA045170BD41F480114FF0000EE4
:1063E800013C90E645EA060E8DE60CEA135594EA60
:1063F8000C0F08BF95EA0C0F3FF43BAF94EA0C0F63
:106408000AD150EA01347FF434AF95EA0C0F7FF4D7
:1064180025AF104619462CE795EA0C0F06D152EA2B
:1064280003353FF4FDAE1046194622E750EA41060F
:1064380018BF52EA43067FF4C5AE50EA41047FF420
:106448000DAF52EA43057FF4EBAE12E74FF0FF3C85
:1064580006E000BF4FF0010C02E000BF4FF0010C56
:106468004DF804CD4FEA410C7FEA6C5C4FEA430CCF
:1064780018BF7FEA6C5C1BD001B050EA410C0CBF1E
:1064880052EA430C91EA030F02BF90EA020F002080
:10649800704710F1000F91EA030F58BF994208BFE7
:1064A80090422CBFD8176FEAE37040F001007047A4
:1064B8004FEA410C7FEA6C5C02D150EA013C07D1FB
:1064C8004FEA430C7FEA6C5CD6D152EA033CD3D046
:1064D8005DF8040B704700BF8446104662468C4640
:1064E8001946634600E000BF01B5FFF7B7FF002873
:1064F80048BF10F1000F01BD4DF808EDFFF7F4FF9C
:106508000CBF012000205DF808FB00BF4DF808ED26
:10651800FFF7EAFF34BF012000205DF808FB00BF49
:106528004DF808EDFFF7E0FF94BF012000205DF86B
:1065380008FB00BF4DF808EDFFF7CEFF94BF012020
:1065480000205DF808FB00BF4DF808EDFFF7C4FF19
:1065580034BF012000205DF808FB00BF4FEA410C62
:106568007FEA6C5C02D150EA013C0AD14FEA430C45
:106578007FEA6C5C02D152EA033C02D14FF0000082
:1065880070474FF0010070474FEA410212F50012C0
:1065980015D211D56FF47873B3EB625212D94FEA62
:1065A800C12343F0004343EA505311F0004F23FA4C
:1065B80002F018BF404270474FF00000704750EAA1
:1065C800013005D111F0004008BF6FF0004070475E
:1065D8004FF00000704700BF4A0011D212F50012B8
:1065E80011D20DD56FF47873B3EB62520ED44FEA23
:1065F800C12343F0004343EA505323FA02F07047A3
:106608004FF00000704750EA013002D14FF0FF30E0
:1066180070474FF0000070474FEA4102B2F1E04383
:1066280024BFB3F5001CDCF1FE5C0DD901F0004C71
:106638004FEAC0024CEA5070B2F1004F40EB8300C1
:1066480008BF20F00100704711F0804F21D113F1ED
:106658003872BCBF01F00040704741F480114FEA26
:106668005252C2F11802C2F1200C10FA0CF320FAAF
:1066780002F018BF40F001004FEAC1234FEAD323CC
:1066880003FA0CFC40EA0C0023FA02F34FEA430336
:10669800CCE77FEA625307D150EA01331EBF4FF0BF
:1066A800FE4040F44000704701F0004040F0FE40DA
:1066B80040F40000704700BF10B5054C13462CB1DC
:1066C8000A4601460220AFF3008010BD204610BDE7
:1066D8000000000010B5431E0A44914204D011F88E
:1066E800014B03F8014FF8E710BD024403469342FB
:1066F80002D003F8011BFAE77047000038B5124BC7
:106708001C68A36B0546D3B91820FEF723F943F29A
:106718000E33A06303804AF6CD33438041F234231D
:1067280083804EF26D63C3804DF6EC6303810523CD
:1067380043810B23838101220023C0E90423A36B37
:1067480000221D615A6138BD04E30320034613F893
:10675800012B002AFBD1181A013870471D400D0083
:1067680059400D0085400D0089400D0000000000D3
:106778005761746368646F672074696D656F7574B9
:10678800004465766963652049443A2025730053BF
:10679800797374656D2076657273696F6E3A20251A
:1067A8007300496E70757420566F6C74616765204C
:1067B8004C696D69743A20256400496E70757420BF
:1067C80043757272656E74204C696D69743A202540
:1067D80064004D696E696D756D2053797374656DCC
:1067E80020566F6C746167653A20256400436861C0
:1067F8007267652043757272656E743A202564006D
:1068080043686172676520566F6C746167653A20EA
:106818002564004368617267653A2000566F6C749E
:106828006167653A2000583A2025642C20593A209F
:1068380025642C205A3A20256400617070776474AE
:10684800000064009600F4018403B004DC05D0075E
:10685800B80BB80B00001C0C0000800C0000E40C06
:106868000000480D0000AC0D0000100E0000740E72
:106878000000000000000000174B0D000D4B0D003C
:10688800034B0D00F94A0D00ED4A0D00E14A0D00D9
:10689800D54A0D00CD4A0D00C34A0D00B94A0D0076
:1068A800A1570D000000000000000000354B0D004E
:1068B800374B0D006E616E006F7666002E00696EB4
:1068C80066006C6E00666E00636F646500646574D4
:1068D80061696C000D0A00253031307520005D209B
:1068E800002C200028293A2000205B00636F646593
:1068F800203D200025690064657461696C73203D42
:106908002000626175640053657269616C005365AB
:106918007269616C31007479706500706172616DC3
:1069280000636D6400696400686E64007374726D5E
:106938000066696C74006C766C0061646448616E12
:10694800646C65720072656D6F766548616E646C23
:10695800657200656E756D48616E646C6572730072
:106968004A534F4E53747265616D4C6F6748616E40
:10697800646C657200617070006E6F6E6500747291
:1069880061636500696E666F007761726E0065729B
:10699800726F720070616E696300616C6C005A00FE
:1069A800252B3033643A253032750025592D256D55
:1069B8002D25645425483A254D3A2553257A0061FA
:1069C800736374696D65000000000000000000003A
:1069D800EB510D00DD510D00DF510D0000000000EE
:1069E80000000000C5520D0009530D00E3520D00D0
:1069F800514C0D00DD520D00C7520D00CF520D0055
:106A080003530D00D7520D00C1520D0000000000C5
:106A180000000000FF530D00F5530D00EB530D006F
:106A2800A1530D00DF530D00D3530D00C7530D00C4
:106A3800BF530D00B5530D00AB530D00A1570D000A
:106A4800000000000000000049540D006D540D00C6
:106A580079540D00514C0D0055540D0061540D0032
:106A68005B540D0067540D004B540D004F540D003E
:106A780000000000000000001D550D0067550D00C6
:106A88003F550D001F550D0047550D004F550D0082
:106A980057550D005F550D00000000000000000074
:106AA80065560D005B560D0051560D0047560D00FA
:106AB8003B560D002F560D0023560D001B560D009A
:106AC80011560D0007560D00A1570D0000000000DB
:106AD8000000000039570D0043570D004D570D00B9
:106AE80057570D0061570D006D570D0079570D0070
:106AF80085570D008D570D0097570D00A1570D00B4
:106B0800000000000000000000000000000000007D
:106B1800000000000000000000000000000000006D
:106B2800000000000000000000000000000000005D
:106B3800000000000000000000000000000000004D
:106B4800000000000000000000000000000000003D
:106B5800000000000000000000000000000000002D
:106B68004300000041430D0065440D0079440D00C9
:106B780051450D00214B0D00854B0D00694F0D004F
:106B8800794F0D00C14F0D0009540D00ED560D0051
:106B980025580D00D5580D00315A0D00B55A0D0075
:086BA800795B0D003D5C0D005E
:106BB000C7690D0000000000086B0D00286B0D0078
:106BC000486B0D0000000000000000000000000005
:106BD00000000000686B0D000000000000000000D5
:106BE00000000000000000000000000000000000A5
:106BF0000000000000000000000000000000000095
:106C00000000000000000000000000000000000084
:086C100000000000A4E20320D3
:106C1800FFFFFFFF00000102030405060708090A39
:106C28000B0C0D0E0F101112131415161718191A34
:086C38001B1C1D1E1F2028007B
:046C4000785634123C
:04000003D0004018D1
:00000001FF
