:02000002D0002C
:1040000000400D000C7F0D00000005000D000501B3
:0840100004019301000000000F
:104018007C780D0009480A49884208B505D0094A44
:10402800824202D0121A03F0D9FB0748074A00213E
:10403800121A03F0DEFB014808BD00BFC8E10320E7
:10404800607E0D004CE203204CE20320F0E70320E1
:1040580070B502F0F5F8074C074BE41AA4080025E0
:104068001E46A54204D056F8253098470135F8E792
:1040780070BD00BF5C7E0D00087E0D0000F042B9E7
:1040880008B500F07DFABDE8084002F0A7B801F0D5
:1040980005BB01F003BB0078B0FA80F04009704717
:1040A80001230370704703681847012A02D0022AC7
:1040B80002D004E0016002E00B6800B10360002058
:1040C8007047012A02D0022A02D004E0016002E00F
:1040D80008B10B68036000207047000001680348BE
:1040E80001F11402103100F0FFBE00BF28E30320E5
:1040F80008B502F07BF9034901F0BBFDBDE80840B3
:1041080001F04CBC90780D0010B5836804460BB1E3
:10411800C06806E0406828B183680BB902F005FD65
:10412800C3689847012323740020BDE8104001F0BC
:10413800F9B810B58368044613B1032201469847BD
:10414800204610BD38B504464069B0B101F0B2F858
:1041580098B994F824301BB9606908B101F0B2F835
:10416800A5693DB12846FFF7E4FF2846FFF78FFF12
:104178000023A361606901F0ADF8201DFFF7D9FFA6
:10418800204638BD0368C9B29B68184710B5FF219F
:1041980004460022084601F0F6FE02F027F92146FF
:1041A800BDE8104001F065BD70B504460D4601F04C
:1041B80051F80444AB680BB902F0B7FCEB68284629
:1041C8009847064660B901F045F8A04208D202F0C7
:1041D8000DF9044901F03AFD0A2001F0BBFEE9E7B8
:1041E800304670BDA1780D0010B5084C207958B143
:1041F800074801F053FFD4ED027AB4EEE70AF1EE76
:1042080010FA4CBF0120002010BD00BF50E203206F
:1042180044E303201FB5044602F0E8F80B4901F017
:1042280015FD0B4B039369460A4B02934FF47A70C2
:104238000094FFF7B9FF04466846FFF77AFF02F0DB
:10424800D5F801F00AFD204604B010BDA3780D0092
:10425800E5400D00CB400D0070B500F0FBFF224B90
:10426800224E1860012001F07EFE00221146104601
:1042780001F089FE00F05AFB05460FCD34460FC405
:1042880095E8070084E80700FFF7AEFF184B1870A1
:1042980048BB73696BB10121072002F047FB072077
:1042A800012102F054FB73693046013B736100F051
:1042B8005DFB0121132002F039FB0121132002F0DC
:1042C80046FB0C4C0C4800F0FDFE76210B4800F034
:1042D8008BFD2046FFF79EFF207320B90848BDE8F4
:1042E8007040FFF753BF70BD14E3032050E2032072
:1042F80010E303206CE2032030E30320A8E203204C
:10430800B4780D0008B50121072002F00FFB02F078
:104318006DF84FF4165102F05DF802F0C1FB02F09F
:1043280087F942F2107001F015FE02F05FF80249B9
:10433800BDE8084001F09DBCDE780D0013460A4632
:10434800012101F0BABD000070B596B007A801F0D0
:104358008DF916AC02F04AF85E4A079B012101F07C
:10436800ACFD02F043F81C2324F81C3D054600214F
:10437800204601F00FF911A90BA801F0CDFB0B9B0A
:10438800554A01212846554D01F097FD0BA801F02B
:104398007CFB284601F0A2F9064602F027F83246CF
:1043A8004F49FFF7CBFF284601F0ECF9064602F02B
:1043B8001DF8F2B24B49FFF7C1FF284601F0EEF9AC
:1043C800064602F013F83346474A012101F075FD0D
:1043D800284601F0EFF9064602F008F8324643494C
:1043E800FFF7ACFF284601F0EBF9054601F0FEFFA8
:1043F8002B463F4A3F4D012101F05FFD01F0F6FFDA
:104408003D4901F023FC01F0F1FF0646284601F082
:104418005BFE10EE100A02F037FE41EC100B022191
:10442800304601F03FFD01F0E1FF344901F00EFC98
:1044380001F0DCFF0646284601F030FE10EE100AB7
:1044480002F022FE41EC100B0221304601F02AFD59
:1044580001F0CCFF2A492B4D01F00BFC204600F05F
:104468003FF994E80F0085E80F0001F0BFFF04460C
:10447800284600F045F90A220146204601F056FC7C
:1044880001F0B4FF204901F0F4FB284600F074F96C
:104498008DED0F0ACDED100A8DED111A01F0A6FF72
:1044A8000446119802F0F0FDCDE90401109802F0DD
:1044B800EBFDCDE902010F9802F0E6FD134ACDE9C4
:1044C80000010121204601F0F8FC07A801F0DDFAFF
:1044D80016B070BDEE780D00FC780D00A0E2032048
:1044E8000F790D0027790D003F790D005A790D00DD
:1044F8006D790D0044E3032080790D0089790D0062
:1045080093790D0018E30320A8790D00BA790D00FE
:1045180013B5044601F06AFF2346154A012101F04C
:10452800CCFC02F0BDFA082102F0A2F802F0B8FAB9
:104538002146FFF727FE02F0B3FA210AFFF722FE11
:1045480002F0AEFA02F09BF8044601F04FFF224653
:104558000849FFF7F3FE084801F004FE074B002264
:104568001B680121684601F01DFA02B010BD00BFAA
:10457800CE790D00ED790D0044E303202CE30320F0
:1045880008B50121072002F0E2F94FF47A7001F032
:10459800E1FC0021072002F0DAF9FFF7D5FE00F070
:1045A80059FE044B1860BDE8084047F23050FFF749
:1045B800AFBF00BF14E7032070B5354B354C364EFE
:1045C80086B000251D6000F0ADFD344B4FF6FF723C
:1045D8001D705D809A80022000F0C4FF06231946F2
:1045E80016222F4800F067FD2E4800F0E3F901215C
:1045F8002D4800F053FC2946204601F00FFD2046C7
:104608002A4C2B49324602F08BFA2946204601F003
:104618006EF832462749204602F082FA2648274C8F
:1046280000F05EF8264B0293264B0593264B049325
:1046380002A944F62063E5600222201D2360FFF7EB
:1046480034FD059B2361049BE360204BE36104F187
:1046580014004FF4007309221D496561A5612462A5
:1046680084F824508DE809001A4B00F01BFE00F076
:10467800F1FD194B186002A8FFF75BFD3246174998
:10468800204602F04DFAFFF7E7FD06B070BD00BF07
:104698002CE3032044E303204CE20320A2E203209E
:1046A80030E30320A8E2032028E30320A0E203204C
:1046B80043600D0015570D0018E30320E8E20320BE
:1046C800F9400D00AF400D00B3400D00716A0D00B8
:1046D800047A0D0011410D0014E703204D410D002F
:1046E80030B585B0044600F05FF8684600F05CF825
:1046F8009DE80F0084E80F00204605B030BD00009B
:104708007FB5044602F0CCF901F0BCFF18B902F0FD
:10471800C7F901F08DFF02F0C3F90D2101F0A8FFE0
:1047280002F0BEF901F0ABFF0546F0B90123637250
:10473800E372A07201F05AFE0E4901F09AFA94E869
:104748000E00204600F049F8054670B101F04EFE13
:104758002A4606462146684600F0C6F800993046C3
:1047680001F087FA684601F090F9B5FA85F040093A
:1047780004B070BD0B7A0D0000B501468BB000F097
:1047880095F80BB05DF804FB08B500F0CBFC0248C7
:10479800BDE8084000F008B84CE3032000F0C2BCB4
:1047A8000368C9B29B681847704738B514460D4668
:1047B80002F076F90D2101F05BFF02F071F929464C
:1047C800FFF7EEFF02F06CF92146FFF7E9FF02F070
:1047D80067F9BDE8384001F052BF30B585B004AD87
:1047E80005E90E009DF80D5004462A460921FFF7F9
:1047F800DCFF9DF80E2020460A21FFF7D6FF204651
:104808009DF80F200B21FFF7D0FFEB064CBF4FF0B0
:1048180066534FF062530020E36005B030BD70B5B9
:104828001E4615460C4602F03BF90D2101F020FF0B
:1048380002F036F92146FFF7B3FF02F031F901F033
:104848001EFF02F02DF90D2101F012FF02F028F9E8
:104858002A460D2101F0FEFE02F022F903681B69C9
:10486800984785420BD13446A31B9D4207DD02F0D1
:1048780017F903685B69984704F8010BF4E702F03D
:104888000FF9BDE8704001F0FABE38B51546044688
:104898001346084609220021FFF7C1FF2B88236031
:1048A8006B886360AB88A360204638BD10B58AB0BA
:1048B80004460A46014604A8FFF7E7FF9DED057A7E
:1048C800D4ED037AF8EEC70A9DED067AB8EEC71A5A
:1048D8009DED047AB8EEC70A60EEA70A20EE270A13
:1048E80021EE271A0AB010BD30B589B00446154626
:1048F8000C4904A801F010F90A222946684601F07B
:1049080049F9694604A801F06FF90146204601F00B
:1049180025F9684601F0B9F804A801F0B6F8204670
:1049280009B030BD507A0D0000F0FCBB70B588B0FE
:1049380002F0A2F81C2201A9002000F09BFC019BB8
:10494800002B0CDB1C2000F0A1FE01AC054606463E
:104958000FCC0FC594E8070085E8070000E0024E79
:10496800304608B070BD00BFC8E1032010B504464A
:10497800FFF7DCFF03680133236001F037FD0B49C3
:1049880001F064F901F032FD21680A2201F0CCF946
:1049980001F02CFD01F061F902F06EF821461C22AD
:1049A8000020BDE8104000F06DBC00BF617A0D002A
:1049B80000F0B8BBFF22027342738273C273704760
:1049C8002DE9F04190F90F30013305460F4604D127
:1049D8001648BDE8F04100F0D3BF072600244FF089
:1049E800010895F90F00002180B201F0B0FF95F998
:1049F8000D0008FA06F1394080B201F0A8FF95F9D8
:104A08000F00012180B201F0A2FF95F90E006400A9
:104A180080B2E4B201F0B4FF08B144F0010416F129
:104A2800FF36DED22046BDE8F08100BFF4E6032061
:104A380070B590F90C30013304460E46154616D170
:104A480002F02EF8217801F00FFE02F029F8036831
:104A580031469B68984702F023F8036829469B680B
:104A6800984702F01DF8BDE8704001F008BE90F9C3
:104A78000F3001330ED1174800F010FF28211548D8
:104A880000F06AFF0121134800F01AFF00211148C5
:104A980000F019FF94F90C00002180B201F057FFD3
:104AA80006F07F012046FFF78BFF29462046FFF7D7
:104AB80087FF94F90C00012180B201F048FF94F9B6
:104AC8000F30013304D10348BDE8704000F0EBBE5D
:104AD80070BD00BFF4E60320F8B590F838509DF893
:104AE80018609DF81CE09DF8207061F3871562F34B
:104AF800020563F3C50590F83C3080F8385066F33A
:104B0800471380F83C3090F834306EF3C503044600
:104B180067F3020380F8343006F00702F221FFF74A
:104B280087FF94F8342002F0070102F0380343EAC3
:104B3800411343EAD2122046F521FFF779FF94F892
:104B4800382002F0070102F0380343EA411343EA30
:104B580092122046F421BDE8F840FFF769BF000033
:104B680038B590F90C30013304460D461FD101F0D9
:104B780097FF217801F078FD01F092FF036829463C
:104B88009B68984701F08CFF01F079FD01F088FFE0
:104B98000122217801F05BFD01F082FF03685B6967
:104BA8009847C5B201F07CFF01F069FD2FE090F94C
:104BB8000F3001330ED1174800F070FE2821154838
:104BC80000F0CAFE0121134800F07AFE00211148C6
:104BD80000F079FE94F90C00002180B201F0B7FED4
:104BE80045F080012046FFF7EBFE00212046FFF745
:104BF800E7FE054694F90C00012180B201F0A7FEFA
:104C080094F90F30013302D1024800F04CFE2846D7
:104C180038BD00BFF4E6032038B590F90C300133F5
:104C280005460C4627D101F03BFF297801F01CFD11
:104C380001F036FF036821469B68984701F030FF72
:104C480001F01DFD01F02CFF0222297801F0FFFC84
:104C580001F026FF03685B699847044601F020FFCE
:104C680003685B69984740EA042084B201F018FFA2
:104C780001F005FD36E090F90F3001330ED11A48E6
:104C880000F00CFE2821184800F066FE01211648A5
:104C980000F016FE0021144800F015FE95F90C00EE
:104CA800002180B201F053FE44F080012846FFF74E
:104CB80087FE00212846FFF783FE00210446284688
:104CC800FFF77EFE40EA042084B295F90C0001212A
:104CD80080B201F03CFE95F90F30013302D1024851
:104CE80000F0E1FD204638BDF4E6032008B5FFF7E3
:104CF80093FF40BA80B208BD38B588210446FFF753
:104D0800F5FF8A2120822046FFF7F0FF8C21608280
:104D18002046FFF7EBFF8E21A0822046FFF7E6FF33
:104D28009021E0822046FFF7E1FF92212083204670
:104D3800FFF7DCFF942160832046FFF7D7FF962119
:104D4800A0832046FFF7D2FF9821E0832046FFF793
:104D5800CDFF9A2120842046FFF7C8FF9C2160845C
:104D68002046FFF7C3FF9E21A0842046FFF7BEFF21
:104D7800A121E0842046FFF7F3FEE12184F8280012
:104D88002046FFF7B3FFE32160852046FFF7E8FEE2
:104D9800E42184F82C002046FFF7E2FEE5210546D1
:104DA8002046FFF7DDFE00F00F0040EA0510E08521
:104DB800E6212046FFF7D4FEE52105462046FFF709
:104DC800CFFE001140EA05102086E7212046FFF7B4
:104DD800C7FE84F8320038BD08B5F321FFF7C0FEDE
:104DE80000F0010008BD000030B50446017090F9DC
:104DF8000C00421C85B004D101F052FE01F018FCF1
:104E080021E0012180B201F0A2FD94F90C000121FA
:104E180080B201F08BFD94F90F00431C03D11D48AB
:104E280000F03CFD0FE0012180B201F07FFD94F914
:104E38000D00012180B201F079FD94F90E000021E6
:104E480080B201F073FDD0212046FFF789FE60286B
:104E58001DD12046B622E021FFF7EAFD4FF49670F7
:104E680001F078F82046FFF7B7FF054608B164203F
:104E7800F6E72046FFF740FF0523204602950195F7
:104E880000931A460321FFF727FE012000E00020C7
:104E980005B030BDF4E6032000F044B938B5044647
:104EA8000D46A8B2002101F041FD2560204638BD1D
:104EB800F0B500240827944212DA94FBF7F6094B60
:104EC8000D5D2340002BBEBF03F1FF3363F00703E2
:104ED800013305FA03F3855D2B4383550134EAE773
:104EE800F0BD00BF070000802DE9F04F002300242B
:104EF8000B608046146093B000880E462146154624
:104F080001F025FD0121B8F8000001F00FFD4FF474
:104F1800FA7001F01FF82146B8F8000001F006FD0C
:104F28002146B8F8000001F03EFD00F08BF94FF47F
:104F38009669074601224CF24F3AB8F800000192F0
:104F480001F01EFDB4FBF9F310F1000B09FB13444B
:104F580018BF4FF0010BB4F5167F84BF12A95B1878
:104F6800019A88BF03F834BC934507D0632C01D855
:104F78003F1B03E0B4F5617F88BF3F1900F062F979
:104F8800C41B54455A46D8D90024052205A903A8AC
:104F98008DF80C40FFF78CFF04220DF119010DF17B
:104FA8000D008DF80D40FFF783FF0C220DF11D0158
:104FB80004A8ADF81040FFF77BFF04220DF129018A
:104FC8000DF10E008DF80E40FFF772FF04220DF16F
:104FD8002D010DF10F008DF80F40FFF769FF9DF8C7
:104FE8000F30ADF8124083F00F030DF112000C22C0
:104FF8000DF131018DF80F30FFF75AFFBDF812009F
:105008009DF80C3080F47F601B2B80F00F0022D1BC
:10501800BDF810209DF80D109DF80E7002F00F03DA
:105028000B4403EB122303EB121303F00F039F420D
:1050380011D190420FD19DF80F708F420BD102F021
:1050480011F80022064B02F09DF902F069FB30606E
:105058002F60012000E0204613B0BDE8F08F00BFAC
:105068000000244000F05EB810B503682F2B0446FA
:1050780004D9074A00210A2000F06CFA23681F2B84
:1050880083BF03F01F03236002484FF0A04010BD08
:105098003D520D000003005007B502AB43F8040D64
:1050A8001846FFF7E1FF019A01239340C0F808353D
:1050B80003B05DF804FB10B5037201238171C2715E
:1050C800037410BD10B500210446807901F02EFC50
:1050D800074AA37912681B01D118D05C4B7803F0FA
:1050E8001F0343EA4010FFF7D7FF0023E36010BD1A
:1050F8005CE3032008B500F015F8014B186008BD03
:105108005CE3032008B5024B1B689B68019308BD4C
:105118006802030008B5024B1B68DB68019308BDF1
:105128006802030008B5024B1B681B68019308BDA1
:105138002C02030008B5024B1B689B68019308BD4D
:105148002C02030008B5024B1B68DB68019308BDFD
:105158002C02030008B5024B1B681B69019308BDAC
:105168002C02030008B5024B1B685B69019308BD5C
:105178002C02030008B5024B1B68DB6C019308BDC9
:105188002C02030008B5024B1B681B68019308BD7D
:105198003002030008B5024B1B685B68019308BD29
:1051A8003002030008B5024B1B689B68019308BDD9
:1051B8003002030008B5024B1B68DB68019308BD89
:1051C8003002030008B5024B1B681B69019308BD38
:1051D8003002030008B5024B1B685B69019308BDE8
:1051E8003002030008B5024B1B68DB69019308BD58
:1051F8003002030008B5024B1B681B6A019308BD07
:105208003002030008B5024B1B685B6A019308BDB6
:105218003002030008B5024B1B685B68019308BDA8
:105228001802030008B5024B1B689B68019308BD70
:105238001802030008B5024B1B68DB68019308BD20
:105248001802030008B5024B1B681B69019308BDCF
:105258001802030008B5024B1B685B69019308BD7F
:105268001802030008B5024B1B689B6A019308BD2E
:105278001802030008B5024B1B685B6C019308BD5C
:105288001802030008B5024B1B689B6C019308BD0C
:105298001802030008B5024B1B689B6E019308BDFA
:1052A8003402030008B5024B1B685B68019308BD14
:1052B8004802030008B5024B1B689B68019308BDB0
:1052C8004802030008B5024B1B681B69019308BD1F
:1052D8004802030008B5024B1B685B69019308BDCF
:1052E8004802030008B5024B1B681B6B019308BDFD
:1052F8004802030008B5024B1B68DB6B019308BD2D
:105308004802030008B5024B1B681B6C019308BDDB
:105318004802030008B5024B1B685B6C019308BD8B
:105328004802030008B5024B1B68DB6E019308BDF9
:105338004802030008B5024B1B685B69019308BD6E
:105348006402030008B5024B1B681B68019308BD83
:105358003C02030008B5024B1B68DB68019308BDDB
:105368003C02030008B5024B1B681B69019308BD8A
:105378003C02030008B5024B1B685B69019308BD3A
:105388003C02030008B5024B1B689B69019308BDEA
:105398003C02030008B5024B1B68DB69019308BD9A
:1053A8003C02030008B5024B1B681B6A019308BD49
:1053B8003C02030008B5024B1B689B6A019308BDB9
:1053C8003C02030008B5024B1B68DB68019308BD6B
:1053D8002802030008B5024B1B685B69019308BDEE
:1053E8002802030008B5024B1B689B69019308BD9E
:1053F8002802030008B5024B1B68DB69019308BD4E
:105408002802030008B5024B1B681B6A019308BDFC
:105418002802030008B5024B1B685B6A019308BDAC
:105428002802030008B5024B1B689B6A019308BD5C
:105438002802030008B5024B1B68DB6A019308BD0C
:105448002802030008B5024B1B681B6B019308BDBB
:105458002802030008B5024B1B685B6B019308BD6B
:105468002802030008B5024B1B681B6C019308BD9A
:105478002802030008B5024B1B689B6C019308BD0A
:105488002802030008B5024B1B68DB6C019308BDBA
:105498002802030008B5024B1B681B68019308BD6E
:1054A8004C02030008B5024B1B685B68019308BDFA
:1054B8004C02030008B5024B1B681B69019308BD29
:1054C8004C02030008B5024B1B685B69019308BDD9
:1054D8004C02030008B5024B1B689B69019308BD89
:1054E8004C02030008B5024B1B68DB69019308BD39
:1054F8004C02030008B5024B1B681B6A019308BDE8
:105508004C02030008B5024B1B685B68019308BD99
:105518006002030008B5024B1B689B68019308BD35
:105528006002030008B5024B1B68DB68019308BDE5
:105538006002030008B5024B1B689B69019308BD14
:105548006002030008B5024B1B68DB69019308BDC4
:105558006002030008B5024B1B685B6B019308BD32
:105568006002030008B5024B1B685B68019308BD25
:105578002002030008B5024B1B685B69019308BD54
:105588002002030008B5024B1B689B69019308BD04
:105598002002030008B5024B1B681B6B019308BD72
:1055A8002002030008B5034B1B68D3F88830019329
:1055B80008BD00002002030008B5034B1B68D3F8A0
:1055C8009430019308BD00002002030008B5024B87
:1055D8001B685B68019308BD4002030008B5024BD5
:1055E8001B689B68019308BD4002030008B5024B85
:1055F8001B68DB68019308BD4002030008B5024B35
:105608001B681B69019308BD4002030008B5024BE3
:105618001B685B69019308BD4002030008B5024B93
:105628001B689B69019308BD4002030008B5024B43
:105638001B68DB69019308BD4002030008B5024BF3
:105648001B681B6A019308BD4002030008B5024BA2
:105658001B681B6B019308BD4002030008B5024B91
:105668001B685B6B019308BD4002030008B5024B41
:105678001B68DB69019308BD4402030008B5024BAF
:105688001B68DB6B019308BD4402030008B5024B9D
:105698001B681B68019308BD1C02030008B5024B78
:1056A8001B685B68019308BD1C02030008B5024B28
:1056B8001B689B68019308BD1C02030008B5024BD8
:1056C8001B685B6A019308BD1C02030008B5024B06
:1056D8001B68DB6A019308BD1C02030001207047A8
:1056E80008B501F0FDF9BDE8084000F0CFBF10B5DE
:1056F8000446017009B1FFF7F3FF204610BD08B555
:1057080001F0EEF9BDE8084000F0C9BF10B5037814
:1057180004460BB1FFF7F3FF204610BD10B5044651
:105728000068FFF7ECFF204610BD37B502AC0D4608
:1057380044F8040DFFF7D4FF01F0D2F96B2100F013
:1057480097FF01F0CDF9036829469B68984701F057
:10575800C7F9012100F08FFF01F0C2F901231A46B1
:105768006B2100F07CFF01F0BBF903685B69984787
:1057780005462046FFF7D2FFE8B203B030BD00214E
:10578800FFF7D3BF08B5FFF7FAFF034B00F003009C
:1057980033F8100008BD00BFDC7A0D0008B5012100
:1057A800FFF7C3FF024B00F00E0033F8100008BDEE
:1057B800EC7A0D000221FFF7B8BF0421FFF7B5BF4F
:1057C80010B5FFF7FAFF02234FF45B62102140FA8D
:1057D80003F4013304F00104082B01FB04224FEA0F
:1057E8004101F4D190B210BD002211464068FFF784
:1057F80025BF002211464068FFF730BF00224068ED
:10580800FFF724BF002281F001014068FFF70EBFB7
:1058180000231A4619464068FFF700BF00231A46BE
:1058280019464068FFF7F2BE002211464068FFF7AC
:10583800E5BE002211464068FFF7D0BE00220221D3
:105848004068FFF7D3BE00231A464068FFF7BEBE84
:10585800024B03225A60024A1A60704760E3032031
:10586800147B0D00704710B50446FEF710FC204667
:1058780010BD000070B5084B0360044600250E46B5
:1058880040F80C5FFFF72EFD30462671FFF7AAFCA3
:10589800A560204670BD00BF487B0D004FF6FF7124
:1058A8000079FFF76FBC10B50446C068FFF722FD0A
:1058B800E068FFF727FD2079BDE81040FFF76ABCD4
:1058C8000079FFF76FBC0079FFF774BC054A002325
:1058D800995C814202D00133082BF9D1581CC0B21F
:1058E800704700BF507B0D00400830B51860002499
:1058F80018688842E5B206D90134082C02D040085D
:105908001860F5E70725024B5B5D137030BD00BFDB
:10591800507B0D0070B588B0067902FB01F504468E
:105928001422002103A801F064FF0B2303A93046C9
:105938000022ADF80C30FFF765FC02AB0DF1070251
:1059480029460498FFF7D0FF20799DF80710FFF744
:1059580039FC029808B070BD38B504460846A568F9
:105968004DB1FFF7B3FF012225FA00F12046BDE84B
:105978003840FFF7CFBF2079BDE83840FFF722BC99
:1059880008B50079FFF726FCC0B208BD0079FFF71B
:1059980031BC014600228C20FFF77CBC0020FFF7B9
:1059A800F8BF000010B50446084611461A46002301
:1059B800FFF7E8FD064B00221A704FF6FF72588079
:1059C8009A801A689B882260A380204610BD00BF79
:1059D80068E30320044B00204FF6FF7218705880CC
:1059E8009A80FFF7BFBD00BF68E3032010B50446E7
:1059F80001F038FF013823182046984206D2027871
:105A0800197800F8011B03F80129F6E710BD70B5F5
:105A18000C46911E222920D82546294610B9234430
:105A280030220EE0B0FBF2F602FB1600C1B205F818
:105A3800011B092894BF3031573105F8011C304645
:105A4800EBE7994202D201F8012BFAE7002320463E
:105A58000B70FFF7CBFF204670BD002070BD38B536
:105A6800031E0C4615460BDAB3F1004F4FF02D021A
:105A780014BF5842184601230A702A46194400E008
:105A88000123FFF7C4FF204638BD10B5044600685F
:105A9800FFF704FE204610BD10B50446006808B1A3
:105AA800FFF7FCFD00232360A360636010BD38B5D9
:105AB80004460D4600680131FFF7F8FD10B184E88F
:105AC8002100012038BD10B50368044613B14368AE
:105AD8008B4207D22046FFF7EAFF20B1A3680BB933
:105AE80022681370012010BD70B50E461146044699
:105AF8001546FFF7E8FF18B92046FFF7CDFF09E084
:105B08002A463146A560206801F068FE2268A3682D
:105B18000021D154204670BD38B5002304460360E7
:105B28004360836003730D4639B1084601F09AFE5D
:105B3800294602462046FFF7D7FF204638BD88424F
:105B480010B50B46044607D0096819B19A68FFF7E3
:105B5800CBFF01E0FFF7A0FF204610BD10B50023E2
:105B680004460360436083600373FFF7E8FF204641
:105B780010BD38B505460C4641B1084601F072FE25
:105B8800214602462846FFF7AFFF01E0FFF784FFF2
:105B9800284638BD10B5044600238AB023606360E8
:105BA800A3602373084601A9FFF759FF01A92046FE
:105BB800FFF7DFFF20460AB010BD70B504460E4659
:105BC80009B9002070BD6AB18368D5182946FFF766
:105BD8007AFF0028F5D02068A3683146184401F000
:105BE80039FEA560012070BD10B58A6809680446B1
:105BF800FFF7E3FF10B92046FFF74EFF204610BD20
:105C0800F8B506460D468F180024BD420CD03368FF
:105C180015F8011B9B6830469847002801DB0444AF
:105C2800F3E7002C08BF04462046F8BD70B50546CA
:105C38000C46084649B101F015FE2B68024621467C
:105C48002846DB68BDE87040184770BD08B5FFF707
:105C5800EDFF08BD03689B68184738B50D21054658
:105C6800FFF7F8FF0A2104462846FFF7F3FF204410
:105C780038BD38B50546FFF7D9FF04462846FFF773
:105C8800ECFF204438BD30B58BB00B4600218DF8B1
:105C98002410012A98BF0A220DF12304B3FBF2F560
:105CA80005FB123303F0FF03092B94BF303337335E
:105CB800DBB2214604F801392B46002DEED1FFF75F
:105CC800B5FF0BB030BD10B42AB903685DF8044BBA
:105CD8009B68C9B21847D2B25DF8044BFFF7D3BF2F
:105CE800FFF7F1BF2DE9F04107460E4615462AB9E0
:105CF8000368C9B29B68BDE8F04118470A2A02D177
:105D0800002901DA04E0D2B2BDE8F041FFF7BBBFD9
:105D18002D21FFF79FFF2A46044671423846FFF7B8
:105D2800B2FF2044BDE8F081FFF7DCBF38B5054677
:105D3800FFF7D8FF04462846FFF78FFF204438BDF9
:105D48002DE9F04757EC106B82460D4610EE102AED
:105D58003B4610EE100A394601F084FC08B1484968
:105D680012E027F000494FF0FF32464B30464946D3
:105D780001F078FC68B94FF0FF32424B3046494693
:105D880001F052FC28B940495046FFF74FFFBDE8E3
:105D9800F0874FF060423D4B3046394601F058FCE1
:105DA80008B13B49F0E74FF060423A4B304639467C
:105DB80001F030FC0028F4D1002200233046394697
:105DC80001F028FC40B12D215046FFF743FF07F1B1
:105DD800004304461F4600E004462F494FF00008E0
:105DE80000205FFA88F39D4206D900222B4B01F070
:105DF800C9FA08F10108F4E732463B4600F0E6FF2D
:105E08000F46064601F06CFC0A22014680465046C1
:105E1800FFF739FF04447DB3404601F013F9024609
:105E28000B463046394600F0CFFF06460F4650462F
:105E38001B49FFF7FBFE0444184B00223046394645
:105E480001F076F90F46064601F022FC0A220146C7
:105E580080465046FFF746FF0444404601F002F9E9
:105E680002460B463046394600F0AEFF013D15F0BC
:105E7800FF0506460F46DFD12046BDE8F08700BF84
:105E8800587B0D00FFFFEF7F607B0D00FFFFEF41A8
:105E98005C7B0D00FFFFEFC10000E03F00002440E5
:105EA800A1780D0038B5C9B20546FFF749FF044689
:105EB8002846FFF7D2FE204438BD0CB42DE9F04344
:105EC80087B000AF07F13804054654F8049B3C60DE
:105ED8000E4623464A461421381DFFF7EFFB1328C8
:105EE80005D8391D2846FFF7A1FE044613E000F146
:105EF800080323F00703E846ADEB030D411C2346D6
:105F08004A4668463C60FFF7D9FB69462846FFF7D2
:105F18008DFE0446C5461EB12846FFF79EFE044482
:105F280020461C37BD46BDE8F04302B0704700006C
:105F3800014B024A1A60704770E30320177C0D007A
:105F4800024B1A68024B1A60704700BFE4E1032055
:105F580074E303200021FFF70DBB10B50446FEF7DC
:105F6800E8F8204610BD10B50446FFF7E3FA84426E
:105F780008D01CB1BDE81040FFF7CCBABDE810400E
:105F8800FFF7D0BA10BD70B505460E461446FFF7A8
:105F9800D1FA50B144EA062040EA0540FFF7B2FAC8
:105FA800E720BDE87040FFF7CDBA70BD13B50B46CA
:105FB800044603C88DE8030093E8030084E803005F
:105FC8009DE8030083E8030002B010BD0348044ABB
:105FD80004490023836000F0A3BD00BF78E30320D9
:105FE8004CE20320635F0D00090941EA001007EE47
:105FF800900AB8EEE70ADFED027A80EE270A7047CA
:1060080000004844006800F041BB10B50446016038
:1060180002710AB1FFF7F6FF204610BD38B50446F5
:106028000D4600F05DFD2A4601462046FFF7EDFFCC
:10603800204638BD006800F032BB10B5037904462D
:106048000BB1FFF7F7FF204610BDF8B5044616461A
:106058001D460F46FFF7D6FF2068362100F008FBE3
:106068002068036839469B6898470121206800F03A
:1060780002FB022236210123206800F0F0FA206892
:1060880003685B6998473070206803685B699847C4
:1060980028702046BDE8F840FFF7CCBF07B502AB33
:1060A80000228DF8062003F8012D02210DF10602C9
:1060B800FFF7CBFF9DF807109DF8060003B05DF8C9
:1060C80004EBFFF791BF000007B502AB002203F80D
:1060D800012D8DF8062004210DF10602FFF7B5FF0A
:1060E8009DF8070000F0BEFF0022094B01F020F8E0
:1060F80001F016FB9DF8063000EE103A07EE900A04
:10610800B8EEC00A37EE800A03B05DF804FB00BFA2
:106118000000703F13460A460C21FFF796BFF8B5FA
:10612800044616461D460F46FFF76CFF20683621C9
:1061380000F09EFA2068036839469B6898472068F3
:10614800036831469B6898472068036829469A681F
:1061580090472068012100F08EFA2046BDE8F840FB
:10616800FFF768BF13B50446FFF74CFF02AA0023E8
:1061780002F8013D0DF1060120468DF80630FFF7C3
:10618800C9FF9DF807309DF8062043F080030C21D5
:106198002046FFF7C4FF2046FFF74CFF02B010BDB2
:1061A80008B50C4B33B100F021F903681B69984717
:1061B800002809DC084B63B100F0D6F903681B69B5
:1061C8009847002803DC08BDAFF30080F2E7AFF37F
:1061D800008008BD000000000000000008B5FFF7BF
:1061E800DFFFFFF737F8014B186008BD14E70320FD
:1061F80007B5002300931A466FF07701FFF7DCF923
:1062080003B05DF804FB000007B543880A2B08D0EB
:10621800502B09D1094B1B683BB103B05DF804EB67
:106228001847FFF7E5FF06E0002300931A466FF0D2
:106238007701FFF7C1F903B05DF804FB88E3032099
:1062480010B5FEF7E7FF044601F0DCFA074B13B17F
:106258002046AFF3008000210448FFF70FFA002121
:106268000348BDE81040FFF79DB900BF00000000DB
:1062780011620D00704710B50446FDF708FF20466F
:1062880010BDF0B5037D062B8DB00E4600F1040756
:106298004FF0000402D000F1080518E00CAD3946B3
:1062A80005F8304D2F232A460A20FFF743F82846E1
:1062B80001F0D8FA33680246DB6829463046984729
:1062C8000FE024B12E213046FFF7C4FC044415F832
:1062D800011D0A223046FFF703FDBD420444F0D1F8
:1062E80020460DB0F0BD000010B5054B0446112244
:1062F80040F8043B002101F07CFA204610BD00BFA5
:10630800747C0D000346074A10B543F8042B01F1CD
:10631800100251F8044B43F8044B9142F9D10A7822
:106328001A7010BD747C0D0010B59DF8084044EA41
:10633800032343EA024242EA0161042341600375F0
:1063480010BD37B50D788B784A78C9780091294601
:10635800FFF7EAFF03B030BD417470477047002172
:10636800007CFFF7B7B80121007CFFF7B3B8007CC9
:10637800FFF7A8B8007CFFF79DB838B50446007C45
:106388000D46FFF79FF8002801DC607C20B1294604
:10639800207CFFF7A7F8012038BD007CFFF7AAB8DA
:1063A80010B50446FDF773FE204610BD10B504462F
:1063B800002363604FF47A73A360054B23600123C5
:1063C8000846217463741146FFF764F8204610BD2F
:1063D800887C0D000022007CFFF764B810B51422F9
:1063E8000446002101F005FA204610BD30B50E4DD7
:1063F80087B001A8FFF7F2FF296811F0010410D156
:106408002846FDF748FE60B101AA21460748FFF774
:10641800CDFF2846FDF744FE054A0649034800F02B
:106428007FFB024807B030BD8CE3032090E30320D4
:106438004CE2032065630D00002211464068FFF717
:10644800DDB8002211464068FFF7F8B8002211466F
:106458004068FFF703B900224068FFF7F7B8002249
:1064680081F001014068FFF7E1B800231A46194698
:106478004068FFF7D3B800231A4619464068FFF76B
:10648800C5B8002211464068FFF7A8B800220221CB
:106498004068FFF7ABB800231A464068FFF796B884
:1064A80038B50C4D282422460021284601F0A1F9D0
:1064B8004FF0FF336B602C80074D042328466B6038
:1064C800064B40F8083B2246002101F092F92C8146
:1064D80038BD00BFD4E30320A4E30320B87C0D003B
:1064E800704741747047007CFEF764BF007CFEF77C
:1064F80039BF007CFEF746BF007CFEF73BBF007C3F
:10650800FEF748BF10B50446FDF7C1FD204610BD93
:1065180070B5457C04460E4625B9007CFEF74AFF57
:10652800002805DD3146207CBDE87040FEF712BF2B
:10653800284670BD10B50446084611460022626020
:106548004FF47A72A260054A2260012220746274B4
:106558001A46FEF7F7FE204610BD00BFEC7C0D0082
:10656800007CFEF71FBF000038B50C4D296811F0FC
:10657800010411D12846FDF78EFD68B1084A094B80
:1065880009482146FFF7D6FF2846FDF789FD074A47
:106598000749054800F0C4FA034838BD94E40320CD
:1065A80098E4032010E40320FCE303204CE20320DA
:1065B800E9640D007047F8B5064615460C468F1875
:1065C800BC4206D0336814F8011B9B6830469847D4
:1065D800F6E72846F8BD0022007CFEF713BF00212D
:1065E800007CFEF717BF0021007CFEF71BBF0021CF
:1065F800007CFEF71FBF0021007CFEF723BF10B50B
:106608000446FDF744FD204610BD000010B50446C1
:106618004FF47A730846A3600021044B207461602C
:106628002360FEF71FFF204610BD00BF1C7D0D0034
:1066380000231A461946007CFEF7C4BE13B5002491
:10664800007C0094FEF7C6FEC0B202B010BD012364
:10665800FFF7F4BF0123D2B2C9B2FFF7EFBFDBB235
:10666800D2B2C9B2FFF7EABF0022007CFEF7BABE79
:10667800C9B2FFF7F9BF0022007CFEF7BBBE0121BB
:10668800FFF7F9BF0021007CFEF7E4BE08B5002142
:10669800007CFEF7EFFEB0FA80F0400908BD08B5AF
:1066A8000021007CFEF7EEFEB0FA80F0400908BD3C
:1066B800002211464068FEF7C1BF0022114640681B
:1066C800FEF7CCBF00224068FEF7C0BF002281F071
:1066D80001014068FEF7AABF00231A461946406820
:1066E800FEF79CBF00231A4619464068FEF78EBF86
:1066F800002211464068FEF781BF0022114640681B
:10670800FEF76CBF002202214068FEF76FBF00232E
:106718001A464068FEF75ABF10B103685B6818470D
:10672800704738B504460068D0B1FEF7C3FDB8B964
:10673800237C1BB9206808B1FEF7C4FD656855B114
:10674800AB681BB103222946284698472846FDF71F
:106758009EFC002363602068FEF7BCFD00232360D5
:1067680038BD000038B50B4B03600446D0F8CC01A7
:1067780008B1FDF78EFCD4F8C4512DB12846FFF7B7
:10678800D0FF2846FDF783FCA06808B1FFF7C4FFD7
:10679800204638BD447D0D0038B50D4C0D4B2360A7
:1067A8000025022304F5E4706360A560C4F8C451B1
:1067B800C4F8C851FEF7AEFD074BC4F8CC512360AE
:1067C8002046064A0649BDE8384000F0A9B900BF8E
:1067D8001CE50320787D0D00447D0D004CE203206C
:1067E8006D670D0000231A464068FEF7EFBE0022D1
:1067F80002214068FEF7FABE002211464068FEF703
:10680800EDBE002211464068FEF7F8BE00231A4686
:1068180019464068FEF7FABE00231A461946406832
:10682800FEF7FCBE002281F001014068FEF7FEBEC3
:1068380000224068FEF70ABF002211464068FEF7B2
:106848000DBF002211464068FEF7F8BE70B58CB047
:1068580014460646FFF748FD0CAB0022114643F8E4
:10686800302D2046FEF756FC014658BB009B4BB323
:106878005A68022A0ED00A2A24D15C69112201A87A
:1068880000F0B7FF06238DF8143001AD04F10803BA
:10689800183405E0596930460431FFF752FD11E01C
:1068A800186859682A4603C20833A3421546F7D127
:1068B80001A906A807ADFFF725FD0FCD341D0FC4AC
:1068C8002B6823700098FEF71DFC30460CB070BD95
:1068D800024B034A1A6000225A607047ECE6032014
:1068E800787D0D0010B504460F48FFF74FF828B122
:1068F800A4F10B03022B01D8002010BD00F0D0F842
:10690800FFF7C0FE08B1012CF6D9FFF72DFEFFF7FF
:1069180027FE18B1A4F10903012BEDD9232C8CBF54
:106928000020012010BD00BFF4E60320232838B55D
:1069380004460D460AD8FF2908D0FFF7D3FF28B12F
:1069480029462046BDE83840FEF7F4BB38BD38B5C7
:1069580004460D46FEF7F6FBFF2810D0062804D89B
:106968004D2323FA00F0C30709D42046FFF7BAFFE6
:1069780028B129462046BDE83840FEF7EBBB38BDB4
:1069880010B50446FEF7DEFB0438C0B2012808D96A
:106998002046FFF7A7FF20B12046BDE81040FEF7CC
:1069A800E1BB002010BDFEF7E5BB000070B50C4C44
:1069B8000C4E0D4D00212046FEF75CFF20460B4C87
:1069C8003246294600F0ACF801212046FEF752FF76
:1069D800324629462046BDE8704000F0A1B800BF05
:1069E800F4E603204CE203206D580D0004E7032071
:1069F80030B51C4D89B004462068FEF713FCFEF73D
:106A080029FC2B682268C01A9042F5D3236833B357
:106A1800E36823B3251D236928469847002304A962
:106A2800684602930693FFF7C1FA029B069A029200
:106A38000693079A039B0793294604A80392FFF736
:106A4800B5FA069BE268E360079B069204A82269F0
:106A580023610792FDF76DFB6846FDF76AFB09B0F5
:106A680030BD00BF14E7032008B5FFF7C1FF0020C1
:106A7800BDE80840FEF72EBC10B5074C2368DB07BD
:106A880008D42046FDF707FB20B1FEF7EBFB2046B4
:106A9800FDF706FB014810BD18E703201CE703209B
:106AA80038B50B4D296811F001040FD12846FDF7C0
:106AB800F2FA58B121460748FFF7A8FD2846FDF726
:106AC800EFFA054A0549034800F02AF8014838BD9D
:106AD80020E7032038E703204CE20320BD650D00C2
:106AE80010B50B4C2368DB070FD42046FDF7D3FA0B
:106AF80058B101210748FFF789FD2046FDF7D0FA74
:106B0800054A0649034800F00BF8024810BD00BFCB
:106B18004CE7032024E703204CE20320BD650D0069
:106B28000B460146184600F04BBE08B5FEF7CEFDF1
:106B3800184B1A68D1075CBF01221A60164B1A68F5
:106B4800D2075CBF01221A60144B1A68D0075CBFD9
:106B580001221A60124B1A68D1075CBF01221A6021
:106B6800104B1A68D2075CBF01221A600E4B1A68D4
:106B7800D0075CBF01221A600C4B1A68D1075CBFB2
:106B880001221A600A4B1A68D2075CBF01221A60F8
:106B9800704700BF6CE7032068E7032064E7032021
:106BA80060E703205CE7032058E7032054E703204D
:106BB80050E70320244B1A68D0075CBF01221A60F3
:106BC800224B1A68D1075CBF01221A60204B1A6851
:106BD800D2075CBF01221A601E4B1A68D0075CBF3F
:106BE80001221A601C4B1A68D1075CBF01221A6087
:106BF8001A4B1A68D2075CBF01221A60184B1A6830
:106C0800D0075CBF01221A60164B1A68D1075CBF17
:106C180001221A60144B1A68D2075CBF01221A605D
:106C2800124B1A68D0075CBF01221A60104B1A6811
:106C3800D1075CBF01221A600E4B1A68D2075CBFED
:106C480001221A60704700BF9CE7032098E70320E1
:106C580094E7032090E703208CE7032088E70320CC
:106C680084E7032080E703207CE7032078E70320FC
:106C780074E7032070E70320244B1A68D0075CBF31
:106C880001221A60224B1A68D1075CBF01221A60E0
:106C9800204B1A68D2075CBF01221A601E4B1A6883
:106CA800D0075CBF01221A601C4B1A68D1075CBF71
:106CB80001221A601A4B1A68D2075CBF01221A60B7
:106CC800184B1A68D0075CBF01221A60164B1A6865
:106CD800D1075CBF01221A60144B1A68D2075CBF47
:106CE80001221A60124B1A68D0075CBF01221A6091
:106CF800104B1A68D1075CBF01221A600E4B1A6844
:106D0800D2075CBF01221A60704700BFCCE703209E
:106D1800C8E70320C4E70320C0E70320BCE703203B
:106D2800B8E70320B4E70320B0E70320ACE703206B
:106D3800A8E70320A4E70320A0E70320184B1A685C
:106D4800D1075CBF01221A60164B1A68D2075CBFD4
:106D580001221A60144B1A68D0075CBF01221A601E
:106D6800124B1A68D1075CBF01221A60104B1A68CF
:106D7800D2075CBF01221A600E4B1A68D0075CBFAD
:106D880001221A600C4B1A68D1075CBF01221A60F5
:106D98000A4B1A68D2075CBF01221A60704700BF0D
:106DA800ECE70320E8E70320E4E70320E0E703201B
:106DB800DCE70320D8E70320D4E70320D0E703204B
:106DC80081F0004102E000BF83F0004330B54FEA94
:106DD80041044FEA430594EA050F08BF90EA020F01
:106DE8001FBF54EA000C55EA020C7FEA645C7FEA94
:106DF800655C00F0E2804FEA5454D4EB5555B8BFB7
:106E08006D420CDD2C4480EA020281EA030382EA27
:106E1800000083EA010180EA020281EA0303362DB9
:106E280088BF30BD11F0004F4FEA01314FF4801C8C
:106E38004CEA113102D0404261EB410113F0004F9E
:106E48004FEA03334CEA133302D0524263EB430355
:106E580094EA050F00F0A780A4F10104D5F1200EF3
:106E68000DDB02FA0EFC22FA05F2801841F100014E
:106E780003FA0EF2801843FA05F359410EE0A5F122
:106E880020050EF1200E012A03FA0EFC28BF4CF053
:106E9800020C43FA05F3C01851EBE37101F0004509
:106EA80007D54FF0000EDCF1000C7EEB00006EEB16
:106EB8000101B1F5801F1BD3B1F5001F0CD34908A0
:106EC8005FEA30004FEA3C0C04F101044FEA4452F7
:106ED80012F5800F80F09A80BCF1004F08BF5FEA7E
:106EE800500C50F1000041EB045141EA050130BD5E
:106EF8005FEA4C0C404141EB010111F4801FA4F101
:106F08000104E9D191F0000F04BF01460020B1FA55
:106F180081F308BF2033A3F10B03B3F120020CDA8D
:106F28000C3208DD02F1140CC2F10C0201FA0CF06B
:106F380021FA02F10CE002F11402D8BFC2F1200CD0
:106F480001FA02F120FA0CFCDCBF41EA0C01904086
:106F5800E41AA2BF01EB0451294330BD6FEA0404CF
:106F68001F3C1CDA0C340EDC04F11404C4F12002BA
:106F780020FA04F001FA02F340EA030021FA04F3CC
:106F880045EA030130BDC4F10C04C4F1200220FA23
:106F980002F001FA04F340EA0300294630BD21FA61
:106FA80004F0294630BD94F0000F83F4801306BF27
:106FB80081F480110134013D4EE77FEA645C18BF1B
:106FC8007FEA655C29D094EA050F08BF90EA020FB2
:106FD80005D054EA000C04BF1946104630BD91EAAA
:106FE800030F1EBF0021002030BD5FEA545C05D1AD
:106FF8004000494128BF41F0004130BD14F58004EC
:107008003CBF01F5801130BD01F0004545F0FE415F
:1070180041F470014FF0000030BD7FEA645C1ABF94
:10702800194610467FEA655C1CBF0B46024650EACB
:10703800013406BF52EA033591EA030F41F40021F7
:1070480030BD00BF90F0000F04BF0021704730B57D
:107058004FF4806404F132044FF000054FF0000152
:1070680050E700BF90F0000F04BF0021704730B513
:107078004FF4806404F1320410F0004548BF4042E8
:107088004FF000013EE700BF42004FEAE2014FEA3D
:1070980031014FEA02701FBF12F07F4393F07F4F18
:1070A80081F06051704792F0000F14BF93F07F4F4A
:1070B800704730B54FF4607401F0004521F000418D
:1070C80020E700BF50EA010208BF704730B54FF013
:1070D80000050AE050EA010208BF704730B511F018
:1070E800004502D5404261EB41014FF4806404F150
:1070F80032045FEA915C3FF4DCAE4FF003025FEAD2
:10710800DC0C18BF03325FEADC0C18BF033202EB59
:10711800DC02C2F1200300FA03FC20FA02F001FAB3
:1071280003FE40EA0E0021FA02F11444C1E600BF52
:1071380070B54FF0FF0C4CF4E06C1CEA11541DBF05
:107148001CEA135594EA0C0F95EA0C0F00F0DEF8D0
:107158002C4481EA030621EA4C5123EA4C5350EAB5
:10716800013518BF52EA033541F4801143F4801306
:1071780038D0A0FB02CE4FF00005E1FB02E506F097
:107188000042E0FB03E54FF00006E1FB03569CF0EC
:10719800000F18BF4EF0010EA4F1FF04B6F5007FF2
:1071A80064F5407404D25FEA4E0E6D4146EB060664
:1071B80042EAC62141EA55514FEAC52040EA5E50ED
:1071C8004FEACE2EB4F1FD0C88BFBCF5E06F1ED897
:1071D800BEF1004F08BF5FEA500E50F1000041EBCE
:1071E800045170BD06F0004646EA010140EA02007B
:1071F80081EA0301B4EB5C04C2BFD4EB0C0541EA9D
:10720800045170BD41F480114FF0000E013C00F3B1
:10721800AB8014F1360FDEBF002001F0004170BDD5
:10722800C4F10004203C35DA0C341BDC04F11404EE
:10723800C4F1200500FA05F320FA04F001FA05F27A
:1072480040EA020001F0004221F0004110EBD37047
:1072580021FA04F642EB06015EEA430E08BF20EA73
:10726800D37070BDC4F10C04C4F1200500FA04F316
:1072780020FA05F001FA04F240EA020001F00041A8
:1072880010EBD37041F100015EEA430E08BF20EA1B
:10729800D37070BDC4F1200500FA05F24EEA020E63
:1072A80020FA04F301FA05F243EA020321FA04F092
:1072B80001F0004121FA04F220EA020000EBD37049
:1072C8005EEA430E08BF20EAD37070BD94F0000F49
:1072D8000FD101F00046400041EB010111F4801F7D
:1072E80008BF013CF7D041EA060195F0000F18BF2E
:1072F800704703F00046520043EB030313F4801F6A
:1073080008BF013DF7D043EA0603704794EA0C0F23
:107318000CEA135518BF95EA0C0F0CD050EA410639
:1073280018BF52EA4306D1D181EA030101F00041B6
:107338004FF0000070BD50EA410606BF10461946DE
:1073480052EA430619D094EA0C0F02D150EA0136EA
:1073580013D195EA0C0F05D152EA03361CBF10462B
:1073680019460AD181EA030101F0004141F0FE41CA
:1073780041F470014FF0000070BD41F0FE4141F44E
:10738800780170BD70B54FF0FF0C4CF4E06C1CEA4E
:1073980011541DBF1CEA135594EA0C0F95EA0C0F03
:1073A80000F0A7F8A4EB050481EA030E52EA0335BE
:1073B8004FEA013100F088804FEA03334FF08055DF
:1073C80045EA131343EA12634FEA022245EA11150C
:1073D80045EA10654FEA00260EF000419D4208BFBD
:1073E800964244F1FD0404F5407402D25B084FEA6A
:1073F8003202B61A65EB03055B084FEA32024FF416
:1074080080104FF4002CB6EB020E75EB030E22BF72
:10741800B61A754640EA0C005B084FEA3202B6EB32
:10742800020E75EB030E22BFB61A754640EA5C00E1
:107438005B084FEA3202B6EB020E75EB030E22BF71
:10744800B61A754640EA9C005B084FEA3202B6EB72
:10745800020E75EB030E22BFB61A754640EADC0031
:1074680055EA060E18D04FEA051545EA16754FEA93
:1074780006164FEAC30343EA52734FEAC2025FEAB1
:107488001C1CC0D111F4801F0BD141EA00014FF040
:1074980000004FF0004CB6E711F4801F04BF014311
:1074A8000020B4F1FD0C88BFBCF5E06F3FF6AFAE2D
:1074B800B5EB030C04BFB6EB020C5FEA500C50F1BD
:1074C800000041EB045170BD0EF0004E4EEA113140
:1074D80014EB5C04C2BFD4EB0C0541EA045170BD47
:1074E80041F480114FF0000E013C90E645EA060E8B
:1074F8008DE60CEA135594EA0C0F08BF95EA0C0FB9
:107508003FF43BAF94EA0C0F0AD150EA01347FF400
:1075180034AF95EA0C0F7FF425AF104619462CE7D7
:1075280095EA0C0F06D152EA03353FF4FDAE10463A
:10753800194622E750EA410618BF52EA43067FF48B
:10754800C5AE50EA41047FF40DAF52EA43057FF41B
:10755800EBAE12E74FF0FF3C06E000BF4FF0010C26
:1075680002E000BF4FF0010C4DF804CD4FEA410C8A
:107578007FEA6C5C4FEA430C18BF7FEA6C5C1BD057
:1075880001B050EA410C0CBF52EA430C91EA030FD8
:1075980002BF90EA020F0020704710F1000F91EA35
:1075A800030F58BF994208BF90422CBFD8176FEA03
:1075B800E37040F0010070474FEA410C7FEA6C5CD1
:1075C80002D150EA013C07D14FEA430C7FEA6C5CD8
:1075D800D6D152EA033CD3D05DF8040B704700BF04
:1075E8008446104662468C461946634600E000BF52
:1075F80001B5FFF7B7FF002848BF10F1000F01BD24
:107608004DF808EDFFF7F4FF0CBF012000205DF8EE
:1076180008FB00BF4DF808EDFFF7EAFF34BF012073
:1076280000205DF808FB00BF4DF808EDFFF7E0FF0C
:1076380094BF012000205DF808FB00BF4DF808ED5D
:10764800FFF7CEFF94BF012000205DF808FB00BFC4
:107658004DF808EDFFF7C4FF34BF012000205DF8A6
:1076680008FB00BF4FEA410C7FEA6C5C02D150EA8C
:10767800013C0AD14FEA430C7FEA6C5C02D152EA22
:10768800033C02D14FF0000070474FF001007047F3
:107698004FEA410212F5001215D211D56FF4787332
:1076A800B3EB625212D94FEAC12343F0004343EAD5
:1076B800505311F0004F23FA02F018BF40427047B0
:1076C8004FF00000704750EA013005D111F000403A
:1076D80008BF6FF0004070474FF00000704700BFD0
:1076E8004A0011D212F5001211D20DD56FF4787339
:1076F800B3EB62520ED44FEAC12343F0004343EA8E
:10770800505323FA02F070474FF00000704750EAD8
:10771800013002D14FF0FF3070474FF00000704742
:107728004FEA4102B2F1E04324BFB3F5001CDCF19B
:10773800FE5C0DD901F0004C4FEAC0024CEA5070D3
:10774800B2F1004F40EB830008BF20F00100704702
:1077580011F0804F21D113F13872BCBF01F0004005
:10776800704741F480114FEA5252C2F11802C2F137
:10777800200C10FA0CF320FA02F018BF40F00100B8
:107788004FEAC1234FEAD32303FA0CFC40EA0C006A
:1077980023FA02F34FEA4303CCE77FEA625307D1A7
:1077A80050EA01331EBF4FF0FE4040F440007047DE
:1077B80001F0004040F0FE4040F40000704700BF78
:1077C80010B5054C13462CB10A4601460220AFF30A
:1077D800008010BD204610BD0000000010B5431EFB
:1077E8000A44914204D011F8014B03F8014FF8E71D
:1077F80010BD02440346934202D003F8011BFAE786
:107808007047000038B5124B1C68A36B0546D3B906
:107818001820FDF73BFF43F20E33A06303804AF6BE
:10782800CD33438041F2342383804EF26D63C380AD
:107838004DF6EC630381052343810B2383810122E9
:107848000023C0E90423A36B00221D615A6138BDDF
:1078580048E20320034611F8012B03F8012B002A04
:10786800F9D17047034613F8012B002AFBD1181AE7
:10787800013870471D400D0059400D0085400D002E
:1078880089400D00000000005761746368646F67E9
:107898002074696D656F7574002E00414E454D4F1B
:1078A8004D45544552200044485420004552524FFB
:1078B800523A20436F756C64206E6F74206765744C
:1078C80020696E697469616C2077696E64207265DD
:1078D8006164696E670057656174686572205374E6
:1078E8006174696F6E004465766963652049443A3E
:1078F8002025730053797374656D207665727369FA
:107908006F6E3A20257300496E70757420566F6C3F
:1079180074616765204C696D69743A202564004973
:107928006E7075742043757272656E74204C696D43
:1079380069743A202564004D696E696D756D205330
:10794800797374656D20566F6C746167653A20258C
:1079580064004368617267652043757272656E746E
:107968003A2025640043686172676520566F6C741D
:107978006167653A202564004368617267653A204B
:1079880000566F6C746167653A2000436F6D7061D3
:10799800737320696E697469616C697A696E6700CE
:1079A800436F6D7061737320696E697469616C658A
:1079B8006400583A2025642C20593A2025642C204C
:1079C8005A3A202564004465657020536C656570DB
:1079D80020666F72202564206D696C6C697365631D
:1079E8006F6E6473005472616E736D697373696F3F
:1079F8006E207374617475732025640061707077EC
:107A0800647400436F6E6669677572696E672051AA
:107A18004D43353838334C202D204F5352203531C3
:107A2800322C2072616E6765202B2F2D3220476122
:107A38007573732C204F44522031302C20436F6EC5
:107A480074696E756F7573004572726F7220636F1B
:107A5800646520007472756500534156494E47208D
:107A680053455454494E4753200076657273696FE5
:107A78006E0062726F776E6F75740062726F776EE8
:107A88006F7574566F6C746167650062726F776E9C
:107A98006F75744D696E7574657300736C65657088
:107AA80054696D6500646961676E6F7369746963B1
:107AB8004379636C65730075736544656570536CD1
:107AC8006565700022225C5C6208660C6E0A720DA5
:107AD8007409000064009600F4018403B004DC0516
:107AE800D007B80BB80B00001C0C0000800C00007D
:107AF800E40C0000480D0000AC0D0000100E000062
:107B0800740E000000000000000000004F580D0037
:107B180045580D003B580D0031580D0025580D00F3
:107B280019580D000D580D0005580D00FB570D0094
:107B3800F1570D0055680D0000000000000000001E
:107B48006D580D006F580D000008101820283038A7
:107B58006E616E006F766600696E66006C6E006618
:107B68006E00636F64650064657461696C000D0A7A
:107B780000253031307520005D20002C2000282998
:107B88003A2000205B00636F6465203D2000256972
:107B98000064657461696C73203D200062617564DE
:107BA8000053657269616C0053657269616C3100DC
:107BB8007479706500706172616D00636D6400694D
:107BC8006400686E64007374726D0066696C74009A
:107BD8006C766C0061646448616E646C65720072F6
:107BE800656D6F766548616E646C657200656E756B
:107BF8006D48616E646C657273004A534F4E5374DE
:107C08007265616D4C6F6748616E646C6572006186
:107C18007070006E6F6E6500747261636500696EE6
:107C2800666F007761726E006572726F72007061C4
:107C38006E696300616C6C005A00252B3033643A1E
:107C4800253032750025592D256D2D25645425487C
:107C58003A254D3A2553257A0061736374696D6539
:107C68000000000000000000000000008B620D0012
:107C78007D620D007F620D00000000000000000022
:107C880065630D00A9630D0083630D00095C0D0099
:107C98007D630D0067630D006F630D00A3630D0026
:107CA80077630D0061630D00000000000000000014
:107CB8009F640D0095640D008B640D0041640D00F8
:107CC8007F640D0073640D0067640D005F640D0030
:107CD80055640D004B640D0055680D000000000050
:107CE80000000000E9640D000D650D0019650D0028
:107CF800095C0D00F5640D0001650D00FB640D00C5
:107D080007650D00EB640D00EF640D000000000036
:107D180000000000BD650D0007660D00DF650D0061
:107D2800BF650D00E7650D00EF650D00F7650D00F7
:107D3800FF650D00000000000000000017670D003F
:107D48000D670D0003670D00F9660D00ED660D0067
:107D5800E1660D00D5660D00CD660D00C3660D0009
:107D6800B9660D0055680D00000000000000000015
:107D7800ED670D00F7670D0001680D000B680D0039
:107D880015680D0021680D002D680D0039680D007B
:107D980041680D004B680D0055680D00000000009B
:107DA80000000000000000000000000000000000CB
:107DB80000000000000000000000000000000000BB
:107DC80000000000000000000000000000000000AB
:107DD800000000000000000000000000000000009B
:107DE800000000000000000000000000000000008B
:107DF8000000000000000000000000004300000038
:107E0800C1450D0091470D00A5470D0031490D00F2
:107E1800B9490D00A14E0D006D500D00FD500D002B
:107E280059580D00DD590D00395F0D00495F0D00EF
:107E3800D55F0D00A9640D00A1670D00D9680D007C
:107E4800B5690D00396B0D00BD6B0D00816C0D001F
:087E5800456D0D000000000063
:107E600000000000000000003333934000000000D9
:107E70001E0000000100000000000000617C0D00F9
:107E800000000000A47D0D00C47D0D00E47D0D0008
:107E900000000000000000000000000000000000E2
:107EA000047E0D0000000000000000000000000043
:107EB00000000000000000000000000000000000C2
:107EC00000000000000000000000000000000000B2
:107ED00000000000000000000000000000000000A2
:047EE000E8E10320B2
:107EE400FFFFFFFF00000102030405060708090A5B
:107EF4000B0C0D0E0F101112131415161718191A56
:087F04001B1C1D1E1F2028009C
:047F0C00785634125D
:04000003D0004018D1
:00000001FF
