:02000002D0002C
:1040000000400D009C990D00000005000D00050109
:0840100004019301000000000F
:1040180078920D0009480A49884208B505D0094A2E
:10402800824202D0121A05F0B1F80748074A002167
:10403800121A05F0B6F8014808BD00BF00E00320D9
:10404800A8980D00CCE00320D0E00320F4E703207B
:1040580070B503F09FF8074C074BE41AA408002535
:104068001E46A54204D056F8253098470135F8E792
:1040780070BD00BF98980D0048980D0000F02CBB4B
:1040880008B500F081FABDE8084003F051B802F025
:104098007DBA02F083BA02F081BA0078B0FA80F0F3
:1040A8004009704701230370704703681847012AC5
:1040B80002D0022A02D004E0016002E00B6800B1DD
:1040C800036000207047012A02D0022A02D004E0CF
:1040D800016002E008B10B6803600020704700002F
:1040E8000168034801F11402103101F087BD00BFD7
:1040F80088E2032008B503F0A5FB034902F049FD57
:10410800BDE8084002F0DABB8C920D0010B5836858
:1041180004460BB1C06806E0406828B183680BB953
:1041280003F041FFC3689847012323740020BDE8CA
:10413800104002F047B810B58368044613B1032253
:1041480001469847204610BD38B504464069B0B1CD
:1041580002F000F898B994F824301BB9606908B1E6
:1041680002F000F8A5693DB12846FFF7E4FF2846AC
:10417800FFF78FFF0023A361606901F0FBFF201D9B
:10418800FFF7D9FF204638BD08B501F0B3FF014B52
:10419800186008BD18E703200368C9B29B68184770
:1041A80010B5FF2104460022084602F096FE03F0EF
:1041B80049FB2146BDE8104002F0EBBC70B504464F
:1041C8000D4601F097FF0444AB680BB903F0EBFE12
:1041D800EB6828469847064660B901F08BFFA04275
:1041E80008D203F02FFB044902F0C0FC0A2002F0B9
:1041F8005BFEE9E7304670BD9D920D0010B5084C96
:10420800207958B1074802F0F3FED4ED027AB4EEF3
:10421800E70AF1EE10FA4CBF0120002010BD00BFE4
:10422800D4E00320CCE203201FB5044603F00AFBC8
:104238000B4902F09BFC0B4B039369460A4B029314
:104248004FF47A700094FFF7B9FF04466846FFF709
:1042580072FF03F0F7FA02F090FC204604B010BD9C
:104268009F920D00E9400D00CF400D0070B501F0A0
:1042780041FF274B274E186003F0E4FA4FF4E13171
:1042880003F0D4FA012002F018FE0022114610466D
:1042980002F023FE00F016FC05460FCD34460FC48D
:1042A80095E8070084E80700FFF7A8FF1A4B187085
:1042B80068BB73696BB10121072003F075FD072006
:1042C800012103F082FD73693046013B736100F000
:1042D80019FC0121022003F067FD0121022003F0EF
:1042E80074FD03F01BFE03F0E1FB0C4C0C4801F0DD
:1042F80073FD76210B4801F001FC2046FFF794FF7F
:10430800207320B90848BDE87040FFF749BF70BD69
:1043180070E20320D4E003206CE20320F0E00320E5
:10432800B8E203202CE20320B0920D0008B5054B3B
:104338001B694FF47A70584302F0B6FDBDE8084097
:10434800FFF794BFD4E0032013B5044603F07AFACC
:104358002346114A012102F054FD03F0DFFD082134
:1043680003F0C4FB03F0DAFD2146FFF715FF03F065
:10437800D5FD210AFFF710FF03F0D0FD03F0BDFBC8
:10438800064802F099FE064B00221B680121684688
:1043980002F098FA02B010BDDA920D00CCE20320C8
:1043A8008CE20320034B1B694FF47A705843FFF7E4
:1043B800CBBF00BFD4E0032070B596B007A802F0C9
:1043C800C5F816AC03F03EFA604A079B012102F0DB
:1043D80018FD03F037FA1C2324F81C3D054600217C
:1043E800204602F027F811A90BA802F025FB0B9B29
:1043F800574A01212846574D02F003FD0BA802F049
:10440800D4FA284602F0FAF8064603F01BFA3346B7
:10441800514A012102F0F5FC284602F043F906460C
:1044280003F010FAF3B24D4A012102F0EAFC2846E3
:1044380002F044F9064603F005FA3346484A0121DA
:1044480002F0DFFC284602F045F9064603F0FAF9C7
:104458003346444A012102F0D4FC284602F040F9D0
:10446800054603F0EFF92B463F4A404D012102F083
:10447800C8FC03F0E7F93E4902F078FB03F0E2F9E3
:104488000646284602F0CAFD10EE100A04F03AF873
:1044980041EC100B0221304602F0A8FC03F0D2F9DF
:1044A800344902F063FB03F0CDF90646284602F0D2
:1044B8009FFD10EE100A04F025F841EC100B0221C4
:1044C800304602F093FC03F0BDF92B492B4D02F066
:1044D80060FB204600F0F8F994E80F0085E80F002B
:1044E80003F0B0F90446284600F0FEF90A22014616
:1044F800204602F0B5FB03F0A5F9214902F049FB7B
:10450800284600F02DFA8DED0F0ACDED100A8DED3D
:10451800111A03F097F90446119803F0F3FFCDE957
:104528000401109803F0EEFFCDE902010F9803F0A3
:10453800E9FF144ACDE900010121204602F061FC9F
:1045480007A802F032FA16B070BD00BFF9920D004C
:1045580007930D0023E203201A930D0032930D00F8
:104568004A930D0065930D0078930D00CCE203206B
:104578008B930D0094930D009E930D0074E203201D
:10458800B3930D00C5930D0070B50121072003F00A
:104598001CFC1E4E1E4D1F4C4FF47A7002F084FC1A
:1045A8000021072003F011FCFFF706FFFFF7ECFDE1
:1045B800337E002B184B18BF1D46184B18BF1C46DE
:1045C80003F040F9294602F0D1FA03F03BF9144907
:1045D80002F0CCFA03F036F90A22316902F04AFBFC
:1045E80003F030F90F4902F0C1FA03F02BF9054640
:1045F80001F080FD0C4B19680A22411A284602F086
:1046080001FB2346BDE87040184700BFD4E00320F3
:10461800DE930D0035430D00D9930D00AD430D0019
:10462800E4930D00EC930D0070E2032038B50468A4
:1046380005467CB16368013B63605BB9236820462B
:104648009B689847A368013BA3601BB92368204671
:10465800DB689847284638BDF0B5072085B00E4678
:10466800012103F0B2FB304600F070FF05460FCD84
:10467800154F3C460FC495E8070084E80700384604
:1046880000F040FA03F0DEF8104902F06FFA03F088
:10469800D9F8314602F07DFA0D4B0E491B788DF89A
:1046A800003032463C2302A802F0ACFE03A8FFF714
:1046B800BDFFFFF769FD01F039FF0021072003F076
:1046C80084FB05B0F0BD00BFD4E00320F6930D00D5
:1046D80084E2032008940D00D0B586B0FFF754FD9E
:1046E8000023019300931A462349244801F03EFF12
:1046F80001F024FF224B1B78002B3AD0214802F00E
:1047080077FC8DED030A03F09DF81F4902F02EFA9D
:1047180003F098F89DED030A044610EE100A03F022
:10472800F1FE06460F462046184C47EC106B022156
:1047380002F05CFBE368009332463B461449154897
:1047480001F03CFF144B134A1B7814498DF80030D4
:1047580004A83C2302F056FE05A8FFF767FFFFF701
:1047680013FD01F0E3FEE3684EF660205843FFF7BF
:10477800EBFD06B0D0BD00BF61460D0008940D00EA
:104788006CE20320CCE2032011940D00D4E0032056
:104798001B940D0024E1032084E2032021940D00E2
:1047A80070B5354B354E00251D60354B86B001245C
:1047B8001C7001F007FC334B4FF6FF721D705D80D3
:1047C8009A80022001F01EFE0623194616222E4862
:1047D80001F0FBFA2D4800F077FF21462C4C2D48BC
:1047E80001F0E6F92946204602F0C2FB20462A4C91
:1047F8002A49324603F0D2FB2946204601F007FF3A
:1048080032462749204603F0C9FB2648264C00F0CB
:104818005BF8264B0293264B0593264B049302A97B
:104828004EF66023E5600222201D2360FFF73FFC5F
:10483800059B2361049BE3601F4BE36104F11400B3
:104848004FF4007309221D496561A561246284F84B
:1048580024508DE809001A4B01F074FCFFF794FC12
:1048680002A8FFF768FC32461649204603F096FB7B
:10487800FFF7FCFC06B070BD8CE20320D0E00320FB
:1048880084E2032024E20320B8E203202CE2032080
:10489800CCE2032088E2032023E20320976F0D0077
:1048A80035660D0074E2032090E20320FD400D0000
:1048B800B3400D00B7400D00ED7E0D002A940D00A9
:1048C80015410D0051410D0030B585B0044601F089
:1048D800A7FA684601F0A4FA9DE80F0084E80F00E3
:1048E800204605B030BD00007FB5044603F016FB36
:1048F80003F006F918B903F011FB03F0D7F803F039
:104908000DFB0D2103F0F2F803F008FB03F0F5F8B6
:104918000546F0B901236372E372A07202F092FFB8
:104928000E4902F036F994E80E00204601F091FA9B
:10493800054670B102F086FF2A46064621466846BB
:1049480001F00EFB0099304602F023F9684602F0A8
:104958002CF8B5FA85F0400904B070BD31940D000B
:1049680000B501468BB001F0DDFA0BB05DF804FB31
:1049780008B501F027FB0248BDE8084001F050BA2D
:10498800D4E203207047037823F07F0319430170B2
:10499800704738B504460D46A4B1E16805B119B9A8
:1049A8004B1B5842584105E0284604F02BFCB0FA4E
:1049B80080F0400930B9B4F90A3013B104EB03149C
:1049C800EAE70446204638BD10B50446806801F081
:1049D800E5FD204610BD10B54B688A6810339A4231
:1049E80001D2002010BDA2F110038B60002BF8D07B
:1049F800416819B15C1A24114C8100E00360002160
:104A0800436022F8061C02F8081C42F8041C1846E9
:104A180010BD000010B5037A03F07F03033B052B9C
:104A280020D8DFE803F017170303030A90E80C0007
:104A3800134314BF0120002010BD00220023D0E939
:104A480000014FF0010404F019F808B14FF0000418
:104A5800E0B210BD0168044804F0D4FBB0FA80F05D
:104A6800400910BD002010BD76940D00826810B575
:104A78004AB14368C468A34202D30023836010BDCF
:104A88005C1C4460D15410BD10B504460021FFF7EA
:104A9800EDFFA3683BB194E80600E3684868D31AC1
:104AA80003444B60E260A06810BD00000B780BB9AE
:104AB800036002E0024B036000234360704700BFBD
:104AC8008D490D0070B588B003F014FA1C2201A9B5
:104AD800002001F01FFB019B002B0CDB1C2001F0C8
:104AE80055FD01AC054606460FCC0FC594E80700F6
:104AF80085E8070000E0024E304608B070BD00BFF0
:104B080048E0032010B50446FFF7DCFF03680133D3
:104B1800236002F097FE0B4902F028F802F092FE9B
:104B280021680A2202F09AF802F08CFE02F025F8B9
:104B380003F0E0F921461C220020BDE8104001F0F6
:104B4800F1BA00BF7B940D00033138B521F003049E
:104B58000546204601F01AFD10B101190B4601E087
:104B680001460346A860E860296105F120006B61F1
:104B78000021FFF708FF284638BD837B33B9436817
:104B88005A1C42601B78437301238373407B704730
:104B980070B5044600252046FFF7EFFF0A2803D822
:104BA80009281DD2B0B12FE0202819D02F2802D013
:104BB8000D2829D114E0A5732046FFF7DEFF2A2827
:104BC80002D02F2816D01CE0A57300262046FFF738
:104BD800D4FF10B94FF0010070BD2F2802D10EB1DB
:104BE800A573D8E7A0F12A035E425E41A573EDE7FD
:104BF8000A28D0D0A5732046FFF7BFFF0028F7D1B9
:104C0800E8E74FF0020070BD4FF0000070BD08B536
:104C1800027A02F0200202F0FF031AB10068FFF7DF
:104C2800B8FE08BD184608BDF0B585B08268009288
:104C38000025019593680E46516853605B1A044637
:104C480002910393FFF799FFA57307462046FFF7E4
:104C580094FF8742A57323D010B94FF0010029E0D3
:104C68005C2818D12046FFF788FF0028F5D0752862
:104C780001D0114B05E04FF004001BE0904204D036
:104C880002331A78002AF9D104E0587810B94FF0A5
:104C980002000FE0A57301466846FFF7E7FED5E777
:104CA8006846FFF7F1FE306010B94FF0030001E0ED
:104CB8004FF0000005B0F0BDEA940D00A0F15F03CD
:104CC8001B2B13D9A0F14103192B0FD9A0F12B03EA
:104CD800DBB20E2B04D9A0F12E025042504170478E
:104CE80047F6E57222FA03F3DB07F4D50120704793
:104CF800F0B585B004460E46FFF73FFF27282DD0B4
:104D080022282BD0A268009200250195516893684B
:104D1800536020465B1A02910393FFF72EFF074664
:104D2800D0B1FFF7CBFFA8B139466846A573FFF7A6
:104D38009DFE2046FFF721FF0746FFF7BFFF00282B
:104D4800F2D16846FFF7A0FE002830600CBF0320B0
:104D5800002007E0022005E0012003E0314620465C
:104D6800FFF762FF05B0F0BD2DE9F047051E2DEDF8
:104D7800068B57EC106B34DD9FED458B9FED469B02
:104D88009FED47AB4FF00008EA0725D5DFF8709193
:104D9800594CD9F8003013F0010F5FFA88FA11D195
:104DA8004846FFF77AF968B13FA3D3E9002348469C
:104DB80084ED0A8B84ED0C9B84ED0EABC4E91023C3
:104DC800FFF770F904EBCA0430463946D4E90023EA
:104DD80003F0ECFB06460F466D1008F10108D3D12D
:104DE8004FE09FED338B9FED349B9FED35AB6D42CC
:104DF8004FF00008002D44D0EB073ED5DFF80491B2
:104E08003E4CD9F8003013F0010F5FFA88FA2AD126
:104E18004846FFF742F930B32BA3D3E90023C4E98E
:104E280006232BA3D3E90023C4E908232AA3D3E943
:104E38000023C4E90A232AA3D3E90023C4E90C23E5
:104E480029A3D3E90023C4E90E2329A3D3E9002326
:104E5800484684ED008B84ED029B84ED04ABC4E9E5
:104E68001023FFF71FF904EBCA0430463946D4E98A
:104E7800002303F09BFB06460F466D1008F101085E
:104E8800B8E7BDEC068B47EC106BBDE8F08700BFB8
:104E9800176E05B5B5B89346F5F93FE9034F384D98
:104EA800321D30F94877825A3CBF737FDD4F157544
:104EB8009A9999999999B93F7B14AE47E17A843FB9
:104EC8002D431CEBE2361A3F3A8C30E28E79453E90
:104ED800BC89D897B2D29C3C33A7A8D523F64939C8
:104EE8003DA7F444FD0FA5329D978CCF08BA5B25EA
:104EF800436FAC642806C80A00E00320E8E20320F8
:104F080030E30320E4E203202DE9F84F0B782B2B44
:104F1800044604D02D2B03D10131012501E00131D4
:104F280000250B7803F0DF024E2A02D100226C4BD9
:104F3800C1E0492A01D10022A1E0A3F13002092AE7
:104F480002D92E2B40F0BB80DFF8A4B188460020A0
:104F580000214FF0993A4FF00A0CC6461EF8013B63
:104F6800A3F13002D2B2092A14D88B4508BF824572
:104F780011D30CFB01F3A0FB0C0119440023D2B29E
:104F8800DF43D6438F4208BF864204D38018594175
:104F9800F046E2E723B100234FF0FF36514F0FE010
:104FA800C4E9000103F0CCFA002DC4E902010CBFEA
:104FB800062307238CE000230A2203F04DFF4B460B
:104FC8008F4208BF864203F10109F4D3C8EB0307F7
:104FD80007EB0806434618F8012BA2F1300EBEF184
:104FE800090F36B2F4D92E2A1DD1C6460FF2E809A8
:104FF800D9E900894FF00A0C73460EF1010E1F78AB
:10500800303FFFB2092F0ED8894508BF8045F3D33A
:10501800A0FB0C230CFB0133D01906F1FF3643F13A
:10502800000136B2E8E71A7802F0DF02452A2ED1ED
:105038005A782D2A02D10233012704E02B2A14BF03
:10504800013302330027013B00224FF00A0C13F80A
:1050580001EFAEF1300E5FFA8EF8B8F1090F13D8F0
:105068000CFB02E206EB020EBEF59A7FEFDD002292
:105078002FB115B14FF000431DE000231BE00DB91F
:10508800194B18E0194B16E017B1524200E0002204
:10509800164403F055FA41EC100B3046FFF764FE56
:1050A80051EC100B25B110EE102A01F1004302E07B
:1050B80010EE102A0B46C4E90223082308E0002258
:1050C8000023C4E9002300230022C4E902230023AB
:1050D80023742046BDE8F88F989999999999010009
:1050E8000000F87FFFFF0F000000F07F0000F0FFD6
:1050F800999999192DE9F04397B080460D46FFF725
:105108003CFD00240746A1463846E6B2FFF7D6FD27
:1051180058B13F2C09D006AB88F80E90E7544046AA
:10512800FFF72BFD01340746EEE716AB33440024A6
:1051380003F8404C9DF81830742B09D1052105F16E
:105148000800FFF720FC01220023C5E9002310E036
:10515800662B0CD105F108000521FFF714FC00228D
:105168000023C5E90023701F18BF012024E06E2B1F
:1051780001D1301FF8E706A96846FFF7C5FE9DF87C
:1051880010100729DDE9006703D0082908D006298F
:1051980010D105F10800FFF7F6FBC5E9006707E045
:1051A800DDE9026705F10800FFF7EDFBC5E90067D7
:1051B800204601E04FF0020017B0BDE8F08370B55B
:1051C80088B00C460646FFF7E3FC01A98DF80400F9
:1051D80004A8FFF76BFC049B5BBB059D15F001055C
:1051E80027D13046FFF7C9FC5B280BD104F1080032
:1051F8004021FFF7C8FB256065602146304600F076
:105208003EF80CE07B280CD1202104F10800FFF7C0
:10521800BAFB256065602146304600F096F8C0B2BA
:105228002BE03046FFF7A9FC272805D0222814D107
:1052380002E09DF8040020E003A93046FFF7F4FCE3
:1052480002A98DF8080006A8FFF730FC069B4BB9A9
:10525800079810F0010205D107E021463046FFF714
:1052680049FFDCE79DF8080007E004F10800042185
:10527800039DFFF788FB2560104608B070BD70B528
:10528800037B88B004460E4613B94FF005005AE078
:10529800FFF773FC5B2810D10023A3732046FFF7A8
:1052A80077FC01A98DF8040002A8FFF7FFFB029B19
:1052B800BBB9039BDA0714D416E04FF0020042E0B2
:1052C800237B013B23732046FFF779FF237B8DF86F
:1052D80004000133237301A904A8FFF7E7FB049B2B
:1052E80053B19DF804002EE02046FFF746FC5D28E8
:1052F80020D10020A07326E0059BDB07F1D42046CF
:10530800FFF746FC01A98DF8040006A8FFF7CEFBBD
:10531800069B002BE5D1079B13F00105E1D1204640
:10532800FFF72BFC5D28E4D02046FFF726FC2C284D
:10533800C3D1A57321683046FFF74DFB014600280D
:10534800BED14FF0030008B070BDF0B5037B8FB03D
:1053580004460F4613B94FF0050098E0FFF70DFC1F
:105368007B287BD10023A3732046FFF711FC6946F5
:105378008DF8000002A8FFF799FB029B002B4DD186
:10538800039810F0010549D12046FFF7F6FB7D2868
:1053980017D1A57328467AE02046FFF7EEFB2C28A4
:1053A8005CD10023A3732046FFF7F2FB69468DF812
:1053B80000000CA8FFF77AFB0C9B7BBB0D9BDB075F
:1053C8002CD421683846FFF706FB054610B94FF084
:1053D80003005CE001A92046FFF78AFC69468DF8C6
:1053E800000004A8FFF762FB049BBBB9059BD80724
:1053F80014D42B7A63F07F032B72019BEB60204659
:10540800FFF7C6FB69468DF8000006A8FFF74EFBBC
:10541800069B1BB9079B13F0010602D09DF80000FC
:1054280035E02046FFF7A9FB3A2817D1237BA6735E
:10543800013B237329462046FFF7C1FE237B8DF8E5
:10544800000001332373694608A8FFF72FFB089B68
:10545800002BE3D1099BD90703D5DFE74FF0020002
:1054680015E02046FFF794FB69468DF800000AA86E
:10547800FFF71CFB0A9B002BD0D10B9BDA07CDD47E
:105488002046FFF77AFB7D2886D10020A0730FB055
:10549800F0BD00000000000030B587B000284BD0F8
:1054A800037A03F07F03033B052B44D8DFE803F0BE
:1054B80009090303062DD0E900011AE0D0E900012B
:1054C8000EE001686846FFF71FFD9DF81030072BB6
:1054D800DDE9000104D0082B14D0062B2BD108E0FD
:1054E80000234FF000428B4208BF824223D3404240
:1054F80022E000238B426FF0004208BF824238BF8F
:10550800002019E0DDE9024501E0D0E9004500226C
:105518000D4B2046294603F0CFFA68B108A3D3E91A
:1055280000232046294603F0BDFA28B12046294623
:1055380003F0ECFA00E0002007B030BDAFF30080C4
:105548000000C0FFFFFFDF410000E0C110B590B0D0
:105558004FF000020446DE2106A8FFF7F5FA089B83
:10556800099300210B9B0A930EA8FFF70CFA424BF4
:10557800002C08BF1C4608AB8DE8180002933223A4
:105588000CA98DF80C30684600238DF80E30FFF713
:1055980016FE1C2000F0FAFF384904460CA8FFF755
:1055A80036FBFFF779FF364920600CA8FFF72FFB81
:1055B80010B1FFF72FFAFFE7207132490CA8FFF767
:1055C80026FB002831D0037A03F07F03033B052B29
:1055D8002BD8DFE803F00D0D03030625D0E9000101
:1055E80018E0D0E9000103F0F1FB80F000401DE075
:1055F80001686846FFF788FC9DF81030072BDDE945
:10560800000104D0082B08D0062B0ED102E040423E
:1056180061EB410103F0DAFB08E0DDE9020101E09A
:10562800D0E9000103F0BAFA00E000201649A060B2
:105638000CA8FFF7ECFAFFF72FFF1449E0600CA85D
:10564800FFF7E5FAFFF728FF114920610CA8FFF7DB
:10565800DEFAFFF721FF0F4960610CA8FFF7D7FAC0
:1056680010B1FFF7D7F9FFE72076089800F096FF0A
:10567800204610B010BD00BFF4940D008C940D00AE
:1056880094940D009D940D00AD940D00BD940D00F3
:10569800C7940D00D9940D0010B5084C00F092FC89
:1056A8004FF00002DE212046FFF74EFA2046044A5A
:1056B8000449BDE8104002F071BC00BF38E3032084
:1056C800D0E00320D1490D00FF2202734273827398
:1056D800C27370472DE9F04190F90F300133054648
:1056E8000F4604D11648BDE8F04101F0D9B80726A5
:1056F80000244FF0010895F90F00002180B202F054
:1057080064FB95F90D0008FA06F1394080B202F001
:105718005CFB95F90F00012180B202F056FB95F968
:105728000E00640080B2E4B202F068FB08B144F0F5
:10573800010416F1FF36DED22046BDE8F08100BF35
:10574800F8E6032070B590F90C30013304460E4694
:10575800154616D102F0E2FB217802F0C3F902F0F7
:10576800DDFB036831469B68984702F0D7FB036866
:1057780029469B68984702F0D1FBBDE8704002F0CB
:10578800BCB990F90F3001330ED1174801F016F863
:105798002821154801F070F80121134801F020F87C
:1057A8000021114801F01FF894F90C00002180B283
:1057B80002F00BFB06F07F012046FFF78BFF29461E
:1057C8002046FFF787FF94F90C00012180B202F010
:1057D800FCFA94F90F30013304D10348BDE8704056
:1057E80000F0F1BF70BD00BFF8E60320F8B590F8EF
:1057F80038509DF818609DF81CE09DF8207061F302
:10580800871562F3020563F3C50590F83C3080F80C
:10581800385066F3471380F83C3090F834306EF314
:10582800C503044667F3020380F8343006F0070224
:10583800F221FFF787FF94F8342002F0070102F005
:10584800380343EA411343EAD2122046F521FFF711
:1058580079FF94F8382002F0070102F0380343EA90
:10586800411343EA92122046F421BDE8F840FFF7BD
:1058780069BF000038B590F90C30013304460D4675
:105888001FD102F04BFB217802F02CF902F046FB05
:10589800036829469B68984702F040FB02F02DF9FF
:1058A80002F03CFB0122217802F00FF902F036FBEE
:1058B80003685B699847C5B202F030FB02F01DF936
:1058C8002FE090F90F3001330ED1174800F076FF22
:1058D8002821154800F0D0FF0121134800F080FF6F
:1058E8000021114800F07FFF94F90C00002180B2DC
:1058F80002F06BFA45F080012046FFF7EBFE00212D
:105908002046FFF7E7FE054694F90C00012180B216
:1059180002F05BFA94F90F30013302D1024800F02B
:1059280052FF284638BD00BFF8E6032038B590F985
:105938000C30013305460C4627D102F0EFFA2978DE
:1059480002F0D0F802F0EAFA036821469B6898470B
:1059580002F0E4FA02F0D1F802F0E0FA0222297823
:1059680002F0B3F802F0DAFA03685B699847044674
:1059780002F0D4FA03685B69984740EA042084B2CD
:1059880002F0CCFA02F0B9F836E090F90F300133A2
:105998000ED11A4800F012FF2821184800F06CFFB9
:1059A8000121164800F01CFF0021144800F01BFFDD
:1059B80095F90C00002180B202F007FA44F080014A
:1059C8002846FFF787FE00212846FFF783FE0021BF
:1059D80004462846FFF77EFE40EA042084B295F983
:1059E8000C00012180B202F0F0F995F90F30013373
:1059F80002D1024800F0E7FE204638BDF8E6032051
:105A080008B5FFF793FF40BA80B208BD38B58821C2
:105A18000446FFF7F5FF8A2120822046FFF7F0FFB2
:105A28008C2160822046FFF7EBFF8E21A082204662
:105A3800FFF7E6FF9021E0822046FFF7E1FF922181
:105A480020832046FFF7DCFF942160832046FFF780
:105A5800D7FF9621A0832046FFF7D2FF9821E08345
:105A68002046FFF7CDFF9A2120842046FFF7C8FF84
:105A78009C2160842046FFF7C3FF9E21A084204616
:105A8800FFF7BEFFA121E0842046FFF7F3FEE121E6
:105A980084F828002046FFF7B3FFE32160852046FD
:105AA800FFF7E8FEE42184F82C002046FFF7E2FE29
:105AB800E52105462046FFF7DDFE00F00F0040EA2D
:105AC8000510E085E6212046FFF7D4FEE5210546CE
:105AD8002046FFF7CFFE001140EA05102086E72197
:105AE8002046FFF7C7FE84F8320038BD08B5F32119
:105AF800FFF7C0FE00F0010008BD000030B5044605
:105B0800017090F90C00421C85B004D102F006FA2D
:105B180001F0CCFF21E0012180B202F056F994F99E
:105B28000C00012180B202F03FF994F90F00431CE8
:105B380003D11D4800F042FE0FE0012180B202F0BF
:105B480033F994F90D00012180B202F02DF994F98E
:105B58000E00002180B202F027F9D0212046FFF77D
:105B680089FE60281DD12046B622E021FFF7EAFD14
:105B78004FF4967001F098F92046FFF7B7FF0546F5
:105B880008B16420F6E72046FFF740FF05232046CA
:105B98000295019500931A460321FFF727FE01207D
:105BA80000E0002005B030BDF8E6032000F00ABA96
:105BB80038B504460D46A8B2002102F0F5F8256074
:105BC800204638BDF0B500240827944212DA94FB29
:105BD800F7F6094B0D5D2340002BBEBF03F1FF33E1
:105BE80063F00703013305FA03F3855D2B438355FF
:105BF8000134EAE7F0BD00BF070000802DE9F04F4F
:105C0800002300240B608046146093B000880E4681
:105C18002146154602F0D9F80121B8F8000002F033
:105C2800C3F84FF4FA7001F03FF92146B8F80000C4
:105C380002F0BAF82146B8F8000002F0F2F800F0D5
:105C480051FA4FF49669074601224CF24F3AB8F8D8
:105C58000000019202F0D2F8B4FBF9F310F1000B46
:105C680009FB134418BF4FF0010BB4F5167F84BF2E
:105C780012A95B18019A88BF03F834BC934507D072
:105C8800632C01D83F1B03E0B4F5617F88BF3F193F
:105C980000F028FAC41B54455A46D8D900240522D6
:105CA80005A903A88DF80C40FFF78CFF04220DF11D
:105CB80019010DF10D008DF80D40FFF783FF0C223F
:105CC8000DF11D0104A8ADF81040FFF77BFF042279
:105CD8000DF129010DF10E008DF80E40FFF772FF4E
:105CE80004220DF12D010DF10F008DF80F40FFF783
:105CF80069FF9DF80F30ADF8124083F00F030DF1E6
:105D080012000C220DF131018DF80F30FFF75AFF08
:105D1800BDF812009DF80C3080F47F601B2B80F0DA
:105D28000F0022D1BDF810209DF80D109DF80E70BF
:105D380002F00F030B4403EB122303EB121303F0DF
:105D48000F039F4211D190420FD19DF80F708F42DF
:105D58000BD102F0C5FB0022064B02F051FD02F008
:105D68001DFF30602F60012000E0204613B0BDE821
:105D7800F08F00BF0000244000F024B910B503687C
:105D88002F2B044604D9074A00210A2000F032FBD1
:105D980023681F2B83BF03F01F03236002484FF0C3
:105DA800A04010BDDD600D000003005007B502AB38
:105DB80043F8040D1846FFF7E1FF019A01239340C9
:105DC800C0F8083503B05DF804FB10B50372012371
:105DD8008171C271037410BD10B500210446807929
:105DE80001F0E2FF074AA37912681B01D118D05CC1
:105DF8004B7803F01F0343EA4010FFF7D7FF002357
:105E0800E36010BD60E3032008B500F0DBF8014B48
:105E1800186008BD60E303200368C9B29B6818478F
:105E2800704738B514460D4602F078F80D2101F098
:105E38005DFE02F073F82946FFF7EEFF02F06EF8F8
:105E48002146FFF7E9FF02F069F8BDE8384001F0A4
:105E580054BE30B585B004AD05E90E009DF80D506F
:105E680004462A460921FFF7DCFF9DF80E2020464C
:105E78000A21FFF7D6FF20469DF80F200B21FFF7D8
:105E8800D0FFEB064CBF4FF066534FF06253002033
:105E9800E36005B030BD70B51E4615460C4602F0ED
:105EA8003DF80D2101F022FE02F038F82146FFF7F7
:105EB800B3FF02F033F801F020FE02F02FF80D21B5
:105EC80001F014FE02F02AF82A460D2101F000FE26
:105ED80002F024F803681B69984785420BD13446C1
:105EE800A31B9D4207DD02F019F803685B69984718
:105EF80004F8010BF4E702F011F8BDE8704001F076
:105F0800FCBD38B51546044613460846092200214B
:105F1800FFF7C1FF2B8823606B886360AB88A360A1
:105F2800204638BD10B58AB004460A46014604A882
:105F3800FFF7E7FF9DED057AD4ED037AF8EEC70A7F
:105F48009DED067AB8EEC71A9DED047AB8EEC70A39
:105F580060EEA70A20EE270A21EE271A0AB010BD24
:105F680030B589B0044615460C4904A800F064FD14
:105F78000A222946684600F09DFD694604A800F0FB
:105F8800C3FD0146204600F079FD684600F00DFD8E
:105F980004A800F00AFD204609B030BDF5940D00B4
:105FA80000F010B808B5024B1B689B68019308BD48
:105FB8006802030008B5024B1B68DB68019308BD43
:105FC8006802030008B5024B1B681B68019308BDF3
:105FD8002C02030008B5024B1B689B68019308BD9F
:105FE8002C02030008B5024B1B68DB68019308BD4F
:105FF8002C02030008B5024B1B681B69019308BDFE
:106008002C02030008B5024B1B685B69019308BDAD
:106018002C02030008B5024B1B68DB6C019308BD1A
:106028002C02030008B5024B1B681B68019308BDCE
:106038003002030008B5024B1B685B68019308BD7A
:106048003002030008B5024B1B689B68019308BD2A
:106058003002030008B5024B1B68DB68019308BDDA
:106068003002030008B5024B1B681B69019308BD89
:106078003002030008B5024B1B685B69019308BD39
:106088003002030008B5024B1B68DB69019308BDA9
:106098003002030008B5024B1B681B6A019308BD58
:1060A8003002030008B5024B1B685B6A019308BD08
:1060B8003002030008B5024B1B685B68019308BDFA
:1060C8001802030008B5024B1B689B68019308BDC2
:1060D8001802030008B5024B1B68DB68019308BD72
:1060E8001802030008B5024B1B681B69019308BD21
:1060F8001802030008B5024B1B685B69019308BDD1
:106108001802030008B5024B1B689B6A019308BD7F
:106118001802030008B5024B1B685B6C019308BDAD
:106128001802030008B5024B1B689B6C019308BD5D
:106138001802030008B5024B1B689B6E019308BD4B
:106148003402030008B5024B1B685B68019308BD65
:106158004802030008B5024B1B689B68019308BD01
:106168004802030008B5024B1B681B69019308BD70
:106178004802030008B5024B1B685B69019308BD20
:106188004802030008B5024B1B681B6B019308BD4E
:106198004802030008B5024B1B68DB6B019308BD7E
:1061A8004802030008B5024B1B681B6C019308BD2D
:1061B8004802030008B5024B1B685B6C019308BDDD
:1061C8004802030008B5024B1B68DB6E019308BD4B
:1061D8004802030008B5024B1B685B69019308BDC0
:1061E8006402030008B5024B1B681B68019308BDD5
:1061F8003C02030008B5024B1B68DB68019308BD2D
:106208003C02030008B5024B1B681B69019308BDDB
:106218003C02030008B5024B1B685B69019308BD8B
:106228003C02030008B5024B1B689B69019308BD3B
:106238003C02030008B5024B1B68DB69019308BDEB
:106248003C02030008B5024B1B681B6A019308BD9A
:106258003C02030008B5024B1B689B6A019308BD0A
:106268003C02030008B5024B1B68DB68019308BDBC
:106278002802030008B5024B1B685B69019308BD3F
:106288002802030008B5024B1B689B69019308BDEF
:106298002802030008B5024B1B68DB69019308BD9F
:1062A8002802030008B5024B1B681B6A019308BD4E
:1062B8002802030008B5024B1B685B6A019308BDFE
:1062C8002802030008B5024B1B689B6A019308BDAE
:1062D8002802030008B5024B1B68DB6A019308BD5E
:1062E8002802030008B5024B1B681B6B019308BD0D
:1062F8002802030008B5024B1B685B6B019308BDBD
:106308002802030008B5024B1B681B6C019308BDEB
:106318002802030008B5024B1B689B6C019308BD5B
:106328002802030008B5024B1B68DB6C019308BD0B
:106338002802030008B5024B1B681B68019308BDBF
:106348004C02030008B5024B1B685B68019308BD4B
:106358004C02030008B5024B1B681B69019308BD7A
:106368004C02030008B5024B1B685B69019308BD2A
:106378004C02030008B5024B1B689B69019308BDDA
:106388004C02030008B5024B1B68DB69019308BD8A
:106398004C02030008B5024B1B681B6A019308BD39
:1063A8004C02030008B5024B1B685B68019308BDEB
:1063B8006002030008B5024B1B689B68019308BD87
:1063C8006002030008B5024B1B68DB68019308BD37
:1063D8006002030008B5024B1B689B69019308BD66
:1063E8006002030008B5024B1B68DB69019308BD16
:1063F8006002030008B5024B1B685B6B019308BD84
:106408006002030008B5024B1B685B68019308BD76
:106418002002030008B5024B1B685B69019308BDA5
:106428002002030008B5024B1B689B69019308BD55
:106438002002030008B5024B1B681B6B019308BDC3
:106448002002030008B5024B1B68DB6C019308BDF2
:106458002002030008B5024B1B685B6D019308BD61
:106468002002030008B5034B1B68D3F8883001935A
:1064780008BD00002002030008B5034B1B68D3F8D1
:106488009430019308BD00002002030008B5024BB8
:106498001B685B68019308BD4002030008B5024B06
:1064A8001B689B68019308BD4002030008B5024BB6
:1064B8001B68DB68019308BD4002030008B5024B66
:1064C8001B681B69019308BD4002030008B5024B15
:1064D8001B685B69019308BD4002030008B5024BC5
:1064E8001B689B69019308BD4002030008B5024B75
:1064F8001B68DB69019308BD4002030008B5024B25
:106508001B681B6A019308BD4002030008B5024BD3
:106518001B681B6B019308BD4002030008B5024BC2
:106528001B685B6B019308BD4002030008B5024B72
:106538001B689B68019308BD4402030008B5024B21
:106548001B68DB68019308BD4402030008B5024BD1
:106558001B68DB69019308BD4402030008B5024BC0
:106568001B681B6A019308BD4402030008B5024B6F
:106578001B685B6A019308BD4402030008B5024B1F
:106588001B68DB6B019308BD4402030008B5024B8E
:106598001B681B68019308BD1C02030008B5024B69
:1065A8001B685B68019308BD1C02030008B5024B19
:1065B8001B689B68019308BD1C02030008B5024BC9
:1065C8001B68DB68019308BD1C02030008B5024B79
:1065D8001B685B6A019308BD1C02030008B5024BE7
:1065E8001B68DB6A019308BD1C02030008B5024B57
:1065F8001B681B6B019308BD1C0203000120704738
:1066080008B501F0ABFCBDE8084001F07DBA10B553
:106618000446017009B1FFF7F3FF204610BD08B525
:1066280001F09CFCBDE8084001F077BA10B503788A
:1066380004460BB1FFF7F3FF204610BD10B5044622
:106648000068FFF7ECFF204610BD37B502AC0D46D9
:1066580044F8040DFFF7D4FF01F080FC6B2101F032
:1066680045FA01F07BFC036829469B68984701F0CE
:1066780075FC012101F03DFA01F070FC01231A4676
:106688006B2101F02AFA01F069FC03685B699847FD
:1066980005462046FFF7D2FFE8B203B030BD00211F
:1066A800FFF7D3BF08B5FFF7FAFF034B00F003006D
:1066B80033F8100008BD00BF02950D0008B5012190
:1066C800FFF7C3FF024B00F00E0033F8100008BDBF
:1066D80012950D000221FFF7B8BF0421FFF7B5BFDF
:1066E80010B5FFF7FAFF02234FF45B62102140FA5E
:1066F80003F4013304F00104082B01FB04224FEAE0
:106708004101F4D190B210BD002211464068FFF754
:10671800F5BE002211464068FFF700BF002240681E
:10672800FFF7F4BE002281F001014068FFF7DEBEEA
:1067380000231A4619464068FFF7D0BE00231A46C0
:1067480019464068FFF7C2BE002211464068FFF7AD
:10675800B5BE002211464068FFF7A0BE0022022104
:106768004068FFF7A3BE00231A464068FFF78EBEB5
:10677800024B03225A60024A1A60704764E30320FE
:1067880038950D00704710B50446FDF782FC204689
:1067980010BD000070B5084B0360044600250E4686
:1067A80040F80C5FFFF7EEFC30462671FFF76AFCF5
:1067B800A560204670BD00BF6C950D004FF6FF71B7
:1067C8000079FFF72FBC10B50446C068FFF7E2FC5C
:1067D800E068FFF7E7FC2079BDE81040FFF72ABC26
:1067E8000079FFF72FBC0079FFF734BC054A002376
:1067F800995C814202D00133082BF9D1581CC0B2F0
:10680800704700BF74950D00400830B5186000242B
:1068180018688842E5B206D90134082C02D040082D
:106828001860F5E70725024B5B5D137030BD00BFAC
:1068380074950D0070B588B0067902FB01F5044621
:106848001422002103A802F0ACFC0B2303A9304654
:106858000022ADF80C30FFF725FC02AB0DF1070262
:1068680029460498FFF7D0FF20799DF80710FFF715
:10687800F9FB029808B070BD38B504460846A5680B
:106888004DB1FFF7B3FF012225FA00F12046BDE81C
:106898003840FFF7CFBF2079BDE83840FFF7E2BBAB
:1068A80008B50079FFF7E6FBC0B208BD0079FFF72D
:1068B800F1BB014600228C20FFF73CBC0020FFF70B
:1068C800F8BF000010B50446084611461A460023D2
:1068D800FFF7A8FD064B00221A704FF6FF7258808A
:1068E8009A801A689B882260A380204610BD00BF4A
:1068F8006CE30320044B00204FF6FF721870588099
:106908009A80FFF77FBD00BF6CE3032010B50446F3
:1069180002F0A5FC013823182046984206D20278D6
:10692800197800F8011B03F80129F6E710BD70B5C6
:106938000C46911E222920D82546294610B9234401
:1069480030220EE0B0FBF2F602FB1600C1B205F8E9
:10695800011B092894BF3031573105F8011C304616
:10696800EBE7994202D201F8012BFAE7002320460F
:106978000B70FFF7CBFF204670BD002070BD38B507
:10698800031E0C4615460BDAB3F1004F4FF02D02EB
:1069980014BF5842184601230A702A46194400E0D9
:1069A8000123FFF7C4FF204638BD10B50446006830
:1069B800FFF7F4FD204610BD10B50446006808B185
:1069C800FFF7ECFD00232360A360636010BD38B5BA
:1069D80004460D4600680131FFF7E8FD10B184E870
:1069E8002100012038BD10B50368044613B143687F
:1069F8008B4207D22046FFF7EAFF20B1A3680BB904
:106A080022681370012010BD70B50E461146044669
:106A18001546FFF7E8FF18B92046FFF7CDFF09E054
:106A28002A463146A560206802F0B0FB2268A368B8
:106A38000021D154204670BD38B5002304460360B8
:106A48004360836003730D4639B1084602F007FCC2
:106A5800294602462046FFF7D7FF204638BD884220
:106A680010B50B46044607D0096819B19A68FFF7B4
:106A7800CBFF01E0FFF7A0FF204610BD10B50023B3
:106A880004460360436083600373FFF7E8FF204612
:106A980010BD38B505460C4641B1084602F0DFFB8B
:106AA800214602462846FFF7AFFF01E0FFF784FFC3
:106AB800284638BD10B5044600238AB023606360B9
:106AC800A3602373084601A9FFF759FF01A92046CF
:106AD800FFF7DFFF20460AB010BD70B504460E462A
:106AE80009B9002070BD6AB18368D5182946FFF737
:106AF8007AFF0028F5D02068A3683146184402F0D0
:106B08008BFBA560012070BD10B58A680968044632
:106B1800FFF7E3FF10B92046FFF74EFF204610BDF0
:106B2800F8B506460D468F180024BD420CD03368D0
:106B380015F8011B9B6830469847002801DB044480
:106B4800F3E7002C08BF04462046F8BD70B505469B
:106B58000C46084649B102F082FB2B6802462146E2
:106B68002846DB68BDE87040184770BD08B5FFF7D8
:106B7800EDFF08BD03689B68184738B50D21054629
:106B8800FFF7F8FF0A2104462846FFF7F3FF2044E1
:106B980038BD38B50546FFF7D9FF04462846FFF744
:106BA800ECFF204438BD30B58BB00B4600218DF882
:106BB8002410012A98BF0A220DF12304B3FBF2F531
:106BC80005FB123303F0FF03092B94BF303337332F
:106BD800DBB2214604F801392B46002DEED1FFF730
:106BE800B5FF0BB030BD10B42AB903685DF8044B8B
:106BF8009B68C9B21847D2B25DF8044BFFF7D3BF00
:106C0800FFF7F1BF38B50546FFF7EDFF0446284604
:106C1800FFF7B3FF204438BD2DE9F04107460E4683
:106C280015462AB90368C9B29B68BDE8F041184700
:106C38000A2A02D1002901DA04E0D2B2BDE8F04103
:106C4800FFF7B1BF2D21FFF795FF2A460446714291
:106C58003846FFF7A8FF2044BDE8F081FFF7DCBF06
:106C680038B50546FFF7D8FF04462846FFF785FFE5
:106C7800204438BD38B50546FFF7CEFF0446284600
:106C8800FFF77BFF204438BD2DE9F04757EC106B28
:106C980082460D4610EE102A3B4610EE100A394681
:106CA80001F01EFF08B1484912E027F000494FF0F3
:106CB800FF32464B3046494601F012FF68B94FF0A3
:106CC800FF32424B3046494601F0ECFE28B94049B4
:106CD8005046FFF73BFFBDE8F0874FF060423D4B61
:106CE8003046394601F0F2FE08B13B49F0E74FF073
:106CF80060423A4B3046394601F0CAFE0028F4D1CA
:106D0800002200233046394601F0C2FE40B12D2151
:106D18005046FFF72FFF07F1004304461F4600E0E7
:106D280004462F494FF0000800205FFA88F39D427F
:106D380006D900222B4B01F063FD08F10108F4E7A6
:106D480032463B4601F080FA0F46064601F006FF40
:106D58000A22014680465046FFF725FF04447DB3CA
:106D6800404601F0ADFB02460B463046394601F07D
:106D780069FA06460F4650461B49FFF7E7FE0444EA
:106D8800184B00223046394601F010FC0F460646E3
:106D980001F0BCFE0A22014680465046FFF73CFF40
:106DA8000444404601F09CFB02460B4630463946F7
:106DB80001F048FA013D15F0FF0506460F46DFD100
:106DC8002046BDE8F08700BF7C950D00FFFFEF7FF0
:106DD80084950D00FFFFEF4180950D00FFFFEFC187
:106DE8000000E03F000024409D920D0038B5C9B274
:106DF8000546FFF749FF04462846FFF7BEFE204434
:106E080038BD0CB42DE9F04387B000AF07F1380462
:106E1800054654F8049B3C600E4623464A46142116
:106E2800381DFFF7D3FB132805D8391D2846FFF76F
:106E38008DFE044613E000F1080323F00703E8463B
:106E4800ADEB030D411C23464A4668463C60FFF7FC
:106E5800BDFB69462846FFF779FE0446C5461EB1C4
:106E68002846FFF78AFE044420461C37BD46BDE885
:106E7800F04302B070470B68036013B15A680132DF
:106E88005A607047014B024A1A60704774E3032046
:106E98003B960D00024B1A68024B1A60704700BF00
:106EA80064E0032078E303200021FFF7B3BA10B5AC
:106EB8000446FDF740F9204610BD10B50446FFF71B
:106EC80089FA844208D01CB1BDE81040FFF772BAB5
:106ED800BDE81040FFF776BA10BD70B505460E46FE
:106EE8001446FFF777FA50B144EA062040EA054015
:106EF800FFF758FAE720BDE87040FFF773BA70BD96
:106F080013B50B46044603C88DE8030093E8030055
:106F180084E803009DE8030083E8030002B010BD85
:106F28000348044A04490023836001F037B800BFCE
:106F38007CE30320D0E00320B76E0D00090941EA85
:106F4800001007EE900AB8EEE70ADFED027A80EE4D
:106F5800270A704700004844006800F0D5BD10B506
:106F68000446016002710AB1FFF7F6FF204610BD22
:106F780038B504460D4600F0F1FF2A460146204682
:106F8800FFF7EDFF204638BD006800F0C6BD10B51C
:106F9800037904460BB1FFF7F7FF204610BDF8B59B
:106FA800044616461D460F46FFF7D6FF20683621D1
:106FB80000F09CFD2068036839469B6898470121CA
:106FC800206800F096FD022236210123206800F097
:106FD80084FD206803685B699847307020680368FF
:106FE8005B69984728702046BDE8F840FFF7CCBF9A
:106FF80007B502AB00228DF8062003F8012D022107
:107008000DF10602FFF7CBFF9DF807109DF806006B
:1070180003B05DF804EBFFF791BF000007B502ABC2
:10702800002203F8012D8DF8062004210DF1060237
:10703800FFF7B5FF9DF8070001F052FA0022094B4F
:1070480001F0B4FA01F0AAFD9DF8063000EE103AFE
:1070580007EE900AB8EEC00A37EE800A03B05DF872
:1070680004FB00BF0000703F13460A460C21FFF7DF
:1070780096BFF8B5044616461D460F46FFF76CFF47
:107088002068362100F032FD2068036839469B6885
:1070980098472068036831469B68984720680368CA
:1070A80029469A6890472068012100F022FD204671
:1070B800BDE8F840FFF768BF13B50446FFF74CFF7B
:1070C80002AA002302F8013D0DF1060120468DF8C1
:1070D8000630FFF7C9FF9DF807309DF8062043F0FA
:1070E80080030C212046FFF7C4FF2046FFF74CFF22
:1070F80002B010BD08B50C4B33B100F0A3FB036818
:107108001B699847002809DC084B63B100F058FC5C
:1071180003681B699847002803DC08BDAFF30080AB
:10712800F2E7AFF3008008BD000000000000000097
:1071380008B5FFF7DFFFFEF7DDFF014B186008BD5C
:1071480018E7032007B5002300931A466FF077016C
:10715800FFF792F903B05DF804FB000007B5438818
:107168000A2B08D0502B09D1094B1B683BB103B03F
:107178005DF804EB1847FFF7E5FF06E000230093EE
:107188001A466FF07701FFF777F903B05DF804FB53
:107198008CE3032010B5FEF78DFF044602F00AF8D1
:1071A800074B13B12046AFF3008000210448FFF7D6
:1071B800E5F900210348BDE81040FFF753B900BFC7
:1071C8000000000065710D0070470020704710B581
:1071D8000446FCF75EFF204610BD08B508B1FFF76E
:1071E800F6FF08BD38B5C468D4B12378022B02D1A4
:1071F800E068FFF7D3F965682DB12846FCF79BFFD7
:107208002846FCF746FFA5682DB12846FCF793FFF2
:107218002846FCF73EFF2046BDE83840FCF739BF5A
:1072280038BD13B5044691E8050000234B600B6098
:107238002060626001A801930093FDF7F7F92046EA
:1072480002B010BDF7B50C4602AD54F8043B45F842
:10725800083D06460F4601A82146FFF70CFE2946C1
:107268003046FFF7DEFF01A8FDF7E0F92046FDF7FD
:10727800DDF93846FCF70DFF304603B0F0BD8268F3
:1072880010B50AB900F08FFEC368BDE81040184772
:1072980008B5006800F11001FFF7F1FF08BD82682A
:1072A80010B50AB900F07FFEC368BDE81040184762
:1072B80008B5006800F11001FFF7F1FF08BD38B507
:1072C800002383608B6804460D462BB10222984741
:1072D800EB68E360AB68A360204638BD2DE9F04158
:1072E8004FF69C7386B00468B1F904208B800023A4
:1072F8000F688DF800300B604FF00200D4E84F1F84
:10730800994203D1C4E8450F002DF7D102D08DF87A
:1073180000106AE014F10C051EBFE76022821F46C8
:107328000123BFF35F8F0020637004F10803BFF3EC
:107338005F8F53E8006F43E80002002AF9D1BFF3DA
:107348005F8F002E51D0FFF77DF820B129463046D7
:10735800FFF795FF43E031466846FFF7B0FFE06866
:10736800B4F9105008B101F05FFF04901020ADF897
:107378001450FCF78CFE054630B34FF00008C0F8F7
:1073880008801820FCF783FE0446C0B1C0F80880C6
:1073980001466846FFF7B4FD029BA268A360039B01
:1073A8000292E268E360BDF81430A3824FF69C7342
:1073B800ADF81430049B03922361CDF810800E4B76
:1073C800EB600E4B2C60AB600498FFF7E7F868465B
:1073D800FCF7B1FE002229460948FFF73BF8304682
:1073E800FCF7A9FE3046FCF754FE3846FFF7D6F8FE
:1073F80006B0BDE8F08100BF99720D00F5740D006C
:10740800157A0D002DE9F04F8BB007AD4FF0000B4A
:107418000646994614200C230F4690469DF850A026
:10742800C5F804B0C5F808B00793FCF730FE044669
:1074380038B180F800B080F801B0C0F804B0C0F8E6
:1074480008B00023102003940493FCF720FE28B111
:10745800012343608360234B0360C4600490224B84
:1074680008930820FCF713FE044628B1039B40F854
:10747800043B04A9FFF7FFFC00955FFA8AF34A462C
:10748800414638460994FFF769F8B8B9039B5B7819
:1074980003F0FF0293B94FF69C7305A903A8059260
:1074A800ADF81830FFF71AFF0598FFF777F805A829
:1074B8000999FFF7C7FE06A8FDF7B8F8039B0593DF
:1074C80004A906A8FFF7D7FC05A93046FFF7A9FECF
:1074D80006A8FDF7ABF804A8FDF7A8F830460BB0EE
:1074E800BDE8F08F98960D005D760D00022AF8B57C
:1074F800044606D0032A17D0012A20D10B6803605E
:107508001DE018200E68FCF7C2FD054650B1314653
:10751800FFF7D5FE3069B6F9147008B101F084FEA2
:107528002861AF8225600AE0046844B12069FFF74A
:1075380035F82046FCF7FFFD2046FCF7AAFD0020A1
:10754800F8BD38B5002383608B6804460D462BB11F
:1075580002229847EB68E360AB68A360204638BD19
:10756800022A70B5044606D0032A11D0012A17D181
:107578000B68036014E014200E68FCF788FD0546CC
:1075880020B13146FFF7DDFF337C2B74256007E01F
:1075980004682CB12046FCF7CEFD2046FCF779FDA7
:1075A800002070BDF0B5002387B00C46BFF35F8F95
:1075B80050E8006F40E80032002AF9D1BFF35F8F2E
:1075C800002E3ED01846FEF73DFF074620B1214663
:1075D8003046FFF764FE2EE0314601A8FFF7B1FF01
:1075E80023788DF814301020FCF751FD0546D0B1F2
:1075F80087601420FCF74BFD044678B1876001468C
:1076080001A8FFF77DFC039BA268A360049B03927B
:10761800E268E3609DF81430049223740A4BEB602F
:107628000A4B2C60AB6001A8FCF785FD00222946B7
:107638000748FEF70FFF3046FCF77DFD3046FCF7A4
:1076480028FD07B0F0BD00BFB9720D0069750D00C7
:10765800157A0D0030B585B004460D4668461146CA
:10766800FFF7F0FD7CB124B228460DB101F0DCFD36
:10767800029002A96846ADF80C40FFF72FFE029869
:10768800FEF78CFF1DE000988DF808404FF00102CE
:10769800D0E84F3FA34203D1C0E8412F0029F7D1DA
:1076A80002D08DF808300CE010F10C014FF0010306
:1076B80018BF0373BFF35F8F043000F8033CFFF774
:1076C80071FF01A8FCF7B2FF05B030BD704710B5D7
:1076D8000446FCF7DEFC204610BDF0B5037D062B02
:1076E8008DB00E4600F104074FF0000402D000F1FF
:1076F800080518E00CAD394605F8304D2F232A4609
:107708000A20FEF767FD284601F0A9FD3368024606
:10771800DB682946304698470FE024B12E213046D1
:10772800FFF728FA044415F8011D0A223046FFF72E
:1077380067FABD420444F0D120460DB0F0BD000008
:1077480010B5054B0446112240F8043B002101F016
:1077580028FD204610BD00BFB4960D000346074A19
:1077680010B543F8042B01F1100251F8044B43F80B
:10777800044B9142F9D10A781A7010BDB4960D00E5
:1077880010B59DF8084044EA032343EA024242EA5E
:10779800016104234160037510BD37B50D788B78FE
:1077A8004A78C97800912946FFF7EAFF03B030BD4F
:1077B8004174704770470021007CFEF7DBBD012152
:1077C800007CFEF7D7BD007CFEF7CCBD007CFEF741
:1077D800C1BD38B50446007C0D46FEF7C3FD002840
:1077E80001DC607C20B12946207CFEF7CBFD01201E
:1077F80038BD007CFEF7CEBD10B50446FCF749FC49
:10780800204610BD10B50446002363604FF47A7318
:10781800A360054B23600123084621746374114655
:10782800FEF788FD204610BDC8960D000022007C9A
:10783800FEF788BD10B514220446002101F0B1FC02
:10784800204610BD30B50E4D87B001A8FFF7F2FFF6
:10785800296811F0010410D12846FCF71EFC60B11C
:1078680001AA21460748FFF7CDFF2846FCF71AFC76
:10787800054A0649034800F091FB024807B030BDAD
:1078880090E3032094E30320D0E00320BD770D00AC
:10789800002211464068FEF711BE002211464068DA
:1078A800FEF72CBE002211464068FEF737BE0022C4
:1078B8004068FEF72BBE002281F001014068FEF708
:1078C80015BE00231A4619464068FEF707BE002376
:1078D8001A4619464068FEF7F9BD0022114640686D
:1078E800FEF7DCBD002202214068FEF7DFBD002361
:1078F8001A464068FEF7CABD38B50C4D2824224602
:107908000021284601F04DFC4FF0FF336B602C80BE
:10791800074D042328466B60064B40F8083B224677
:10792800002101F03EFC2C8138BD00BFD8E30320C4
:10793800A8E30320F8960D00704741747047007C57
:10794800FEF788BC007CFEF75DBC007CFEF76ABCD5
:10795800007CFEF75FBC007CFEF76CBC10B50446EB
:10796800FCF797FB204610BD70B5457C04460E46D3
:1079780025B9007CFEF76EFC002805DD3146207C29
:10798800BDE87040FEF736BC284670BD10B5044609
:1079980008461146002262604FF47A72A260054AD6
:1079A80022600122207462741A46FEF71BFC2046EE
:1079B80010BD00BF2C970D00007CFEF743BC0000F3
:1079C80038B50C4D296811F0010411D12846FCF78F
:1079D80064FB68B1084A094B09482146FFF7D6FFFE
:1079E8002846FCF75FFB074A0749054800F0D6FA26
:1079F800034838BD98E403209CE4032014E40320E2
:107A080000E40320D0E0032041790D0010B583681D
:107A180004460BB900F0C7FAC3689847A3681BB1BE
:107A280003222146204698472046BDE81040FCF72F
:107A380030BB7047F8B5064615460C468F18BC4251
:107A480006D0336814F8011B9B6830469847F6E760
:107A58002846F8BD0022007CFEF724BC0021007CEB
:107A6800FEF728BC0021007CFEF72CBC0021007C1E
:107A7800FEF730BC0021007CFEF734BC10B504468C
:107A8800FCF707FB204610BD10B504464FF47A7387
:107A98000846A3600021044B207461602360FEF750
:107AA80031FC204610BD00BF5C970D0000231A462C
:107AB8001946007CFEF7D6BB13B50024007C009461
:107AC800FEF7D8FBC0B202B010BD0123FFF7F4BF28
:107AD8000123D2B2C9B2FFF7EFBFDBB2D2B2C9B24B
:107AE800FFF7EABF0022007CFEF7CCBBC9B2FFF764
:107AF800F9BF0022007CFEF7CDBB0121FFF7F9BFDB
:107B08000021007CFEF7F6BB08B50021007CFEF7DB
:107B180001FCB0FA80F0400908BD08B50021007CDE
:107B2800FEF700FCB0FA80F0400908BD00221146BB
:107B38004068FEF7E3BC002211464068FEF7EEBC41
:107B480000224068FEF7E2BC002281F00101406893
:107B5800FEF7CCBC00231A4619464068FEF7BEBCA7
:107B680000231A4619464068FEF7B0BC00221146A9
:107B78004068FEF7A3BC002211464068FEF78EBCA1
:107B8800002202214068FEF791BC00231A46406893
:107B9800FEF77CBC10B103685B681847704738B5BE
:107BA80004460068D0B1FEF7D5FAB8B9237C1BB9F2
:107BB800206808B1FEF7D6FA656855B1AB681BB105
:107BC80003222946284698472846FCF762FA0023EC
:107BD80063602068FEF7CEFA0023236038BD0000FA
:107BE80038B50B4B03600446D0F8CC0108B1FCF75C
:107BF80052FAD4F8C4512DB12846FFF7D0FF2846D1
:107C0800FCF747FAA06808B1FFF7C4FF204638BD63
:107C180084970D0038B50D4C0D4B236000250223C9
:107C280004F5E4706360A560C4F8C451C4F8C85191
:107C3800FEF7C0FA074BC4F8CC5123602046064A29
:107C48000649BDE8384000F0A9B900BF20E5032087
:107C5800B8970D0084970D00D0E00320E97B0D0054
:107C680000231A464068FEF711BC00220221406832
:107C7800FEF71CBC002211464068FEF70FBC00222C
:107C880011464068FEF71ABC00231A461946406898
:107C9800FEF71CBC00231A4619464068FEF71EBCB6
:107CA800002281F001014068FEF720BC00224068F4
:107CB800FEF72CBC002211464068FEF72FBC0022BC
:107CC80011464068FEF71ABC70B58CB014460646DB
:107CD800FFF736FD0CAB0022114643F8302D204645
:107CE800FEF768F9014658BB009B4BB35A68022A55
:107CF8000ED00A2A24D15C69112201A801F051FA98
:107D080006238DF8143001AD04F10803183405E09A
:107D1800596930460431FFF740FD11E01868596889
:107D28002A4603C20833A3421546F7D101A906A87B
:107D380007ADFFF713FD0FCD341D0FC42B6823705B
:107D48000098FEF72FF930460CB070BD024B034A7D
:107D58001A6000225A607047F0E60320B8970D00B9
:107D680010B504460F48FEF7A1FD28B1A4F10B0396
:107D7800022B01D8002010BD00F0D0F8FFF7C0FE9C
:107D880008B1012CF6D9FFF71BFEFFF715FE18B155
:107D9800A4F10903012BEDD9232C8CBF002001206D
:107DA80010BD00BFF8E60320232838B504460D4669
:107DB8000AD8FF2908D0FFF7D3FF28B12946204663
:107DC800BDE83840FEF706B938BD38B504460D465B
:107DD800FEF708F9FF2810D0062804D84D2323FA07
:107DE80000F0C30709D42046FFF7BAFF28B1294697
:107DF8002046BDE83840FEF7FDB838BD10B504464A
:107E0800FEF7F0F80438C0B2012808D92046FFF779
:107E1800A7FF20B12046BDE81040FEF7F3B80020C8
:107E280010BDFEF7F7B8000070B50C4C0C4E0D4DA8
:107E380000212046FEF7AEFC20460B4C3246294670
:107E480000F0ACF801212046FEF7A4FC3246294692
:107E58002046BDE8704000F0A1B800BFF8E6032056
:107E6800D0E003208D670D0008E7032030B51C4DD6
:107E780089B004462068FEF725F9FEF73BF92B6820
:107E88002268C01A9042F5D3236833B3E36823B35A
:107E9800251D236928469847002304A968460293AC
:107EA8000693FFF72DF8029B069A02920693079A0B
:107EB800039B0793294604A80392FFF721F8069B22
:107EC800E268E360079B069204A82269236107928F
:107ED800FCF731F96846FCF72EF909B030BD00BF50
:107EE80018E7032008B5FFF7C1FF0020BDE80840E8
:107EF800FEF740B910B5074C2368DB0708D42046C5
:107F0800FCF7CBF820B1FEF7FDF82046FCF7CAF8DD
:107F1800014810BD1CE7032020E7032038B50B4DAE
:107F2800296811F001040FD12846FCF7B6F858B1BA
:107F380021460748FFF7A8FD2846FCF7B3F8054A8D
:107F48000549034800F02AF8014838BD24E7032012
:107F58003CE70320D0E003203B7A0D0010B50B4C22
:107F68002368DB070FD42046FCF797F858B10121A6
:107F78000748FFF789FD2046FCF794F8054A0649AB
:107F8800034800F00BF8024810BD00BF50E703207B
:107F980028E70320D0E003203B7A0D000B4601467A
:107FA800184601F0E5B808B5FEF718FB184B1A6833
:107FB800D1075CBF01221A60164B1A68D2075CBF52
:107FC80001221A60144B1A68D0075CBF01221A609C
:107FD800124B1A68D1075CBF01221A60104B1A684D
:107FE800D2075CBF01221A600E4B1A68D0075CBF2B
:107FF80001221A600C4B1A68D1075CBF01221A6073
:108008000A4B1A68D2075CBF01221A60704700BF8A
:1080180070E703206CE7032068E7032064E7032088
:1080280060E703205CE7032058E7032054E70320B8
:10803800244B1A68D0075CBF01221A60224B1A68C9
:10804800D1075CBF01221A60204B1A68D2075CBFB7
:1080580001221A601E4B1A68D0075CBF01221A6001
:108068001C4B1A68D1075CBF01221A601A4B1A68A8
:10807800D2075CBF01221A60184B1A68D0075CBF90
:1080880001221A60164B1A68D1075CBF01221A60D8
:10809800144B1A68D2075CBF01221A60124B1A6887
:1080A800D0075CBF01221A60104B1A68D1075CBF69
:1080B80001221A600E4B1A68D2075CBF01221A60AF
:1080C800704700BFA0E703209CE7032098E7032040
:1080D80094E7032090E703208CE7032088E7032038
:1080E80084E7032080E703207CE7032078E7032068
:1080F80074E70320244B1A68D0075CBF01221A607A
:10810800224B1A68D1075CBF01221A60204B1A68FB
:10811800D2075CBF01221A601E4B1A68D0075CBFE9
:1081280001221A601C4B1A68D1075CBF01221A6031
:108138001A4B1A68D2075CBF01221A60184B1A68DA
:10814800D0075CBF01221A60164B1A68D1075CBFC2
:1081580001221A60144B1A68D2075CBF01221A6008
:10816800124B1A68D0075CBF01221A60104B1A68BC
:10817800D1075CBF01221A600E4B1A68D2075CBF98
:1081880001221A60704700BFD0E70320CCE7032024
:10819800C8E70320C4E70320C0E70320BCE70320A7
:1081A800B8E70320B4E70320B0E70320ACE70320D7
:1081B800A8E70320A4E70320184B1A68D1075CBF7F
:1081C80001221A60164B1A68D2075CBF01221A6096
:1081D800144B1A68D0075CBF01221A60124B1A6848
:1081E800D1075CBF01221A60104B1A68D2075CBF26
:1081F80001221A600E4B1A68D0075CBF01221A6070
:108208000C4B1A68D1075CBF01221A600A4B1A6826
:10821800D2075CBF01221A60704700BFF0E7032055
:10822800ECE70320E8E70320E4E70320E0E7032086
:10823800DCE70320D8E70320D4E7032081F00041DE
:1082480002E000BF83F0004330B54FEA41044FEA33
:10825800430594EA050F08BF90EA020F1FBF54EACE
:10826800000C55EA020C7FEA645C7FEA655C00F06A
:10827800E2804FEA5454D4EB5555B8BF6D420CDD3B
:108288002C4480EA020281EA030382EA000083EABE
:10829800010180EA020281EA0303362D88BF30BD5E
:1082A80011F0004F4FEA01314FF4801C4CEA1131B4
:1082B80002D0404261EB410113F0004F4FEA033313
:1082C8004CEA133302D0524263EB430394EA050F9E
:1082D80000F0A780A4F10104D5F1200E0DDB02FA0D
:1082E8000EFC22FA05F2801841F1000103FA0EF2A1
:1082F800801843FA05F359410EE0A5F120050EF167
:10830800200E012A03FA0EFC28BF4CF0020C43FA97
:1083180005F3C01851EBE37101F0004507D54FF0A4
:10832800000EDCF1000C7EEB00006EEB0101B1F5F4
:10833800801F1BD3B1F5001F0CD349085FEA30003A
:108348004FEA3C0C04F101044FEA445212F5800F45
:1083580080F09A80BCF1004F08BF5FEA500C50F1E2
:10836800000041EB045141EA050130BD5FEA4C0CC5
:10837800404141EB010111F4801FA4F10104E9D14E
:1083880091F0000F04BF01460020B1FA81F308BF45
:108398002033A3F10B03B3F120020CDA0C3208DD11
:1083A80002F1140CC2F10C0201FA0CF021FA02F1EC
:1083B8000CE002F11402D8BFC2F1200C01FA02F15C
:1083C80020FA0CFCDCBF41EA0C019040E41AA2BF81
:1083D80001EB0451294330BD6FEA04041F3C1CDA49
:1083E8000C340EDC04F11404C4F1200220FA04F069
:1083F80001FA02F340EA030021FA04F345EA030113
:1084080030BDC4F10C04C4F1200220FA02F001FAD4
:1084180004F340EA0300294630BD21FA04F0294656
:1084280030BD94F0000F83F4801306BF81F48011EF
:108438000134013D4EE77FEA645C18BF7FEA655C62
:1084480029D094EA050F08BF90EA020F05D054EA34
:10845800000C04BF1946104630BD91EA030F1EBF39
:108468000021002030BD5FEA545C05D1400049413D
:1084780028BF41F0004130BD14F580043CBF01F530
:10848800801130BD01F0004545F0FE4141F4700116
:108498004FF0000030BD7FEA645C1ABF19461046F1
:1084A8007FEA655C1CBF0B46024650EA013406BFF2
:1084B80052EA033591EA030F41F4002130BD00BFB1
:1084C80090F0000F04BF0021704730B54FF480646E
:1084D80004F132044FF000054FF0000150E700BFEF
:1084E80090F0000F04BF0021704730B54FF480644E
:1084F80004F1320410F0004548BF40424FF000013B
:108508003EE700BF42004FEAE2014FEA31014FEA7D
:1085180002701FBF12F07F4393F07F4F81F06051CC
:10852800704792F0000F14BF93F07F4F704730B53B
:108538004FF4607401F0004521F0004120E700BFCE
:1085480050EA010208BF704730B54FF000050AE055
:1085580050EA010208BF704730B511F0004502D556
:10856800404261EB41014FF4806404F132045FEA58
:10857800915C3FF4DCAE4FF003025FEADC0C18BFFD
:1085880003325FEADC0C18BF033202EBDC02C2F1F3
:10859800200300FA03FC20FA02F001FA03FE40EA85
:1085A8000E0021FA02F11444C1E600BF70B54FF085
:1085B800FF0C4CF4E06C1CEA11541DBF1CEA135567
:1085C80094EA0C0F95EA0C0F00F0DEF82C4481EACF
:1085D800030621EA4C5123EA4C5350EA013518BFEF
:1085E80052EA033541F4801143F4801338D0A0FBDC
:1085F80002CE4FF00005E1FB02E506F00042E0FB89
:1086080003E54FF00006E1FB03569CF0000F18BF8E
:108618004EF0010EA4F1FF04B6F5007F64F5407436
:1086280004D25FEA4E0E6D4146EB060642EAC621C9
:1086380041EA55514FEAC52040EA5E504FEACE2E36
:10864800B4F1FD0C88BFBCF5E06F1ED8BEF1004F39
:1086580008BF5FEA500E50F1000041EB045170BDB5
:1086680006F0004646EA010140EA020081EA0301F9
:10867800B4EB5C04C2BFD4EB0C0541EA045170BDF5
:1086880041F480114FF0000E013C00F3AB8014F16F
:10869800360FDEBF002001F0004170BDC4F10004B8
:1086A800203C35DA0C341BDC04F11404C4F1200539
:1086B80000FA05F320FA04F001FA05F240EA020094
:1086C80001F0004221F0004110EBD37021FA04F6CA
:1086D80042EB06015EEA430E08BF20EAD37070BD84
:1086E800C4F10C04C4F1200500FA04F320FA05F0E3
:1086F80001FA04F240EA020001F0004110EBD370E5
:1087080041F100015EEA430E08BF20EAD37070BD54
:10871800C4F1200500FA05F24EEA020E20FA04F32D
:1087280001FA05F243EA020321FA04F001F00041DC
:1087380021FA04F220EA020000EBD3705EEA430E4D
:1087480008BF20EAD37070BD94F0000F0FD101F07C
:108758000046400041EB010111F4801F08BF013CB5
:10876800F7D041EA060195F0000F18BF704703F0F3
:108778000046520043EB030313F4801F08BF013D7A
:10878800F7D043EA0603704794EA0C0F0CEA135536
:1087980018BF95EA0C0F0CD050EA410618BF52EAF0
:1087A8004306D1D181EA030101F000414FF00000F6
:1087B80070BD50EA410606BF1046194652EA430604
:1087C80019D094EA0C0F02D150EA013613D195EA78
:1087D8000C0F05D152EA03361CBF104619460AD1C0
:1087E80081EA030101F0004141F0FE4141F47001CA
:1087F8004FF0000070BD41F0FE4141F4780170BDBA
:1088080070B54FF0FF0C4CF4E06C1CEA11541DBF1E
:108818001CEA135594EA0C0F95EA0C0F00F0A7F820
:10882800A4EB050481EA030E52EA03354FEA01314D
:1088380000F088804FEA03334FF0805545EA131360
:1088480043EA12634FEA022245EA111545EA106528
:108858004FEA00260EF000419D4208BF964244F1BF
:10886800FD0404F5407402D25B084FEA3202B61ADE
:1088780065EB03055B084FEA32024FF480104FF4B2
:10888800002CB6EB020E75EB030E22BFB61A754626
:1088980040EA0C005B084FEA3202B6EB020E75EBB9
:1088A800030E22BFB61A754640EA5C005B084FEA21
:1088B8003202B6EB020E75EB030E22BFB61A7546EE
:1088C80040EA9C005B084FEA3202B6EB020E75EBF9
:1088D800030E22BFB61A754640EADC0055EA060EBA
:1088E80018D04FEA051545EA16754FEA06164FEAFD
:1088F800C30343EA52734FEAC2025FEA1C1CC0D1A9
:1089080011F4801F0BD141EA00014FF000004FF035
:10891800004CB6E711F4801F04BF01430020B4F1F6
:10892800FD0C88BFBCF5E06F3FF6AFAEB5EB030CAE
:1089380004BFB6EB020C5FEA500C50F1000041EBAB
:10894800045170BD0EF0004E4EEA113114EB5C0478
:10895800C2BFD4EB0C0541EA045170BD41F480114B
:108968004FF0000E013C90E645EA060E8DE60CEA53
:10897800135594EA0C0F08BF95EA0C0F3FF43BAF70
:1089880094EA0C0F0AD150EA01347FF434AF95EA27
:108998000C0F7FF425AF104619462CE795EA0C0F0B
:1089A80006D152EA03353FF4FDAE1046194622E7D8
:1089B80050EA410618BF52EA43067FF4C5AE50EAB2
:1089C80041047FF40DAF52EA43057FF4EBAE12E7A2
:1089D8004FF0FF3C06E000BF4FF0010C02E000BF83
:1089E8004FF0010C4DF804CD4FEA410C7FEA6C5C66
:1089F8004FEA430C18BF7FEA6C5C1BD001B050EA09
:108A0800410C0CBF52EA430C91EA030F02BF90EAF3
:108A1800020F0020704710F1000F91EA030F58BFB2
:108A2800994208BF90422CBFD8176FEAE37040F014
:108A3800010070474FEA410C7FEA6C5C02D150EAB2
:108A4800013C07D14FEA430C7FEA6C5CD6D152EA6D
:108A5800033CD3D05DF8040B704700BF8446104632
:108A680062468C461946634600E000BF01B5FFF731
:108A7800B7FF002848BF10F1000F01BD4DF808ED01
:108A8800FFF7F4FF0CBF012000205DF808FB00BFD2
:108A98004DF808EDFFF7EAFF34BF012000205DF82C
:108AA80008FB00BF4DF808EDFFF7E0FF94BF012079
:108AB80000205DF808FB00BF4DF808EDFFF7CEFF7A
:108AC80094BF012000205DF808FB00BF4DF808EDB9
:108AD800FFF7C4FF34BF012000205DF808FB00BF8A
:108AE8004FEA410C7FEA6C5C02D150EA013C0AD1A2
:108AF8004FEA430C7FEA6C5C02D152EA033C02D194
:108B08004FF0000070474FF0010070474FEA4102F4
:108B180012F5001215D211D56FF47873B3EB6252C7
:108B280012D94FEAC12343F0004343EA505311F0EE
:108B3800004F23FA02F018BF404270474FF0000080
:108B4800704750EA013005D111F0004008BF6FF0BE
:108B5800004070474FF00000704700BF4A0011D234
:108B680012F5001211D20DD56FF47873B3EB62527F
:108B78000ED44FEAC12343F0004343EA505323FA8B
:108B880002F070474FF00000704750EA013002D100
:108B98004FF0FF3070474FF0000070474FEA410236
:108BA800B2F1E04324BFB3F5001CDCF1FE5C0DD943
:108BB80001F0004C4FEAC0024CEA5070B2F1004F8D
:108BC80040EB830008BF20F00100704711F0804F90
:108BD80021D113F13872BCBF01F00040704741F455
:108BE80080114FEA5252C2F11802C2F1200C10FA59
:108BF8000CF320FA02F018BF40F001004FEAC1233D
:108C08004FEAD32303FA0CFC40EA0C0023FA02F3E0
:108C18004FEA4303CCE77FEA625307D150EA0133B6
:108C28001EBF4FF0FE4040F44000704701F0004086
:108C380040F0FE4040F40000704700BF80F0004064
:108C480002E000BF81F0004142001FBF5FEA41031C
:108C580092EA030F7FEA226C7FEA236C6AD04FEA1C
:108C68001262D2EB1363C1BFD21841404840414061
:108C7800B8BF5B42192B88BF704710F0004F40F413
:108C8800000020F07F4018BF404211F0004F41F42F
:108C9800000121F07F4118BF494292EA030F3FD0FB
:108CA800A2F1010241FA03FC10EB0C00C3F120030E
:108CB80001FA03F100F0004302D5494260EB40009D
:108CC800B0F5000F13D3B0F1807F06D340084FEA08
:108CD800310102F10102FE2A51D2B1F1004F40EBFD
:108CE800C25008BF20F0010040EA03007047490065
:108CF80040EB000010F4000FA2F10102EDD1B0FA30
:108D080080FCACF1080CB2EB0C0200FA0CF0AABF24
:108D180000EBC25052421843BCBFD04018437047C2
:108D280092F0000F81F4000106BF80F400000132C8
:108D3800013BB5E74FEA41037FEA226C18BF7FEA9F
:108D4800236C21D092EA030F04D092F0000F08BFE1
:108D58000846704790EA010F1CBF0020704712F0C8
:108D68007F4F04D1400028BF40F00040704712F107
:108D780000723CBF00F50000704700F0004343F06C
:108D8800FE4040F4000070477FEA226216BF0846A2
:108D98007FEA23630146420206BF5FEA412390EA65
:108DA800010F40F4800070474FF0000304E000BF5B
:108DB80010F0004348BF40425FEA000C08BF70470C
:108DC80043F0964301464FF000001CE050EA0102D0
:108DD80008BF70474FF000030AE000BF50EA0102E5
:108DE80008BF704711F0004302D5404261EB4101D2
:108DF8005FEA010C02BF84460146002043F0B643F7
:108E080008BFA3F18053A3F50003BCFA8CF2083A1B
:108E1800A3EBC25310DB01FA02FC634400FA02FC24
:108E2800C2F12002BCF1004F20FA02F243EB02002B
:108E380008BF20F00100704702F1200201FA02FC8D
:108E4800C2F1200250EA4C0021FA02F243EB020080
:108E580008BF20EADC70704753B94AB9002908BF37
:108E680000281CBF4FF0FF314FF0FF3000F07EB9F3
:108E7800ADF1080C6DE904CE00F006F8DDF804E069
:108E8800DDE9022304B070472DE9F0478C460E4611
:108E98000446089D002B50D18A4217466CD9B2FA75
:108EA80082FEBEF1000F0BD0CEF1200420FA04F4AC
:108EB80001FA0EF644EA060C02FA0EF700FA0EF46E
:108EC8004FEA1749220CBCFBF9F01FFA87F809FB97
:108ED80010C642EA064600FB08F3B34209D9F61960
:108EE80000F1FF3280F02281B34240F21F81023844
:108EF8003E44F61AA2B2B6FBF9F309FB136642EA3E
:108F0800064403FB08F8A04509D9E41903F1FF3228
:108F180080F00A81A04540F20781023B3C44C8EB3F
:108F2800040443EA00400021002D62D024FA0EF424
:108F380000232C606B60BDE8F0878B4207D9002DB9
:108F480055D0002185E841000846BDE8F087B3FA0E
:108F580083F1002940F09080B34202D3824200F2AC
:108F6800F880841A66EB03060120B446002D40D031
:108F780085E81010BDE8F08712B90127B7FBF2F7B2
:108F8800B7FA87FEBEF1000F35D1F31B4FEA174839
:108F98001FFA87FC0121B3FBF8F0220C08FB1036FE
:108FA80042EA06460CFB00F3B34207D9F61900F172
:108FB800FF3202D2B34200F2CE801046F61AA2B2B5
:108FC800B6FBF8F308FB136642EA06440CFB03FC05
:108FD800A44507D9E41903F1FF3202D2A44500F2EF
:108FE800B5801346CCEB040443EA00409CE72946CD
:108FF8002846BDE8F087CEF1200106FA0EF307FAFD
:109008000EF720FA01F94FEA1748CE4049EA03095A
:10901800B6FBF8FA4FEA194408FB1A661FFA87FCF0
:1090280044EA06430AFB0CF29A4200FA0EF40AD903
:10903800DB190AF1FF3180F087809A4240F2848080
:10904800AAF1020A3B449B1A1FFA89F9B3FBF8F10B
:1090580008FB113349EA034301FB0CF69E4207D98A
:10906800DB1901F1FF326BD29E4269D902393B44C8
:109078009B1B41EA0A418EE7C1F1200E22FA0EF449
:109088008B40234320FA0EF706FA01F44FEA134CFB
:1090980026FA0EF63C43B6FBFCF9270C0CFB1966C6
:1090A8001FFA83F847EA064609FB08F7B74202FAAF
:1090B80001F200FA01FA08D9F61809F1FF3041D295
:1090C800B7423FD9A9F102091E44F61BA0B2B6FB6C
:1090D800FCF40CFB146640EA064704FB08F8B845A4
:1090E80007D9FF1804F1FF3028D2B84526D9023C29
:1090F8001F4444EA0940C8EB0707A0FB02894F4513
:1091080044464E4614D329D065B3BAEB040367EB43
:10911800060707FA0EFECB40CF404EEA030385E868
:1091280088000021BDE8F0871346F8E61046E0E61F
:10913800B8EB020469EB03060138E5E70446D8E713
:10914800114695E78146C0E78A467CE7023B3C44E6
:1091580048E708460AE702383E442FE7C245E7D306
:109168003E46D1E72946BDE8F08700BF704700BFFB
:1091780010B5054C13462CB10A4601460220AFF340
:10918800008010BD204610BD0000000010B5431E31
:109198000A44914204D011F8014B03F8014FF8E753
:1091A80010BD02440346934202D003F8011BFAE7BC
:1091B8007047000038B5124B1C68A36B0546D3B93D
:1091C8001820FDF7E3F943F20E33A06303804AF653
:1091D800CD33438041F2342383804EF26D63C380E4
:1091E8004DF6EC630381052343810B238381012220
:1091F8000023C0E90423A36B00221D615A6138BD16
:10920800C8E0032010F8012B11F8013B012A28BF00
:109218009A42F7D0D01A7047034611F8012B03F889
:10922800012B002AF9D17047024B0146186800F05B
:1092380003B800BFC8E0032070B5064608460C46D0
:1092480000F00DF8451C29463046FDF7CFF90646D3
:1092580018B12A462146FFF799FF304670BD0346EC
:1092680013F8012B002AFBD1181A013870470000A7
:109278001D400D0059400D0085400D0089400D002E
:10928800000000005761746368646F672074696D3B
:10929800656F7574002E00414E454D4F4D45544540
:1092A80052200044485420004552524F523A20431D
:1092B8006F756C64206E6F742067657420696E69C1
:1092C8007469616C2077696E642072656164696E87
:1092D80067004465657020536C65657020666F7221
:1092E800202564206D696C6C697365636F6E6473A7
:1092F800004465766963652049443A202573005324
:10930800797374656D2076657273696F6E3A20257E
:109318007300496E70757420566F6C7461676520B0
:109328004C696D69743A20256400496E7075742023
:1093380043757272656E74204C696D69743A2025A4
:1093480064004D696E696D756D2053797374656D30
:1093580020566F6C746167653A2025640043686124
:109368007267652043757272656E743A20256400D1
:1093780043686172676520566F6C746167653A204F
:109388002564004368617267653A2000566F6C7403
:109398006167653A2000436F6D7061737320696E71
:1093A800697469616C697A696E6700436F6D706191
:1093B800737320696E697469616C656400583A203A
:1093C80025642C20593A2025642C205A3A202564FB
:1093D8000044454550004C494748540020534C45EB
:1093E800455020004455524154494F4E20005345A2
:1093F8005454494E4753205550444154453A20004F
:1094080053657474696E67730042524F574E4F55D7
:1094180054200025663A25640042726F776E6F7596
:10942800740061707077647400436F6E6669677565
:1094380072696E6720514D43353838334C202D20E2
:109448004F5352203531322C2072616E6765202BC4
:109458002F2D322047617573732C204F44522031D1
:10946800302C20436F6E74696E756F75730074725B
:10947800756500534156494E472053455454494E4B
:109488004753200076657273696F6E0062726F775A
:109498006E6F75740062726F776E6F7574566F6C4D
:1094A800746167650062726F776E6F75744D696E6F
:1094B8007574657300736C65657054696D650064D7
:1094C8006961676E6F73697469634379636C657307
:1094D8000075736544656570536C6565700022227C
:1094E8005C5C6208660C6E0A720D74090045727243
:1094F8006F7220636F646520000064009600F401B9
:109508008403B004DC05D007B80BB80B00001C0CB2
:109518000000800C0000E40C0000480D0000AC0DB9
:109528000000100E0000740E000000000000000093
:109538006F670D0065670D005B670D0051670D00D3
:1095480045670D0039670D002D670D0025670D0073
:109558001B670D0011670D00D17C0D000000000095
:10956800000000008D670D008F670D0000081018BF
:10957800202830386E616E006F766600696E66006E
:109588006C6E00666E00636F646500646574616983
:109598006C000D0A00253031307520005D20002C4C
:1095A800200028293A2000205B00636F6465203D75
:1095B800200025690064657461696C73203D200092
:1095C800626175640053657269616C005365726904
:1095D800616C31007479706500706172616D00634F
:1095E8006D6400696400686E64007374726D00666F
:1095F800696C74006C766C0061646448616E646CBC
:1096080065720072656D6F766548616E646C65722F
:1096180000656E756D48616E646C657273004A53BF
:109628004F4E53747265616D4C6F6748616E646C20
:10963800657200617070006E6F6E650074726163B0
:109648006500696E666F007761726E006572726F91
:10965800720070616E696300616C6C005A00252BA2
:109668003033643A253032750025592D256D2D2566
:10967800645425483A254D3A2553257A0061736389
:1096880074696D6500000000000000000000000023
:10969800D1710D00D7710D00ED710D00E3710D0052
:1096A800D3710D000000000000000000E3760D00FB
:1096B800D5760D00D7760D000000000000000000F0
:1096C800BD770D0001780D00DB770D00296B0D00CB
:1096D800D5770D00BF770D00C7770D00FB770D001C
:1096E800CF770D00B9770D000000000000000000E2
:1096F800F7780D00ED780D00E3780D0099780D00EE
:10970800D7780D00CB780D00BF780D00B7780D0025
:10971800AD780D00A3780D00D17C0D00000000008D
:109728000000000041790D0065790D0071790D0088
:10973800296B0D004D790D0059790D0053790D00F5
:109748005F790D0043790D0047790D000000000096
:10975800000000003B7A0D00857A0D005D7A0D004F
:109768003D7A0D00657A0D006D7A0D00757A0D0051
:109778007D7A0D000000000000000000937B0D00C2
:10978800897B0D007F7B0D00757B0D00697B0D00CB
:109798005D7B0D00517B0D00497B0D003F7B0D006B
:1097A800357B0D00D17C0D0000000000000000009A
:1097B800697C0D00737C0D007D7C0D00877C0D009D
:1097C800917C0D009D7C0D00A97C0D00B57C0D00E1
:1097D800BD7C0D00C77C0D00D17C0D000000000091
:1097E8000000000000000000000000000000000071
:1097F8000000000000000000000000000000000061
:109808000000000000000000000000000000000050
:109818000000000000000000000000000000000040
:109828000000000000000000000000000000000030
:1098380000000000000000000000000043000000DD
:10984800A9470D0079490D00A1560D00B55B0D0023
:10985800815D0D00115E0D00A95F0D0079670D0097
:10986800FD680D008D6E0D009D6E0D00296F0D00B9
:1098780001790D001D7C0D00557D0D00317E0D0018
:10988800B57F0D0039800D00FD800D00C1810D00F0
:089898000000000000000000C8
:0898A000F0F5FF7F010000005C
:1098A80000000000000024400000000000005940B3
:1098B800000000000088C3400000000084D79741E2
:1098C8000080E03779C34143000000000000000039
:1098D8000000000000000000000000000000000080
:1098E8000000000000000000000000000000000070
:1098F80033339340000000001E0000000100000008
:109908000000000085960D0000000000E4970D009F
:1099180004980D0024980D000000000000000000CD
:10992800000000000000000044980D000000000046
:10993800000000000000000000000000000000001F
:10994800000000000000000000000000000000000F
:1099580000000000000000000000000000000000FF
:0C996800000000000000000068E0032088
:10997400FFFFFFFF00000102030405060708090AB0
:109984000B0C0D0E0F101112131415161718191AAB
:089994001B1C1D1E1F202800F2
:04999C0078563412B3
:04000003D0004018D1
:00000001FF
