:02000002D0002C
:1040000000400D00D06C0D00000005000D00050102
:0840100004019301000000000F
:10401800BC670D0009480A49884208B505D0094A15
:10402800824202D0121A02F081FB0748074A002197
:10403800121A02F086FB014808BD00BF9CE203206B
:10404800406C0D0004E3032004E30320F0E70320A1
:1040580070B501F0CFF8074C074BE41AA408002507
:104068001E46A54204D056F8253098470135F8E792
:1040780070BD00BF3C6C0D00F86B0D0000F070B80F
:1040880008B500F065F9BDE8084001F081B800F016
:1040980035BC00F033BC0078B0FA80F040097047B6
:1040A80001230370704703681847012A02D0022AC7
:1040B80002D004E0016002E00B6800B10360002058
:1040C8007047000008B501F06BF9034900F0D9FD0D
:1040D800BDE8084000F01ABDD0670D0010B5836830
:1040E80004460BB1C06806E0406828B183680BB984
:1040F80001F0C3FCC3689847012323740020BDE87E
:10410800104000F06FBA10B58368044613B103225B
:1041180001469847204610BD38B504464069B0B1FD
:1041280000F038FA98B994F824301BB9606908B1DE
:1041380000F038FAA5693DB12846FFF7E4FF2846A4
:10414800FFF7A5FF0023A361606900F033FA201D83
:10415800FFF7D9FF204638BD0368C9B29B681847E6
:1041680008B50121072001F0B3FB01F019F94FF45C
:10417800165101F009F901F03BFC01F033FA42F263
:10418800107000F0E3FE01F00BF90249BDE80840A9
:1041980000F077BDE1670D0013460A46012100F0E3
:1041A80088BE000030B591B001A800F08FFB01F087
:1041B800F7F8404A019B012100F07BFE01F0F0F87E
:1041C800044610A81C2320F81C3D002100F012FB17
:1041D8000BA905A800F009FD059B374A01212046D7
:1041E800364C00F066FE05A800F0B8FC204600F04A
:1041F800A5FB054601F0D4F82A463149FFF7CCFF64
:10420800204600F0EFFB054601F0CAF8EAB22D4956
:10421800FFF7C2FF204600F0F1FB054601F0C0F8A9
:104228002B46294A012100F044FE204600F0F2FB0B
:10423800054601F0B5F82A462449FFF7ADFF2046A8
:1042480000F0EEFB044601F0ABF82346204A214C6F
:10425800012100F02EFE01F0A3F81F4900F0FEFC3A
:1042680001F09EF80546204600F008FF10EE100AFF
:1042780001F0B2FE41EC100B0221284600F00EFEC0
:1042880001F08EF8154900F0E9FC01F089F80546BF
:10429800204600F0DDFE10EE100A01F09DFE41EC14
:1042A800100B0221284600F0F9FD01A800F056FC89
:1042B80011B030BDF1670D00FF670D0008E3032062
:1042C80012680D002A680D0042680D005D680D0037
:1042D80070680D0050E3032083680D008C680D00A2
:1042E80013B5044601F05CF82346154A012100F095
:1042F800E0FD01F07DFB082101F08CF901F078FB6D
:104308002146FFF729FF01F073FB210AFFF724FF7D
:1043180001F06EFB01F085F9044601F041F82246F0
:104328000849FFF739FF084800F0F6FE074B00225E
:104338001B680121684600F0EDFB02B010BD00BF0C
:1043480096680D00B5680D0050E3032034E30320A0
:1043580008B50121072001F0CCFA4FF47A7000F07B
:10436800F5FD0021072001F0C4FAFFF71BFF00F05C
:10437800F9F8044B1860BDE8084047F23050FFF7E1
:10438800AFBF00BF1CE7032070B52D4B2D4C2E4E40
:1043980086B000251D6000F0A5F82C4B4FF6FF7283
:1043A8001D705D809A80022000F00CFA2946204694
:1043B80000F00EFE2046264C2649324601F058FBF6
:1043C8002946204600F0C3FA32462349204601F028
:1043D8004FFB2248224C00F055F8224B0293224B07
:1043E8000593224B049302A944F62063E560022258
:1043F800201D2360FFF759FE059B2361049BE360A2
:104408001B4BE36104F114004FF4007309221949AE
:104418006561A561246284F824508DE80900164B73
:1044280000F0B0F800F09EF8144B186002A8FFF7EF
:104438006AFE32461249204601F01AFB06B070BDEA
:1044480034E3032050E3032004E3032048E303207C
:1044580008E30320F74F0D0075490D0038E30320EA
:104468000CE30320CD400D00AF400D00B3400D001C
:10447800E9590D00CC680D00E5400D001CE703204C
:1044880021410D0030B585B0044600F017F86846A4
:1044980000F014F89DE80F0084E80F00204605B0EE
:1044A80030BD000008B500F01DF80248BDE808401E
:1044B80000F004B858E3032000F014B8704700F087
:1044C80011B8000008B5024B1B689B68019308BD32
:1044D8006802030008B5024B1B68DB68019308BD3E
:1044E8006802030008B5024B1B681B68019308BDEE
:1044F8002C02030008B5024B1B689B68019308BD9A
:104508002C02030008B5024B1B68DB68019308BD49
:104518002C02030008B5024B1B681B69019308BDF8
:104528002C02030008B5024B1B68DB69019308BD28
:104538003002030008B5024B1B681B6A019308BDD3
:104548003002030008B5024B1B685B68019308BD85
:104558001802030008B5024B1B689B68019308BD4D
:104568001802030008B5024B1B685B69019308BD7C
:104578001802030008B5024B1B689B6E019308BD27
:104588003402030008B5024B1B685B68019308BD41
:104598004802030008B5024B1B689B68019308BDDD
:1045A8004802030008B5024B1B681B69019308BD4C
:1045B8004802030008B5024B1B685B69019308BDFC
:1045C8004802030008B5024B1B681B6B019308BD2A
:1045D8004802030008B5024B1B685B6C019308BDD9
:1045E8004802030008B5024B1B68DB6E019308BD47
:1045F8004802030008B5024B1B685B69019308BDBC
:104608006402030008B5024B1B681B68019308BDD0
:104618003C02030008B5024B1B68DB68019308BD28
:104628003C02030008B5024B1B681B69019308BDD7
:104638003C02030008B5024B1B685B69019308BD87
:104648003C02030008B5024B1B689B69019308BD37
:104658003C02030008B5024B1B68DB69019308BDE7
:104668003C02030008B5024B1B681B6A019308BD96
:104678003C02030008B5024B1B689B6A019308BD06
:104688003C02030008B5024B1B68DB68019308BDB8
:104698002802030008B5024B1B685B69019308BD3B
:1046A8002802030008B5024B1B689B69019308BDEB
:1046B8002802030008B5024B1B68DB69019308BD9B
:1046C8002802030008B5024B1B681B6A019308BD4A
:1046D8002802030008B5024B1B685B6A019308BDFA
:1046E8002802030008B5024B1B689B6A019308BDAA
:1046F8002802030008B5024B1B68DB6A019308BD5A
:104708002802030008B5024B1B681B6B019308BD08
:104718002802030008B5024B1B685B6B019308BDB8
:104728002802030008B5024B1B681B6C019308BDE7
:104738002802030008B5024B1B689B6C019308BD57
:104748002802030008B5024B1B68DB6C019308BD07
:104758002802030008B5024B1B681B68019308BDBB
:104768004C02030008B5024B1B685B68019308BD47
:104778004C02030008B5024B1B681B69019308BD76
:104788004C02030008B5024B1B685B69019308BD26
:104798004C02030008B5024B1B689B69019308BDD6
:1047A8004C02030008B5024B1B68DB69019308BD86
:1047B8004C02030008B5024B1B681B6A019308BD35
:1047C8004C02030008B5024B1B685B68019308BDE7
:1047D8002002030008B5024B1B685B69019308BD02
:1047E8002002030008B5024B1B689B69019308BDB2
:1047F8002002030008B5024B1B681B6B019308BD20
:104808002002030008B5034B1B68D3F888300193D6
:1048180008BD00002002030008B5034B1B68D3F84D
:104828009430019308BD00002002030008B5024B34
:104838001B685B68019308BD4002030008B5024B82
:104848001B689B68019308BD4002030008B5024B32
:104858001B68DB68019308BD4002030008B5024BE2
:104868001B681B69019308BD4002030008B5024B91
:104878001B685B69019308BD4002030008B5024B41
:104888001B689B69019308BD4002030008B5024BF1
:104898001B68DB69019308BD4002030008B5024BA1
:1048A8001B681B6A019308BD4002030008B5024B50
:1048B8001B681B6B019308BD4002030008B5024B3F
:1048C8001B685B6B019308BD4002030008B5024BEF
:1048D8001B68DB69019308BD4402030008B5024B5D
:1048E8001B68DB6B019308BD4402030008B5024B4B
:1048F8001B681B68019308BD1C02030008B5024B26
:104908001B685B68019308BD1C02030008B5024BD5
:104918001B689B68019308BD1C02030008B5024B85
:104928001B685B6A019308BD1C02030008B5024BB3
:104938001B68DB6A019308BD1C0203000120704755
:1049480008B501F075F8BDE8084000F071BE10B573
:104958000446017009B1FFF7F3FF204610BD08B502
:1049680001F066F8BDE8084000F06BBE10B50378AA
:1049780004460BB1FFF7F3FF204610BD10B50446FF
:104988000068FFF7ECFF204610BD37B502AC0D46B6
:1049980044F8040DFFF7D4FF01F04AF86B2100F04A
:1049A80039FE01F045F8036829469B68984701F0ED
:1049B8003FF8012100F031FE01F03AF801231A46D0
:1049C8006B2100F01EFE01F033F803685B6998471D
:1049D80005462046FFF7D2FFE8B203B030BD0021FC
:1049E800FFF7D3BF08B5FFF7FAFF034B00F003004A
:1049F80033F8100008BD00BFD4680D0008B50121C8
:104A0800FFF7C3FF024B00F00E0033F8100008BD9B
:104A1800E4680D000221FFF7B8BF0421FFF7B5BF16
:104A280010B5FFF7FAFF02234FF45B62102140FA3A
:104A380003F4013304F00104082B01FB04224FEABC
:104A48004101F4D190B210BD002211464068FFF731
:104A580025BF002211464068FFF730BF002240689A
:104A6800FFF724BF002281F001014068FFF70EBF65
:104A780000231A4619464068FFF700BF00231A466C
:104A880019464068FFF7F2BE002211464068FFF75A
:104A9800E5BE002211464068FFF7D0BE0022022181
:104AA8004068FFF7D3BE00231A464068FFF7BEBE32
:104AB800024B03225A60024A1A60704768E30320D7
:104AC8000C690D00704710B50446FFF7E0FA204660
:104AD80010BD000070B5084B0360044600250E4663
:104AE80040F80C5FFFF76EFD30462671FFF71AFDA0
:104AF800A560204670BD00BF40690D000079FFF732
:104B080019BD014600228C20FFF734BD0020FFF7B5
:104B1800F8BF000010B50446084611461A4600239F
:104B2800FFF760FE064B00221A704FF6FF7258809E
:104B38009A801A689B882260A380204610BD00BF17
:104B480070E30320044B00204FF6FF721870588062
:104B58009A80FFF737BE00BF70E3032010B5044604
:104B68000068FFF7CBFE204610BD10B5044600686C
:104B780008B1FFF7C3FE00232360A360636010BD84
:104B880038B504460D4600680131FFF7BFFE10B185
:104B980084E82100012038BD10B50368044613B12C
:104BA80043688B4207D22046FFF7EAFF20B1A3688B
:104BB8000BB922681370012010BD70B50E4611465E
:104BC80004461546FFF7E8FF18B92046FFF7CDFF62
:104BD80009E02A463146A560206801F0A7FD226851
:104BE800A3680021D154204670BD38B5002304467F
:104BF80003604360836003730D4639B1084601F0D2
:104C0800D1FD294602462046FFF7D7FF204638BD8A
:104C1800F8B506460D468F180024BD420CD03368FF
:104C280015F8011B9B6830469847002801DB0444AF
:104C3800F3E7002C08BF04462046F8BD70B50546CA
:104C48000C46084649B101F0ADFD2B6802462146E5
:104C58002846DB68BDE87040184770BD08B5FFF707
:104C6800EDFF08BD03689B68184738B50D21054658
:104C7800FFF7F8FF0A2104462846FFF7F3FF204410
:104C880038BD38B50546FFF7D9FF04462846FFF773
:104C9800ECFF204438BD30B58BB00B4600218DF8B1
:104CA8002410012A98BF0A220DF12304B3FBF2F560
:104CB80005FB123303F0FF03092B94BF303337335E
:104CC800DBB2214604F801392B46002DEED1FFF75F
:104CD800B5FF0BB030BD10B42AB903685DF8044BBA
:104CE8009B68C9B21847D2B25DF8044BFFF7D3BF2F
:104CF800FFF7F1BF2DE9F04107460E4615462AB9E0
:104D08000368C9B29B68BDE8F04118470A2A02D176
:104D1800002901DA04E0D2B2BDE8F041FFF7BBBFD9
:104D28002D21FFF79FFF2A46044671423846FFF7B8
:104D3800B2FF2044BDE8F0812DE9F04757EC106B35
:104D480082460D4610EE102A3B4610EE100A3946F0
:104D580001F030FC08B1484912E027F000494FF053
:104D6800FF32464B3046494601F024FC68B94FF003
:104D7800FF32424B3046494601F0FEFB28B9404914
:104D88005046FFF75BFFBDE8F0874FF060423D4BB0
:104D98003046394601F004FC08B13B49F0E74FF0D2
:104DA80060423A4B3046394601F0DCFB0028F4D12A
:104DB800002200233046394601F0D4FB40B12D21B2
:104DC8005046FFF74FFF07F1004304461F4600E037
:104DD80004462F494FF0000800205FFA88F39D42EF
:104DE80006D900222B4B01F075FA08F10108F4E707
:104DF80032463B4600F092FF0F46064601F018FC8B
:104E08000A22014680465046FFF745FF04447DB319
:104E1800404601F0BFF802460B463046394600F0DE
:104E28007BFF06460F4650461B49FFF707FF044421
:104E3800184B00223046394601F022F90F46064643
:104E480001F0CEFB0A22014680465046FFF752FF8A
:104E58000444404601F0AEF802460B463046394657
:104E680000F05AFF013D15F0FF0506460F46DFD159
:104E78002046BDE8F08700BF48690D00FFFFEF7FBF
:104E880052690D00FFFFEF414C690D00FFFFEFC1B4
:104E98000000E03F0000244050690D0038B5C9B259
:104EA8000546FFF749FF04462846FFF7DEFE204483
:104EB80038BD0CB42DE9F04387B000AF07F13804D2
:104EC800054654F8049B3C600E4623464A46142186
:104ED800381DFFF723FD132805D8391D2846FFF78D
:104EE800ADFE044613E000F1080323F00703E8468B
:104EF800ADEB030D411C23464A4668463C60FFF76C
:104F08000DFD69462846FFF799FE0446C5461EB1C1
:104F18002846FFF7AAFE044420461C37BD46BDE8D4
:104F2800F04302B070470000014B024A1A60704714
:104F380078E30320096A0D00024B1A68024B1A60D5
:104F4800704700BF9CE203207CE303200021FFF7A9
:104F580041BC10B50446FFF7D6F8204610BD13B57E
:104F68000B46044603C88DE8030093E8030084E871
:104F780003009DE8030083E8030002B010BD0000B1
:104F88000348044A04490023836000F071BD00BF50
:104F980080E3032004E303205B4F0D00090941EA85
:104FA800001007EE900AB8EEE70ADFED027A80EE0D
:104FB800270A704700004844006800F039BB10B564
:104FC8000446016002710AB1FFF7F6FF204610BDE2
:104FD80038B504460D4600F02BFD2A46014620460A
:104FE800FFF7EDFF204638BD006800F02ABB10B57A
:104FF800037904460BB1FFF7F7FF204610BDF8B55B
:10500800044616461D460F46FFF7D6FF2068362190
:1050180000F000FB2068036839469B689847012127
:10502800206800F0FAFA022236210123206800F0F5
:10503800E8FA206803685B6998473070206803685D
:105048005B69984728702046BDE8F840FFF7CCBF59
:1050580007B502AB00228DF8062003F8012D0221C6
:105068000DF10602FFF7CBFF9DF807109DF806002B
:1050780003B05DF804EBFFF791BF000007B502AB82
:10508800002203F8012D8DF8062004210DF10602F7
:10509800FFF7B5FF9DF8070000F08CFF0022094BD1
:1050A80000F0EEFF01F0E4FA9DF8063000EE103A49
:1050B80007EE900AB8EEC00A37EE800A03B05DF832
:1050C80004FB00BF0000703F13460A460C21FFF79F
:1050D80096BFF8B5044616461D460F46FFF76CFF07
:1050E8002068362100F096FA2068036839469B68E4
:1050F80098472068036831469B689847206803688A
:1051080029469A6890472068012100F086FA2046CF
:10511800BDE8F840FFF768BF13B50446FFF74CFF3A
:1051280002AA002302F8013D0DF1060120468DF880
:105138000630FFF7C9FF9DF807309DF8062043F0B9
:1051480080030C212046FFF7C4FF2046FFF74CFFE1
:1051580002B010BD08B50C4B33B100F021F903685B
:105168001B699847002809DC084B63B100F0D6F9A1
:1051780003681B699847002803DC08BDAFF300806B
:10518800F2E7AFF3008008BD000000000000000057
:1051980008B5FFF7DFFFFFF7E5F9014B186008BD19
:1051A8001CE7032007B5002300931A466FF0770128
:1051B800FFF732FB03B05DF804FB000007B5438836
:1051C8000A2B08D0502B09D1094B1B683BB103B0FF
:1051D8005DF804EB1847FFF7E5FF06E000230093AE
:1051E8001A466FF07701FFF717FB03B05DF804FB71
:1051F80090E3032010B5FFF7A5F9044601F0AAFAD9
:10520800074B13B12046AFF3008000210448FFF795
:1052180065FB00210348BDE81040FFF7F3BA00BF63
:1052280000000000C5510D00704710B50446FEF798
:105238002EFF204610BDF0B5037D062B8DB00E461F
:1052480000F104074FF0000402D000F1080518E04F
:105258000CAD394605F8304D2F232A460A20FFF7B2
:10526800C9F9284601F09EFA33680246DB682946E8
:10527800304698470FE024B12E213046FFF7F2FC64
:10528800044415F8011D0A223046FFF731FDBD42DE
:105298000444F0D120460DB0F0BD000010B5054B18
:1052A8000446112240F8043B002101F04AFA204646
:1052B80010BD00BF646A0D000346074A10B543F8E5
:1052C800042B01F1100251F8044B43F8044B9142AE
:1052D800F9D10A781A7010BD646A0D0010B59DF8EE
:1052E800084044EA032343EA024242EA01610423F4
:1052F8004160037510BD37B50D788B784A78C97849
:1053080000912946FFF7EAFF03B030BD41747047AA
:1053180070470021007CFFF73DBA0121007CFFF7B0
:1053280039BA007CFFF72EBA007CFFF723BA38B5EC
:105338000446007C0D46FFF725FA002801DC607C56
:1053480020B12946207CFFF72DFA012038BD007CCA
:10535800FFF730BA10B50446FEF799FE204610BD97
:1053680010B50446002363604FF47A73A360054BBD
:10537800236001230846217463741146FFF7EAF994
:10538800204610BD786A0D000022007CFFF7EAB9BC
:1053980010B514220446002101F0D3F9204610BDAF
:1053A80030B50E4D87B001A8FFF7F2FF296811F05C
:1053B800010410D12846FEF76EFE60B101AA21460D
:1053C8000748FFF7CDFF2846FEF76AFE054A06495B
:1053D800034800F04DFB024807B030BD94E30320BA
:1053E80098E3032004E3032019530D00002211461B
:1053F8004068FFF733BA002211464068FFF74EBAFB
:10540800002211464068FFF759BA00224068FFF7AA
:105418004DBA002281F001014068FFF737BA002336
:105428001A4619464068FFF729BA00231A46194652
:105438004068FFF71BBA002211464068FFF7FEB923
:10544800002202214068FFF701BA00231A4640688B
:10545800FFF7ECB938B50C4D282422460021284620
:1054680001F06FF94FF0FF336B602C80074D042378
:1054780028466B60064B40F8083B2246002101F0A5
:1054880060F92C8138BD00BFDCE30320ACE30320C6
:10549800A86A0D00704741747047007CFFF7EAB8AE
:1054A800007CFFF7BFB8007CFFF7CCB8007CFFF7A3
:1054B800C1B8007CFFF7CEB810B50446FEF7E7FD8B
:1054C800204610BD70B5457C04460E4625B9007CC3
:1054D800FFF7D0F8002805DD3146207CBDE8704094
:1054E800FFF798B8284670BD10B50446084611461F
:1054F800002262604FF47A72A260054A226001229B
:10550800207462741A46FFF77DF8204610BD00BF6C
:10551800DC6A0D00007CFFF7A5B8000038B50C4D1B
:10552800296811F0010411D12846FEF7B4FD68B1CD
:10553800084A094B09482146FFF7D6FF2846FEF7D7
:10554800AFFD074A0749054800F092FA034838BDFD
:105558009CE40320A0E4032018E4032004E40320CF
:1055680004E303209D540D007047F8B50646154620
:105578000C468F18BC4206D0336814F8011B9B6890
:1055880030469847F6E72846F8BD0022007CFFF72A
:1055980099B80021007CFFF79DB80021007CFFF737
:1055A800A1B80021007CFFF7A5B80021007CFFF717
:1055B800A9B810B50446FEF76AFD204610BD0000E4
:1055C80010B504464FF47A730846A3600021044BD3
:1055D800207461602360FFF7A5F8204610BD00BF66
:1055E8000C6B0D0000231A461946007CFFF74AB8D9
:1055F80013B50024007C0094FFF74CF8C0B202B049
:1056080010BDDBB2D2B2C9B2FFF7F2BF0022007CF4
:10561800FFF748B8C9B2FFF7F9BF0022007CFFF7CF
:1056280049B80121FFF7F9BF0021007CFFF772B8E4
:1056380008B50021007CFFF77DF8B0FA80F040093A
:1056480008BD08B50021007CFFF77CF8B0FA80F0AF
:10565800400908BD002211464068FFF71FB9002223
:1056680011464068FFF72AB900224068FFF71EB9C3
:10567800002281F001014068FFF708B900231A46AB
:1056880019464068FFF7FAB800231A4619464068D9
:10569800FFF7ECB8002211464068FFF7DFB8002298
:1056A80011464068FFF7CAB8002202214068FFF798
:1056B800CDB800231A464068FFF7B8B810B10368A0
:1056C8005B681847704738B504460068D0B1FEF7E4
:1056D80061FFB8B9237C1BB9206808B1FEF762FFE7
:1056E800656855B1AB681BB103222946284698471F
:1056F8002846FEF7CCFC002363602068FEF75AFFBB
:105708000023236038BD000038B50B4B0360044606
:10571800D0F8CC0108B1FEF7BCFCD4F8C4512DB1C7
:105728002846FFF7D0FF2846FEF7B1FCA06808B16D
:10573800FFF7C4FF204638BD346B0D0038B50D4C5B
:105748000D4B23600025022304F5E4706360A56017
:10575800C4F8C451C4F8C851FEF73CFF074BC4F85D
:10576800CC5123602046064A0649BDE8384000F07F
:105778007FB900BF24E50320686B0D00346B0D0072
:1057880004E3032011570D0000231A464068FFF771
:105798004DB8002202214068FFF758B80022114690
:1057A8004068FFF74BB8002211464068FFF756B82B
:1057B80000231A4619464068FFF758B800231A46CE
:1057C80019464068FFF75AB8002281F00101406885
:1057D800FFF75CB800224068FFF768B8002211465E
:1057E8004068FFF76BB8002211464068FFF756B8CB
:1057F80070B58CB014460646FFF750FD0CAB00227E
:10580800114643F8302D2046FEF764FE014658BB8A
:10581800009B4BB35A68022A0ED00A2A24D15C692D
:10582800112201A800F08DFF06238DF8143001AD78
:1058380004F10803183405E0596930460431FFF7CC
:105848005AFD11E0186859682A4603C20833A34272
:105858001546F7D101A906A807ADFFF72DFD0FCD15
:10586800341D0FC42B6823700098FEF72BFE3046BA
:105878000CB070BD024B034A1A6000225A60704790
:10588800F4E60320686B0D0010B504460F48FFF7D7
:1058980035F928B1A4F10B03022B01D8002010BD63
:1058A80000F0A6F8FFF7C0FE08B1012CF6D9FFF703
:1058B80035FEFFF72FFE18B1A4F10903012BEDD92E
:1058C800232C8CBF0020012010BD00BFFCE6032064
:1058D800232838B504460D460AD8FF2908D0FFF713
:1058E800D3FF28B129462046BDE83840FEF702BE5E
:1058F80038BD38B504460D46FEF704FEFF2810D023
:10590800062804D84D2323FA00F0C30709D42046FB
:10591800FFF7BAFF28B129462046BDE83840FEF710
:10592800F9BD38BD70B50C4C0C4E0D4D002120460C
:10593800FFF7D0F820460B4C3246294600F098F87D
:1059480001212046FFF7C6F8324629462046BDE821
:10595800704000F08DB800BFFCE6032004E303208C
:10596800CD4A0D000CE7032030B51C4D89B0044624
:105978002068FEF7EFFDFEF7F5FD2B682268C01AD8
:105988009042F5D3236833B3E36823B3251D236915
:1059980028469847002304A9684602930693FFF710
:1059A800DEFA029B069A02920693079A039B0793D4
:1059B800294604A80392FFF7D2FA069BE268E3603F
:1059C800079B069204A8226923610792FEF79BFBB6
:1059D8006846FEF798FB09B030BD00BF1CE70320FE
:1059E80008B5FFF7C1FF0020BDE80840FEF7E2BD9B
:1059F80038B50B4D296811F001040FD12846FEF780
:105A08004AFB58B121460748FFF7DAFD2846FEF75A
:105A180047FB054A0549034800F02AF8014838BD04
:105A280020E7032038E7032004E3032071550D0025
:105A380010B50B4C2368DB070FD42046FEF72BFB71
:105A480058B101210748FFF7BBFD2046FEF728FBA8
:105A5800054A0649034800F00BF8024810BD00BF8C
:105A68004CE7032024E7032004E3032071550D00CD
:105A78000B460146184600F04BBE08B5FEF756FF28
:105A8800184B1A68D1075CBF01221A60164B1A68B6
:105A9800D2075CBF01221A60144B1A68D0075CBF9A
:105AA80001221A60124B1A68D1075CBF01221A60E2
:105AB800104B1A68D2075CBF01221A600E4B1A6895
:105AC800D0075CBF01221A600C4B1A68D1075CBF73
:105AD80001221A600A4B1A68D2075CBF01221A60B9
:105AE800704700BF6CE7032068E7032064E70320E2
:105AF80060E703205CE7032058E7032054E703200E
:105B080050E70320244B1A68D0075CBF01221A60B3
:105B1800224B1A68D1075CBF01221A60204B1A6811
:105B2800D2075CBF01221A601E4B1A68D0075CBFFF
:105B380001221A601C4B1A68D1075CBF01221A6047
:105B48001A4B1A68D2075CBF01221A60184B1A68F0
:105B5800D0075CBF01221A60164B1A68D1075CBFD8
:105B680001221A60144B1A68D2075CBF01221A601E
:105B7800124B1A68D0075CBF01221A60104B1A68D2
:105B8800D1075CBF01221A600E4B1A68D2075CBFAE
:105B980001221A60704700BF9CE7032098E70320A2
:105BA80094E7032090E703208CE7032088E703208D
:105BB80084E7032080E703207CE7032078E70320BD
:105BC80074E7032070E70320244B1A68D0075CBFF2
:105BD80001221A60224B1A68D1075CBF01221A60A1
:105BE800204B1A68D2075CBF01221A601E4B1A6844
:105BF800D0075CBF01221A601C4B1A68D1075CBF32
:105C080001221A601A4B1A68D2075CBF01221A6077
:105C1800184B1A68D0075CBF01221A60164B1A6825
:105C2800D1075CBF01221A60144B1A68D2075CBF07
:105C380001221A60124B1A68D0075CBF01221A6051
:105C4800104B1A68D1075CBF01221A600E4B1A6804
:105C5800D2075CBF01221A60704700BFCCE703205F
:105C6800C8E70320C4E70320C0E70320BCE70320FC
:105C7800B8E70320B4E70320B0E70320ACE703202C
:105C8800A8E70320A4E70320A0E70320184B1A681D
:105C9800D1075CBF01221A60164B1A68D2075CBF95
:105CA80001221A60144B1A68D0075CBF01221A60DF
:105CB800124B1A68D1075CBF01221A60104B1A6890
:105CC800D2075CBF01221A600E4B1A68D0075CBF6E
:105CD80001221A600C4B1A68D1075CBF01221A60B6
:105CE8000A4B1A68D2075CBF01221A60704700BFCE
:105CF800ECE70320E8E70320E4E70320E0E70320DC
:105D0800DCE70320D8E70320D4E70320D0E703200B
:105D180081F0004102E000BF83F0004330B54FEA54
:105D280041044FEA430594EA050F08BF90EA020FC1
:105D38001FBF54EA000C55EA020C7FEA645C7FEA54
:105D4800655C00F0E2804FEA5454D4EB5555B8BF77
:105D58006D420CDD2C4480EA020281EA030382EAE8
:105D6800000083EA010180EA020281EA0303362D7A
:105D780088BF30BD11F0004F4FEA01314FF4801C4D
:105D88004CEA113102D0404261EB410113F0004F5F
:105D98004FEA03334CEA133302D0524263EB430316
:105DA80094EA050F00F0A780A4F10104D5F1200EB4
:105DB8000DDB02FA0EFC22FA05F2801841F100010F
:105DC80003FA0EF2801843FA05F359410EE0A5F1E3
:105DD80020050EF1200E012A03FA0EFC28BF4CF014
:105DE800020C43FA05F3C01851EBE37101F00045CA
:105DF80007D54FF0000EDCF1000C7EEB00006EEBD7
:105E08000101B1F5801F1BD3B1F5001F0CD3490860
:105E18005FEA30004FEA3C0C04F101044FEA4452B7
:105E280012F5800F80F09A80BCF1004F08BF5FEA3E
:105E3800500C50F1000041EB045141EA050130BD1E
:105E48005FEA4C0C404141EB010111F4801FA4F1C1
:105E58000104E9D191F0000F04BF01460020B1FA16
:105E680081F308BF2033A3F10B03B3F120020CDA4E
:105E78000C3208DD02F1140CC2F10C0201FA0CF02C
:105E880021FA02F10CE002F11402D8BFC2F1200C91
:105E980001FA02F120FA0CFCDCBF41EA0C01904047
:105EA800E41AA2BF01EB0451294330BD6FEA040490
:105EB8001F3C1CDA0C340EDC04F11404C4F120027B
:105EC80020FA04F001FA02F340EA030021FA04F38D
:105ED80045EA030130BDC4F10C04C4F1200220FAE4
:105EE80002F001FA04F340EA0300294630BD21FA22
:105EF80004F0294630BD94F0000F83F4801306BFE8
:105F080081F480110134013D4EE77FEA645C18BFDB
:105F18007FEA655C29D094EA050F08BF90EA020F72
:105F280005D054EA000C04BF1946104630BD91EA6A
:105F3800030F1EBF0021002030BD5FEA545C05D16D
:105F48004000494128BF41F0004130BD14F58004AC
:105F58003CBF01F5801130BD01F0004545F0FE4120
:105F680041F470014FF0000030BD7FEA645C1ABF55
:105F7800194610467FEA655C1CBF0B46024650EA8C
:105F8800013406BF52EA033591EA030F41F40021B8
:105F980030BD00BF90F0000F04BF0021704730B53E
:105FA8004FF4806404F132044FF000054FF0000113
:105FB80050E700BF90F0000F04BF0021704730B5D4
:105FC8004FF4806404F1320410F0004548BF4042A9
:105FD8004FF000013EE700BF42004FEAE2014FEAFE
:105FE80031014FEA02701FBF12F07F4393F07F4FD9
:105FF80081F06051704792F0000F14BF93F07F4F0B
:10600800704730B54FF4607401F0004521F000414D
:1060180020E700BF50EA010208BF704730B54FF0D3
:1060280000050AE050EA010208BF704730B511F0D8
:10603800004502D5404261EB41014FF4806404F110
:1060480032045FEA915C3FF4DCAE4FF003025FEA92
:10605800DC0C18BF03325FEADC0C18BF033202EB1A
:10606800DC02C2F1200300FA03FC20FA02F001FA74
:1060780003FE40EA0E0021FA02F11444C1E600BF13
:1060880070B54FF0FF0C4CF4E06C1CEA11541DBFC6
:106098001CEA135594EA0C0F95EA0C0F00F0DEF891
:1060A8002C4481EA030621EA4C5123EA4C5350EA76
:1060B800013518BF52EA033541F4801143F48013C7
:1060C80038D0A0FB02CE4FF00005E1FB02E506F058
:1060D8000042E0FB03E54FF00006E1FB03569CF0AD
:1060E800000F18BF4EF0010EA4F1FF04B6F5007FB3
:1060F80064F5407404D25FEA4E0E6D4146EB060625
:1061080042EAC62141EA55514FEAC52040EA5E50AD
:106118004FEACE2EB4F1FD0C88BFBCF5E06F1ED857
:10612800BEF1004F08BF5FEA500E50F1000041EB8E
:10613800045170BD06F0004646EA010140EA02003B
:1061480081EA0301B4EB5C04C2BFD4EB0C0541EA5D
:10615800045170BD41F480114FF0000E013C00F372
:10616800AB8014F1360FDEBF002001F0004170BD96
:10617800C4F10004203C35DA0C341BDC04F11404AF
:10618800C4F1200500FA05F320FA04F001FA05F23B
:1061980040EA020001F0004221F0004110EBD37008
:1061A80021FA04F642EB06015EEA430E08BF20EA34
:1061B800D37070BDC4F10C04C4F1200500FA04F3D7
:1061C80020FA05F001FA04F240EA020001F0004169
:1061D80010EBD37041F100015EEA430E08BF20EADC
:1061E800D37070BDC4F1200500FA05F24EEA020E24
:1061F80020FA04F301FA05F243EA020321FA04F053
:1062080001F0004121FA04F220EA020000EBD37009
:106218005EEA430E08BF20EAD37070BD94F0000F09
:106228000FD101F00046400041EB010111F4801F3D
:1062380008BF013CF7D041EA060195F0000F18BFEE
:10624800704703F00046520043EB030313F4801F2A
:1062580008BF013DF7D043EA0603704794EA0C0FE4
:106268000CEA135518BF95EA0C0F0CD050EA4106FA
:1062780018BF52EA4306D1D181EA030101F0004177
:106288004FF0000070BD50EA410606BF104619469F
:1062980052EA430619D094EA0C0F02D150EA0136AB
:1062A80013D195EA0C0F05D152EA03361CBF1046EC
:1062B80019460AD181EA030101F0004141F0FE418B
:1062C80041F470014FF0000070BD41F0FE4141F40F
:1062D800780170BD70B54FF0FF0C4CF4E06C1CEA0F
:1062E80011541DBF1CEA135594EA0C0F95EA0C0FC4
:1062F80000F0A7F8A4EB050481EA030E52EA03357F
:106308004FEA013100F088804FEA03334FF080559F
:1063180045EA131343EA12634FEA022245EA1115CC
:1063280045EA10654FEA00260EF000419D4208BF7D
:10633800964244F1FD0404F5407402D25B084FEA2A
:106348003202B61A65EB03055B084FEA32024FF4D6
:1063580080104FF4002CB6EB020E75EB030E22BF33
:10636800B61A754640EA0C005B084FEA3202B6EBF3
:10637800020E75EB030E22BFB61A754640EA5C00A2
:106388005B084FEA3202B6EB020E75EB030E22BF32
:10639800B61A754640EA9C005B084FEA3202B6EB33
:1063A800020E75EB030E22BFB61A754640EADC00F2
:1063B80055EA060E18D04FEA051545EA16754FEA54
:1063C80006164FEAC30343EA52734FEAC2025FEA72
:1063D8001C1CC0D111F4801F0BD141EA00014FF001
:1063E80000004FF0004CB6E711F4801F04BF0143D2
:1063F8000020B4F1FD0C88BFBCF5E06F3FF6AFAEEE
:10640800B5EB030C04BFB6EB020C5FEA500C50F17D
:10641800000041EB045170BD0EF0004E4EEA113100
:1064280014EB5C04C2BFD4EB0C0541EA045170BD07
:1064380041F480114FF0000E013C90E645EA060E4B
:106448008DE60CEA135594EA0C0F08BF95EA0C0F79
:106458003FF43BAF94EA0C0F0AD150EA01347FF4C1
:1064680034AF95EA0C0F7FF425AF104619462CE798
:1064780095EA0C0F06D152EA03353FF4FDAE1046FB
:10648800194622E750EA410618BF52EA43067FF44C
:10649800C5AE50EA41047FF40DAF52EA43057FF4DC
:1064A800EBAE12E74FF0FF3C06E000BF4FF0010CE7
:1064B80002E000BF4FF0010C4DF804CD4FEA410C4B
:1064C8007FEA6C5C4FEA430C18BF7FEA6C5C1BD018
:1064D80001B050EA410C0CBF52EA430C91EA030F99
:1064E80002BF90EA020F0020704710F1000F91EAF6
:1064F800030F58BF994208BF90422CBFD8176FEAC4
:10650800E37040F0010070474FEA410C7FEA6C5C91
:1065180002D150EA013C07D14FEA430C7FEA6C5C98
:10652800D6D152EA033CD3D05DF8040B704700BFC4
:106538008446104662468C461946634600E000BF12
:1065480001B5FFF7B7FF002848BF10F1000F01BDE4
:106558004DF808EDFFF7F4FF0CBF012000205DF8AF
:1065680008FB00BF4DF808EDFFF7EAFF34BF012034
:1065780000205DF808FB00BF4DF808EDFFF7E0FFCD
:1065880094BF012000205DF808FB00BF4DF808ED1E
:10659800FFF7CEFF94BF012000205DF808FB00BF85
:1065A8004DF808EDFFF7C4FF34BF012000205DF867
:1065B80008FB00BF4FEA410C7FEA6C5C02D150EA4D
:1065C800013C0AD14FEA430C7FEA6C5C02D152EAE3
:1065D800033C02D14FF0000070474FF001007047B4
:1065E8004FEA410212F5001215D211D56FF47873F3
:1065F800B3EB625212D94FEAC12343F0004343EA96
:10660800505311F0004F23FA02F018BF4042704770
:106618004FF00000704750EA013005D111F00040FA
:1066280008BF6FF0004070474FF00000704700BF90
:106638004A0011D212F5001211D20DD56FF47873F9
:10664800B3EB62520ED44FEAC12343F0004343EA4E
:10665800505323FA02F070474FF00000704750EA99
:10666800013002D14FF0FF3070474FF00000704703
:106678004FEA4102B2F1E04324BFB3F5001CDCF15C
:10668800FE5C0DD901F0004C4FEAC0024CEA507094
:10669800B2F1004F40EB830008BF20F001007047C3
:1066A80011F0804F21D113F13872BCBF01F00040C6
:1066B800704741F480114FEA5252C2F11802C2F1F8
:1066C800200C10FA0CF320FA02F018BF40F0010079
:1066D8004FEAC1234FEAD32303FA0CFC40EA0C002B
:1066E80023FA02F34FEA4303CCE77FEA625307D168
:1066F80050EA01331EBF4FF0FE4040F4400070479F
:1067080001F0004040F0FE4040F40000704700BF38
:1067180010B5054C13462CB10A4601460220AFF3CA
:10672800008010BD204610BD0000000010B5431EBB
:106738000A44914204D011F8014B03F8014FF8E7DD
:1067480010BD02440346934202D003F8011BFAE746
:106758007047000038B5124B1C68A36B0546D3B9C7
:106768001820FEF7C3F843F20E33A06303804AF6FD
:10677800CD33438041F2342383804EF26D63C3806E
:106788004DF6EC630381052343810B2383810122AA
:106798000023C0E90423A36B00221D615A6138BDA0
:1067A80000E30320034613F8012B002AFBD1181A33
:1067B800013870471D400D0059400D0085400D00FF
:1067C80089400D00000000005761746368646F67BA
:1067D8002074696D656F75740057656174686572BA
:1067E8002053746174696F6E00446576696365202F
:1067F80049443A2025730053797374656D20766592
:106808007273696F6E3A20257300496E7075742033
:10681800566F6C74616765204C696D69743A202500
:106828006400496E7075742043757272656E7420C9
:106838004C696D69743A202564004D696E696D75FF
:106848006D2053797374656D20566F6C746167653C
:106858003A20256400436861726765204375727247
:10686800656E743A20256400436861726765205636
:106878006F6C746167653A202564004368617267CC
:10688800653A2000566F6C746167653A200044656C
:10689800657020536C65657020666F7220256420D2
:1068A8006D696C6C697365636F6E647300547261B3
:1068B8006E736D697373696F6E2073746174757329
:1068C800202564006170707764740000640096008D
:1068D800F4018403B004DC05D007B80BB80B000042
:1068E8001C0C0000800C0000E40C0000480D0000A7
:1068F800AC0D0000100E0000740E00000000000037
:1069080000000000AF4A0D00A54A0D009B4A0D008B
:10691800914A0D00854A0D00794A0D006D4A0D0017
:10692800654A0D005B4A0D00514A0D00F9570D00EC
:106938000000000000000000CD4A0D00CF4A0D0005
:106948006E616E006F7666002E00696E66006C6E72
:1069580000666E00636F64650064657461696C004D
:106968000D0A00253031307520005D20002C2000F4
:1069780028293A2000205B00636F6465203D2000D1
:1069880025690064657461696C73203D200062614B
:1069980075640053657269616C0053657269616C56
:1069A80031007479706500706172616D00636D64A7
:1069B80000696400686E64007374726D0066696CC7
:1069C80074006C766C0061646448616E646C657216
:1069D8000072656D6F766548616E646C65720065FE
:1069E8006E756D48616E646C657273004A534F4EE4
:1069F80053747265616D4C6F6748616E646C657243
:106A080000617070006E6F6E65007472616365007E
:106A1800696E666F007761726E006572726F7200E0
:106A280070616E696300616C6C005A00252B30330D
:106A3800643A253032750025592D256D2D2564546D
:106A480025483A254D3A2553257A006173637469C0
:106A58006D65000000000000000000003F520D00BE
:106A680031520D0033520D000000000000000000FC
:106A780019530D005D530D0037530D00194C0D00CF
:106A880031530D001B530D0023530D0057530D00B8
:106A98002B530D0015530D000000000000000000EE
:106AA80053540D0049540D003F540D00F5530D008B
:106AB80033540D0027540D001B540D0013540D00C2
:106AC80009540D00FF530D00F9570D000000000098
:106AD800000000009D540D00C1540D00CD540D0060
:106AE800194C0D00A9540D00B5540D00AF540D00FC
:106AF800BB540D009F540D00A3540D00000000006E
:106B08000000000071550D00BB550D0093550D0098
:106B180073550D009B550D00A3550D00AB550D0089
:106B2800B3550D000000000000000000BB560D002A
:106B3800B1560D00A7560D009D560D0091560D003B
:106B480085560D0079560D0071560D0067560D00DB
:106B58005D560D00F9570D00000000000000000010
:106B680091570D009B570D00A5570D00AF570D000D
:106B7800B9570D00C5570D00D1570D00DD570D0051
:106B8800E5570D00EF570D00F9570D000000000004
:106B980000000000000000000000000000000000ED
:106BA80000000000000000000000000000000000DD
:106BB80000000000000000000000000000000000CD
:106BC80000000000000000000000000000000000BD
:106BD80000000000000000000000000000000000AD
:106BE800000000000000000000000000430000005A
:106BF80091430D00AD440D00C1440D00C7440D0084
:106C0800B94A0D004D4B0D00314F0D00414F0D009D
:106C1800894F0D005D540D0045570D007D580D003E
:106C28002D590D00895A0D000D5B0D00D15B0D002B
:086C3800955C0D000000000056
:106C4000536A0D0000000000946B0D00B46B0D0042
:106C5000D46B0D00000000000000000000000000E8
:106C600000000000F46B0D000000000000000000B8
:106C70000000000000000000000000000000000014
:106C80000000000000000000000000000000000004
:106C900000000000000000000000000000000000F4
:086CA00000000000A0E2032047
:106CA800FFFFFFFF00000102030405060708090AA9
:106CB8000B0C0D0E0F101112131415161718191AA4
:086CC8001B1C1D1E1F202800EB
:046CD00078563412AC
:04000003D0004018D1
:00000001FF
